{
  "_format": "hh-sol-artifact-1",
  "contractName": "MessageSpaceStationUg",
  "sourceName": "contracts/MessageSpaceStation.ugradable.sol",
  "abi": [
    {
      "inputs": [],
      "stateMutability": "nonpayable",
      "type": "constructor"
    },
    {
      "inputs": [],
      "name": "AccessDenied",
      "type": "error"
    },
    {
      "inputs": [
        {
          "internalType": "address",
          "name": "target",
          "type": "address"
        }
      ],
      "name": "AddressEmptyCode",
      "type": "error"
    },
    {
      "inputs": [],
      "name": "ArrivalTimeNotMakeSense",
      "type": "error"
    },
    {
      "inputs": [
        {
          "internalType": "address",
          "name": "implementation",
          "type": "address"
        }
      ],
      "name": "ERC1967InvalidImplementation",
      "type": "error"
    },
    {
      "inputs": [],
      "name": "ERC1967NonPayable",
      "type": "error"
    },
    {
      "inputs": [
        {
          "internalType": "bytes32",
          "name": "messageId",
          "type": "bytes32"
        }
      ],
      "name": "ExcuteError",
      "type": "error"
    },
    {
      "inputs": [],
      "name": "FailedInnerCall",
      "type": "error"
    },
    {
      "inputs": [],
      "name": "InvalidAddress",
      "type": "error"
    },
    {
      "inputs": [],
      "name": "InvalidInitialization",
      "type": "error"
    },
    {
      "inputs": [],
      "name": "InvalidMessage",
      "type": "error"
    },
    {
      "inputs": [],
      "name": "LandingPadOccupied",
      "type": "error"
    },
    {
      "inputs": [],
      "name": "NotImplement",
      "type": "error"
    },
    {
      "inputs": [],
      "name": "NotInitializing",
      "type": "error"
    },
    {
      "inputs": [
        {
          "internalType": "address",
          "name": "owner",
          "type": "address"
        }
      ],
      "name": "OwnableInvalidOwner",
      "type": "error"
    },
    {
      "inputs": [
        {
          "internalType": "address",
          "name": "account",
          "type": "address"
        }
      ],
      "name": "OwnableUnauthorizedAccount",
      "type": "error"
    },
    {
      "inputs": [
        {
          "internalType": "bool[]",
          "name": "results",
          "type": "bool[]"
        }
      ],
      "name": "SimulateResult",
      "type": "error"
    },
    {
      "inputs": [],
      "name": "StationPaused",
      "type": "error"
    },
    {
      "inputs": [],
      "name": "TimeNotReached",
      "type": "error"
    },
    {
      "inputs": [],
      "name": "UUPSUnauthorizedCallContext",
      "type": "error"
    },
    {
      "inputs": [
        {
          "internalType": "bytes32",
          "name": "slot",
          "type": "bytes32"
        }
      ],
      "name": "UUPSUnsupportedProxiableUUID",
      "type": "error"
    },
    {
      "inputs": [],
      "name": "ValueNotMatched",
      "type": "error"
    },
    {
      "inputs": [],
      "name": "WithdrawError",
      "type": "error"
    },
    {
      "anonymous": false,
      "inputs": [
        {
          "indexed": true,
          "internalType": "bool",
          "name": "isPause",
          "type": "bool"
        }
      ],
      "name": "EngineStatusRefreshing",
      "type": "event"
    },
    {
      "anonymous": false,
      "inputs": [
        {
          "indexed": false,
          "internalType": "uint64",
          "name": "version",
          "type": "uint64"
        }
      ],
      "name": "Initialized",
      "type": "event"
    },
    {
      "anonymous": false,
      "inputs": [
        {
          "indexed": true,
          "internalType": "address",
          "name": "previousOwner",
          "type": "address"
        },
        {
          "indexed": true,
          "internalType": "address",
          "name": "newOwner",
          "type": "address"
        }
      ],
      "name": "OwnershipTransferred",
      "type": "event"
    },
    {
      "anonymous": false,
      "inputs": [
        {
          "indexed": true,
          "internalType": "address",
          "name": "paymentSystemAddress",
          "type": "address"
        }
      ],
      "name": "PaymentSystemChanging",
      "type": "event"
    },
    {
      "anonymous": false,
      "inputs": [
        {
          "indexed": true,
          "internalType": "address",
          "name": "sequencerAddress",
          "type": "address"
        },
        {
          "indexed": false,
          "internalType": "bool",
          "name": "state",
          "type": "bool"
        }
      ],
      "name": "SequencerStatusChanging",
      "type": "event"
    },
    {
      "anonymous": false,
      "inputs": [
        {
          "indexed": true,
          "internalType": "bytes32",
          "name": "messageId",
          "type": "bytes32"
        },
        {
          "components": [
            {
              "internalType": "uint64",
              "name": "srcChainld",
              "type": "uint64"
            },
            {
              "internalType": "address",
              "name": "sender",
              "type": "address"
            },
            {
              "internalType": "bytes32",
              "name": "messgeId",
              "type": "bytes32"
            }
          ],
          "indexed": false,
          "internalType": "struct IMessageStruct.PostingLanding",
          "name": "params",
          "type": "tuple"
        }
      ],
      "name": "SuccessfulBatchLanding",
      "type": "event"
    },
    {
      "anonymous": false,
      "inputs": [
        {
          "indexed": true,
          "internalType": "bytes32",
          "name": "messageId",
          "type": "bytes32"
        },
        {
          "components": [
            {
              "internalType": "uint64",
              "name": "srcChainld",
              "type": "uint64"
            },
            {
              "internalType": "uint24",
              "name": "nonceLandingCurrent",
              "type": "uint24"
            },
            {
              "internalType": "address",
              "name": "sender",
              "type": "address"
            },
            {
              "internalType": "uint256",
              "name": "value",
              "type": "uint256"
            },
            {
              "internalType": "bytes32",
              "name": "messgeId",
              "type": "bytes32"
            },
            {
              "internalType": "bytes",
              "name": "message",
              "type": "bytes"
            }
          ],
          "indexed": false,
          "internalType": "struct IMessageStruct.InteractionLanding",
          "name": "params",
          "type": "tuple"
        }
      ],
      "name": "SuccessfulLanding",
      "type": "event"
    },
    {
      "anonymous": false,
      "inputs": [
        {
          "indexed": true,
          "internalType": "uint32",
          "name": "nonce",
          "type": "uint32"
        },
        {
          "components": [
            {
              "internalType": "uint64",
              "name": "earlistArrivalTimestamp",
              "type": "uint64"
            },
            {
              "internalType": "uint64",
              "name": "latestArrivalTimestamp",
              "type": "uint64"
            },
            {
              "internalType": "address",
              "name": "relayer",
              "type": "address"
            },
            {
              "internalType": "address",
              "name": "sender",
              "type": "address"
            },
            {
              "internalType": "uint256",
              "name": "value",
              "type": "uint256"
            },
            {
              "internalType": "uint64",
              "name": "destChainld",
              "type": "uint64"
            },
            {
              "internalType": "bytes",
              "name": "aditionParams",
              "type": "bytes"
            },
            {
              "internalType": "bytes",
              "name": "message",
              "type": "bytes"
            }
          ],
          "indexed": false,
          "internalType": "struct IMessageStruct.launchSingleMsgParams",
          "name": "params",
          "type": "tuple"
        }
      ],
      "name": "SuccessfulLaunchMessage",
      "type": "event"
    },
    {
      "anonymous": false,
      "inputs": [
        {
          "indexed": true,
          "internalType": "uint32[]",
          "name": "nonce",
          "type": "uint32[]"
        },
        {
          "components": [
            {
              "internalType": "uint64",
              "name": "earlistArrivalTimestamp",
              "type": "uint64"
            },
            {
              "internalType": "uint64",
              "name": "latestArrivalTimestamp",
              "type": "uint64"
            },
            {
              "internalType": "address",
              "name": "relayer",
              "type": "address"
            },
            {
              "internalType": "address",
              "name": "sender",
              "type": "address"
            },
            {
              "internalType": "uint256[]",
              "name": "value",
              "type": "uint256[]"
            },
            {
              "internalType": "uint64[]",
              "name": "destChainld",
              "type": "uint64[]"
            },
            {
              "internalType": "bytes[]",
              "name": "aditionParams",
              "type": "bytes[]"
            },
            {
              "internalType": "bytes[]",
              "name": "message",
              "type": "bytes[]"
            }
          ],
          "indexed": false,
          "internalType": "struct IMessageStruct.launchMultiMsgParams",
          "name": "params",
          "type": "tuple"
        }
      ],
      "name": "SuccessfulLaunchMessages",
      "type": "event"
    },
    {
      "anonymous": false,
      "inputs": [
        {
          "indexed": true,
          "internalType": "uint32",
          "name": "nonce",
          "type": "uint32"
        },
        {
          "components": [
            {
              "internalType": "uint64",
              "name": "earlistArrivalTimestamp",
              "type": "uint64"
            },
            {
              "internalType": "uint64",
              "name": "latestArrivalTimestamp",
              "type": "uint64"
            },
            {
              "internalType": "address",
              "name": "relayer",
              "type": "address"
            },
            {
              "internalType": "address",
              "name": "sender",
              "type": "address"
            },
            {
              "internalType": "uint256[]",
              "name": "value",
              "type": "uint256[]"
            },
            {
              "internalType": "uint64[]",
              "name": "destChainld",
              "type": "uint64[]"
            },
            {
              "internalType": "bytes[]",
              "name": "aditionParams",
              "type": "bytes[]"
            },
            {
              "internalType": "bytes[]",
              "name": "message",
              "type": "bytes[]"
            }
          ],
          "indexed": false,
          "internalType": "struct IMessageStruct.launchMultiMsgParams",
          "name": "params",
          "type": "tuple"
        }
      ],
      "name": "SuccessfulLaunchMessages2",
      "type": "event"
    },
    {
      "anonymous": false,
      "inputs": [
        {
          "indexed": true,
          "internalType": "address",
          "name": "implementation",
          "type": "address"
        }
      ],
      "name": "Upgraded",
      "type": "event"
    },
    {
      "anonymous": false,
      "inputs": [
        {
          "indexed": true,
          "internalType": "uint256",
          "name": "amount",
          "type": "uint256"
        }
      ],
      "name": "WithdrawRequest",
      "type": "event"
    },
    {
      "inputs": [],
      "name": "ChainId",
      "outputs": [
        {
          "internalType": "uint64",
          "name": "",
          "type": "uint64"
        }
      ],
      "stateMutability": "view",
      "type": "function"
    },
    {
      "inputs": [
        {
          "internalType": "address",
          "name": "trustedRelayerAddr",
          "type": "address"
        },
        {
          "internalType": "bool",
          "name": "state",
          "type": "bool"
        }
      ],
      "name": "ConfigTrustedRelayer",
      "outputs": [],
      "stateMutability": "nonpayable",
      "type": "function"
    },
    {
      "inputs": [
        {
          "components": [
            {
              "internalType": "uint64",
              "name": "srcChainld",
              "type": "uint64"
            },
            {
              "internalType": "uint24",
              "name": "nonceLandingCurrent",
              "type": "uint24"
            },
            {
              "internalType": "address",
              "name": "sender",
              "type": "address"
            },
            {
              "internalType": "uint256",
              "name": "value",
              "type": "uint256"
            },
            {
              "internalType": "bytes32",
              "name": "messgeId",
              "type": "bytes32"
            },
            {
              "internalType": "bytes",
              "name": "message",
              "type": "bytes"
            }
          ],
          "internalType": "struct IMessageStruct.InteractionLanding[]",
          "name": "params",
          "type": "tuple[]"
        }
      ],
      "name": "EstimateExcuteGas",
      "outputs": [
        {
          "internalType": "bool[]",
          "name": "",
          "type": "bool[]"
        }
      ],
      "stateMutability": "nonpayable",
      "type": "function"
    },
    {
      "inputs": [
        {
          "components": [
            {
              "internalType": "uint64",
              "name": "earlistArrivalTimestamp",
              "type": "uint64"
            },
            {
              "internalType": "uint64",
              "name": "latestArrivalTimestamp",
              "type": "uint64"
            },
            {
              "internalType": "address",
              "name": "relayer",
              "type": "address"
            },
            {
              "internalType": "address",
              "name": "sender",
              "type": "address"
            },
            {
              "internalType": "uint256",
              "name": "value",
              "type": "uint256"
            },
            {
              "internalType": "uint64",
              "name": "destChainld",
              "type": "uint64"
            },
            {
              "internalType": "bytes",
              "name": "aditionParams",
              "type": "bytes"
            },
            {
              "internalType": "bytes",
              "name": "message",
              "type": "bytes"
            }
          ],
          "internalType": "struct IMessageStruct.launchSingleMsgParams",
          "name": "params",
          "type": "tuple"
        }
      ],
      "name": "EstimateFee",
      "outputs": [
        {
          "internalType": "uint256",
          "name": "",
          "type": "uint256"
        }
      ],
      "stateMutability": "view",
      "type": "function"
    },
    {
      "inputs": [
        {
          "components": [
            {
              "internalType": "uint64",
              "name": "earlistArrivalTimestamp",
              "type": "uint64"
            },
            {
              "internalType": "uint64",
              "name": "latestArrivalTimestamp",
              "type": "uint64"
            },
            {
              "internalType": "address",
              "name": "relayer",
              "type": "address"
            },
            {
              "internalType": "address",
              "name": "sender",
              "type": "address"
            },
            {
              "internalType": "uint256[]",
              "name": "value",
              "type": "uint256[]"
            },
            {
              "internalType": "uint64[]",
              "name": "destChainld",
              "type": "uint64[]"
            },
            {
              "internalType": "bytes[]",
              "name": "aditionParams",
              "type": "bytes[]"
            },
            {
              "internalType": "bytes[]",
              "name": "message",
              "type": "bytes[]"
            }
          ],
          "internalType": "struct IMessageStruct.launchMultiMsgParams",
          "name": "params",
          "type": "tuple"
        }
      ],
      "name": "EstimateFee",
      "outputs": [
        {
          "internalType": "uint256",
          "name": "",
          "type": "uint256"
        }
      ],
      "stateMutability": "view",
      "type": "function"
    },
    {
      "inputs": [],
      "name": "ExpertLandingHandler",
      "outputs": [
        {
          "internalType": "contract IExpertLandingHandler",
          "name": "",
          "type": "address"
        }
      ],
      "stateMutability": "view",
      "type": "function"
    },
    {
      "inputs": [
        {
          "internalType": "uint64",
          "name": "chainId",
          "type": "uint64"
        },
        {
          "internalType": "address",
          "name": "sender",
          "type": "address"
        }
      ],
      "name": "GetNonceLanding",
      "outputs": [
        {
          "internalType": "uint32",
          "name": "",
          "type": "uint32"
        }
      ],
      "stateMutability": "view",
      "type": "function"
    },
    {
      "inputs": [
        {
          "internalType": "uint64",
          "name": "chainId",
          "type": "uint64"
        },
        {
          "internalType": "address",
          "name": "sender",
          "type": "address"
        }
      ],
      "name": "GetNonceLaunch",
      "outputs": [
        {
          "internalType": "uint32",
          "name": "",
          "type": "uint32"
        }
      ],
      "stateMutability": "view",
      "type": "function"
    },
    {
      "inputs": [
        {
          "internalType": "bytes32",
          "name": "mptRootNew",
          "type": "bytes32"
        },
        {
          "internalType": "uint64",
          "name": "aggregatedEarlistArrivalTimestamp",
          "type": "uint64"
        },
        {
          "internalType": "uint64",
          "name": "aggregatedLatestArrivalTimestamp",
          "type": "uint64"
        },
        {
          "components": [
            {
              "internalType": "uint64",
              "name": "srcChainld",
              "type": "uint64"
            },
            {
              "internalType": "address",
              "name": "sender",
              "type": "address"
            },
            {
              "internalType": "bytes32",
              "name": "messgeId",
              "type": "bytes32"
            }
          ],
          "internalType": "struct IMessageStruct.PostingLanding[]",
          "name": "params",
          "type": "tuple[]"
        }
      ],
      "name": "Landing",
      "outputs": [],
      "stateMutability": "nonpayable",
      "type": "function"
    },
    {
      "inputs": [
        {
          "internalType": "bytes32",
          "name": "mptRootNew",
          "type": "bytes32"
        },
        {
          "internalType": "uint64",
          "name": "aggregatedEarlistArrivalTimestamp",
          "type": "uint64"
        },
        {
          "internalType": "uint64",
          "name": "aggregatedLatestArrivalTimestamp",
          "type": "uint64"
        },
        {
          "components": [
            {
              "internalType": "uint64",
              "name": "srcChainld",
              "type": "uint64"
            },
            {
              "internalType": "uint24",
              "name": "nonceLandingCurrent",
              "type": "uint24"
            },
            {
              "internalType": "address",
              "name": "sender",
              "type": "address"
            },
            {
              "internalType": "uint256",
              "name": "value",
              "type": "uint256"
            },
            {
              "internalType": "bytes32",
              "name": "messgeId",
              "type": "bytes32"
            },
            {
              "internalType": "bytes",
              "name": "message",
              "type": "bytes"
            }
          ],
          "internalType": "struct IMessageStruct.InteractionLanding[]",
          "name": "params",
          "type": "tuple[]"
        }
      ],
      "name": "Landing",
      "outputs": [],
      "stateMutability": "payable",
      "type": "function"
    },
    {
      "inputs": [
        {
          "components": [
            {
              "internalType": "uint64",
              "name": "earlistArrivalTimestamp",
              "type": "uint64"
            },
            {
              "internalType": "uint64",
              "name": "latestArrivalTimestamp",
              "type": "uint64"
            },
            {
              "internalType": "address",
              "name": "relayer",
              "type": "address"
            },
            {
              "internalType": "address",
              "name": "sender",
              "type": "address"
            },
            {
              "internalType": "uint256[]",
              "name": "value",
              "type": "uint256[]"
            },
            {
              "internalType": "uint64[]",
              "name": "destChainld",
              "type": "uint64[]"
            },
            {
              "internalType": "bytes[]",
              "name": "aditionParams",
              "type": "bytes[]"
            },
            {
              "internalType": "bytes[]",
              "name": "message",
              "type": "bytes[]"
            }
          ],
          "internalType": "struct IMessageStruct.launchMultiMsgParams",
          "name": "params",
          "type": "tuple"
        }
      ],
      "name": "Launch",
      "outputs": [],
      "stateMutability": "payable",
      "type": "function"
    },
    {
      "inputs": [
        {
          "components": [
            {
              "internalType": "uint64",
              "name": "earlistArrivalTimestamp",
              "type": "uint64"
            },
            {
              "internalType": "uint64",
              "name": "latestArrivalTimestamp",
              "type": "uint64"
            },
            {
              "internalType": "address",
              "name": "relayer",
              "type": "address"
            },
            {
              "internalType": "address",
              "name": "sender",
              "type": "address"
            },
            {
              "internalType": "uint256",
              "name": "value",
              "type": "uint256"
            },
            {
              "internalType": "uint64",
              "name": "destChainld",
              "type": "uint64"
            },
            {
              "internalType": "bytes",
              "name": "aditionParams",
              "type": "bytes"
            },
            {
              "internalType": "bytes",
              "name": "message",
              "type": "bytes"
            }
          ],
          "internalType": "struct IMessageStruct.launchSingleMsgParams",
          "name": "params",
          "type": "tuple"
        }
      ],
      "name": "Launch",
      "outputs": [],
      "stateMutability": "payable",
      "type": "function"
    },
    {
      "inputs": [],
      "name": "Manager",
      "outputs": [
        {
          "internalType": "address",
          "name": "",
          "type": "address"
        }
      ],
      "stateMutability": "view",
      "type": "function"
    },
    {
      "inputs": [
        {
          "internalType": "bool",
          "name": "stop",
          "type": "bool"
        }
      ],
      "name": "PauseEngine",
      "outputs": [],
      "stateMutability": "nonpayable",
      "type": "function"
    },
    {
      "inputs": [
        {
          "internalType": "address",
          "name": "paymentSystemAddress",
          "type": "address"
        }
      ],
      "name": "SetPaymentSystem",
      "outputs": [],
      "stateMutability": "nonpayable",
      "type": "function"
    },
    {
      "inputs": [
        {
          "components": [
            {
              "internalType": "uint64",
              "name": "srcChainld",
              "type": "uint64"
            },
            {
              "internalType": "uint24",
              "name": "nonceLandingCurrent",
              "type": "uint24"
            },
            {
              "internalType": "address",
              "name": "sender",
              "type": "address"
            },
            {
              "internalType": "uint256",
              "name": "value",
              "type": "uint256"
            },
            {
              "internalType": "bytes32",
              "name": "messgeId",
              "type": "bytes32"
            },
            {
              "internalType": "bytes",
              "name": "message",
              "type": "bytes"
            }
          ],
          "internalType": "struct IMessageStruct.InteractionLanding[]",
          "name": "params",
          "type": "tuple[]"
        }
      ],
      "name": "SimulateLanding",
      "outputs": [],
      "stateMutability": "nonpayable",
      "type": "function"
    },
    {
      "inputs": [
        {
          "internalType": "address",
          "name": "",
          "type": "address"
        }
      ],
      "name": "TrustedRelayer",
      "outputs": [
        {
          "internalType": "bool",
          "name": "",
          "type": "bool"
        }
      ],
      "stateMutability": "view",
      "type": "function"
    },
    {
      "inputs": [],
      "name": "UPGRADE_INTERFACE_VERSION",
      "outputs": [
        {
          "internalType": "string",
          "name": "",
          "type": "string"
        }
      ],
      "stateMutability": "view",
      "type": "function"
    },
    {
      "inputs": [],
      "name": "Version",
      "outputs": [
        {
          "internalType": "string",
          "name": "",
          "type": "string"
        }
      ],
      "stateMutability": "view",
      "type": "function"
    },
    {
      "inputs": [
        {
          "internalType": "uint256",
          "name": "amount",
          "type": "uint256"
        }
      ],
      "name": "Withdraw",
      "outputs": [],
      "stateMutability": "nonpayable",
      "type": "function"
    },
    {
      "inputs": [
        {
          "internalType": "address",
          "name": "trustedRelayerAddr",
          "type": "address"
        },
        {
          "internalType": "address",
          "name": "paymentSystemAddr",
          "type": "address"
        },
        {
          "internalType": "address",
          "name": "_owner",
          "type": "address"
        }
      ],
      "name": "initialize",
      "outputs": [],
      "stateMutability": "nonpayable",
      "type": "function"
    },
    {
      "inputs": [],
      "name": "isLanding",
      "outputs": [
        {
          "internalType": "uint8",
          "name": "",
          "type": "uint8"
        }
      ],
      "stateMutability": "view",
      "type": "function"
    },
    {
      "inputs": [],
      "name": "isPaused",
      "outputs": [
        {
          "internalType": "uint8",
          "name": "",
          "type": "uint8"
        }
      ],
      "stateMutability": "view",
      "type": "function"
    },
    {
      "inputs": [
        {
          "internalType": "address",
          "name": "addr",
          "type": "address"
        }
      ],
      "name": "isTrustedRelayer",
      "outputs": [
        {
          "internalType": "bool",
          "name": "",
          "type": "bool"
        }
      ],
      "stateMutability": "view",
      "type": "function"
    },
    {
      "inputs": [],
      "name": "maxArrivalTime",
      "outputs": [
        {
          "internalType": "uint64",
          "name": "",
          "type": "uint64"
        }
      ],
      "stateMutability": "view",
      "type": "function"
    },
    {
      "inputs": [],
      "name": "minArrivalTime",
      "outputs": [
        {
          "internalType": "uint64",
          "name": "",
          "type": "uint64"
        }
      ],
      "stateMutability": "view",
      "type": "function"
    },
    {
      "inputs": [],
      "name": "nonce",
      "outputs": [
        {
          "internalType": "uint32",
          "name": "",
          "type": "uint32"
        }
      ],
      "stateMutability": "view",
      "type": "function"
    },
    {
      "inputs": [
        {
          "internalType": "bytes32",
          "name": "",
          "type": "bytes32"
        }
      ],
      "name": "nonceLanding",
      "outputs": [
        {
          "internalType": "uint32",
          "name": "",
          "type": "uint32"
        }
      ],
      "stateMutability": "view",
      "type": "function"
    },
    {
      "inputs": [
        {
          "internalType": "bytes32",
          "name": "",
          "type": "bytes32"
        }
      ],
      "name": "nonceLaunch",
      "outputs": [
        {
          "internalType": "uint32",
          "name": "",
          "type": "uint32"
        }
      ],
      "stateMutability": "view",
      "type": "function"
    },
    {
      "inputs": [],
      "name": "owner",
      "outputs": [
        {
          "internalType": "address",
          "name": "",
          "type": "address"
        }
      ],
      "stateMutability": "view",
      "type": "function"
    },
    {
      "inputs": [],
      "name": "paymentSystem",
      "outputs": [
        {
          "internalType": "contract IMessagePaymentSystem",
          "name": "",
          "type": "address"
        }
      ],
      "stateMutability": "view",
      "type": "function"
    },
    {
      "inputs": [],
      "name": "proxiableUUID",
      "outputs": [
        {
          "internalType": "bytes32",
          "name": "",
          "type": "bytes32"
        }
      ],
      "stateMutability": "view",
      "type": "function"
    },
    {
      "inputs": [],
      "name": "renounceOwnership",
      "outputs": [],
      "stateMutability": "nonpayable",
      "type": "function"
    },
    {
      "inputs": [
        {
          "internalType": "bytes",
          "name": "config",
          "type": "bytes"
        }
      ],
      "name": "setConfiguration",
      "outputs": [],
      "stateMutability": "view",
      "type": "function"
    },
    {
      "inputs": [
        {
          "internalType": "address",
          "name": "newOwner",
          "type": "address"
        }
      ],
      "name": "transferOwnership",
      "outputs": [],
      "stateMutability": "nonpayable",
      "type": "function"
    },
    {
      "inputs": [
        {
          "internalType": "address",
          "name": "newImplementation",
          "type": "address"
        },
        {
          "internalType": "bytes",
          "name": "data",
          "type": "bytes"
        }
      ],
      "name": "upgradeToAndCall",
      "outputs": [],
      "stateMutability": "payable",
      "type": "function"
    },
    {
      "stateMutability": "payable",
      "type": "receive"
    }
  ],
  "bytecode": "0x60a0604052306080523480156200001557600080fd5b506200002062000026565b620000da565b7ff0c57e16840df040f15088dc2f81fe391c3923bec73e23a9662efc9c229c6a00805468010000000000000000900460ff1615620000775760405163f92ee8a960e01b815260040160405180910390fd5b80546001600160401b0390811614620000d75780546001600160401b0319166001600160401b0390811782556040519081527fc7f505b2f371ae2175ee4913f4499e1f2633a7b5936321eed1cdaeb6115181d29060200160405180910390a15b50565b6080516138166200010460003960008181611c6a01528181611c930152611eb401526138166000f3fe6080604052600436106102535760003560e01c80637dd70a8611610138578063beb931e0116100b0578063de8aeda01161007f578063eb0e352611610064578063eb0e3526146107b0578063f2fde38b146107c3578063ff5e4feb146107e357600080fd5b8063de8aeda014610779578063ea77c16b1461079057600080fd5b8063beb931e0146106df578063c0c53b8b14610700578063c890429f14610720578063cde86f381461073357600080fd5b8063ad3cb1cc11610107578063b187bd26116100ec578063b187bd2614610648578063bb62860d14610676578063bb7dbe67146106bf57600080fd5b8063ad3cb1cc146105d5578063affed0e01461062b57600080fd5b80637dd70a861461052b5780638da5cb5b1461054b57806392b85cdf146105955780639de00494146105b557600080fd5b806354fb60b8116101cb5780635b6b431d1161019a5780636c86f4771161017f5780636c86f477146104e1578063715018a61461050157806378357e531461051657600080fd5b80635b6b431d146104a15780635ca6d9d8146104c157600080fd5b806354fb60b81461042657806357a1397b146104595780635ad3ad06146104795780635b05504b1461048e57600080fd5b8063354ae295116102225780633e141d74116102075780633e141d74146103b45780634f1ef286146103fc57806352d1902d1461041157600080fd5b8063354ae2951461035f5780633596f3d61461038757600080fd5b806302ce0a641461025f5780630ad7abc114610295578063113f182f146102c35780631ef35f0b1461030357600080fd5b3661025a57005b600080fd5b34801561026b57600080fd5b5061027f61027a366004612a0e565b610803565b60405161028c9190612a50565b60405180910390f35b3480156102a157600080fd5b506102b56102b0366004612aa9565b6108b7565b60405190815260200161028c565b3480156102cf57600080fd5b506102f36102de366004612b07565b60046020526000908152604090205460ff1681565b604051901515815260200161028c565b34801561030f57600080fd5b5060025461033a906601000000000000900473ffffffffffffffffffffffffffffffffffffffff1681565b60405173ffffffffffffffffffffffffffffffffffffffff909116815260200161028c565b34801561036b57600080fd5b50465b60405167ffffffffffffffff909116815260200161028c565b34801561039357600080fd5b5060035461033a9073ffffffffffffffffffffffffffffffffffffffff1681565b3480156103c057600080fd5b506103e76103cf366004612b22565b60016020526000908152604090205463ffffffff1681565b60405163ffffffff909116815260200161028c565b61040f61040a366004612b6a565b61094f565b005b34801561041d57600080fd5b506102b561096e565b34801561043257600080fd5b506103e7610441366004612b22565b60006020819052908152604090205463ffffffff1681565b34801561046557600080fd5b5061040f610474366004612b07565b61099d565b34801561048557600080fd5b5061036e60b481565b61040f61049c366004612aa9565b610ac5565b3480156104ad57600080fd5b5061040f6104bc366004612b22565b610d59565b3480156104cd57600080fd5b5061040f6104dc366004612c4a565b610e29565b3480156104ed57600080fd5b5061040f6104fc366004612ccc565b610ec7565b34801561050d57600080fd5b5061040f610fcd565b34801561052257600080fd5b5061033a610fe1565b34801561053757600080fd5b506103e7610546366004612cff565b611026565b34801561055757600080fd5b507f9016d09d72d40fdae2fd8ceac6b6234c7706214fd39c1cd1e609a0528c1993005473ffffffffffffffffffffffffffffffffffffffff1661033a565b3480156105a157600080fd5b506103e76105b0366004612cff565b61103b565b3480156105c157600080fd5b5061040f6105d0366004612d32565b611048565b3480156105e157600080fd5b5061061e6040518060400160405280600581526020017f352e302e3000000000000000000000000000000000000000000000000000000081525081565b60405161028c9190612dca565b34801561063757600080fd5b506002546103e79063ffffffff1681565b34801561065457600080fd5b50600254640100000000900460ff165b60405160ff909116815260200161028c565b34801561068257600080fd5b5061061e6040518060400160405280600681526020017f76312e302e30000000000000000000000000000000000000000000000000000081525081565b3480156106cb57600080fd5b5061040f6106da366004612ddd565b61113e565b3480156106eb57600080fd5b5060025465010000000000900460ff16610664565b34801561070c57600080fd5b5061040f61071b366004612e7b565b611357565b61040f61072e366004612aa9565b611684565b34801561073f57600080fd5b506102f361074e366004612b07565b73ffffffffffffffffffffffffffffffffffffffff1660009081526004602052604090205460ff1690565b34801561078557600080fd5b5061036e62278d0081565b34801561079c57600080fd5b506102b56107ab366004612aa9565b6117ea565b61040f6107be366004612ebe565b611841565b3480156107cf57600080fd5b5061040f6107de366004612b07565b611a50565b3480156107ef57600080fd5b5061040f6107fe366004612a0e565b611ab9565b606060008267ffffffffffffffff81111561082057610820612b3b565b604051908082528060200260200182016040528015610849578160200160208202803683370190505b50905060005b838110156108ad5761088385858381811061086c5761086c612f2d565b905060200281019061087e9190612f5c565b611af6565b82828151811061089557610895612f2d565b9115156020928302919091019091015260010161084f565b5090505b92915050565b6003546040517fced906b300000000000000000000000000000000000000000000000000000000815260009173ffffffffffffffffffffffffffffffffffffffff169063ced906b39061090e908590600401613047565b602060405180830381865afa15801561092b573d6000803e3d6000fd5b505050506040513d601f19601f820116820180604052508101906108b19190613170565b610957611c52565b61096082611d56565b61096a8282611d5e565b5050565b6000610978611e9c565b507f360894a13ba1a3210667c828492db98dca3e2076cc3735a920a3ca505d382bbc90565b6109a5610fe1565b73ffffffffffffffffffffffffffffffffffffffff163373ffffffffffffffffffffffffffffffffffffffff1614610a09576040517f4ca8886700000000000000000000000000000000000000000000000000000000815260040160405180910390fd5b73ffffffffffffffffffffffffffffffffffffffff8116610a56576040517fe6c4247b00000000000000000000000000000000000000000000000000000000815260040160405180910390fd5b600380547fffffffffffffffffffffffff00000000000000000000000000000000000000001673ffffffffffffffffffffffffffffffffffffffff83169081179091556040517fc42198387755d1905bd3c5b3ed34925a52f21b418fa2f083c6f95932bb7615df90600090a250565b610ad26020820182613189565b610ae26040830160208401613189565b610af7610af260808501856131a4565b611f0b565b610b00846117ea565b60028054640100000000900460ff1614610b46576040517f1aed3fed00000000000000000000000000000000000000000000000000000000815260040160405180910390fd5b610b50828261323b565b341015610b89576040517fbef7a4bc00000000000000000000000000000000000000000000000000000000815260040160405180910390fd5b610b938484611f4c565b610ba060e08601866131a4565b9050600003610bdb576040517f6eca2e4b00000000000000000000000000000000000000000000000000000000815260040160405180910390fd5b610be860e08601866131a4565b9050610bf760a08701876131a4565b905003610c5857610c0785612003565b604051610c14919061324e565b60405180910390207f30663dee845b90a60f8a6ab79591632a642c173ba91bf42f30d72e7894a851f386604051610c4b9190613403565b60405180910390a2610d52565b6001610c6760a08701876131a4565b9050118015610c845750610c7e60e08601866131a4565b90506001145b15610c9257610c078561201d565b610c9f60a08601866131a4565b90506001148015610cbe57506001610cba60e08701876131a4565b9050115b15610d0157610ccc85612030565b63ffffffff167fcff4da636d037fd25ec9d40ad04218727c418b275d36d85ebf57f2052962f99186604051610c4b9190613403565b610d0e60a08601866131a4565b9050600003610d2057610ccc8561207d565b6040517f6eca2e4b00000000000000000000000000000000000000000000000000000000815260040160405180910390fd5b5050505050565b6000610d63610fe1565b73ffffffffffffffffffffffffffffffffffffffff168260405160006040518083038185875af1925050503d8060008114610dba576040519150601f19603f3d011682016040523d82523d6000602084013e610dbf565b606091505b5050905080610dfa576040517fd477157400000000000000000000000000000000000000000000000000000000815260040160405180910390fd5b60405182907f7d8aac96811a5850be6542bb655a486c8a5e53ded4ede4a04a50542d5fbb834790600090a25050565b610e31610fe1565b73ffffffffffffffffffffffffffffffffffffffff163373ffffffffffffffffffffffffffffffffffffffff1614610e95576040517f4ca8886700000000000000000000000000000000000000000000000000000000815260040160405180910390fd5b6040517fff94113200000000000000000000000000000000000000000000000000000000815260040160405180910390fd5b610ecf610fe1565b73ffffffffffffffffffffffffffffffffffffffff163373ffffffffffffffffffffffffffffffffffffffff1614610f33576040517f4ca8886700000000000000000000000000000000000000000000000000000000815260040160405180910390fd5b8015610f6d57600280547fffffffffffffffffffffffffffffffffffffffffffffffffffffff00ffffffff16640100000000179055610f9d565b600280547fffffffffffffffffffffffffffffffffffffffffffffffffffffff00ffffffff166402000000001790555b604051811515907fe1b0651480ab1796bad61735eb927e1f76e963b70868c9848f4ef24c2a36586290600090a250565b610fd5612099565b610fdf6000612127565b565b60006110217f9016d09d72d40fdae2fd8ceac6b6234c7706214fd39c1cd1e609a0528c1993005473ffffffffffffffffffffffffffffffffffffffff1690565b905090565b6000611034600184846121bd565b9392505050565b60006110348184846121bd565b611050610fe1565b73ffffffffffffffffffffffffffffffffffffffff163373ffffffffffffffffffffffffffffffffffffffff16146110b4576040517f4ca8886700000000000000000000000000000000000000000000000000000000815260040160405180910390fd5b73ffffffffffffffffffffffffffffffffffffffff821660008181526004602090815260409182902080547fffffffffffffffffffffffffffffffffffffffffffffffffffffffffffffff001685151590811790915591519182527f8338f01d8cd6c8e1a0d79c0a27a46c8206945b5bdc431c90be0c09a60c26d863910160405180910390a25050565b60028054640100000000900460ff1614611184576040517f1aed3fed00000000000000000000000000000000000000000000000000000000815260040160405180910390fd5b60025460ff65010000000000909104166001146111cd576040517feb91229600000000000000000000000000000000000000000000000000000000815260040160405180910390fd5b600280547fffffffffffffffffffffffffffffffffffffffffffffffffffff00ffffffffff1665020000000000179055336000908152600460205260409020548490849060ff1661124a576040517f4ca8886700000000000000000000000000000000000000000000000000000000815260040160405180910390fd5b428267ffffffffffffffff16118061126b5750428167ffffffffffffffff16105b156112a2576040517f71dcf04900000000000000000000000000000000000000000000000000000000815260040160405180910390fd5b60005b8381101561131f578484828181106112bf576112bf612f2d565b905060600201604001357ffde9feca32d13cf616acebebf1cf35ceaa9da86954422c0126b25b731f3974e58686848181106112fc576112fc612f2d565b90506060020160405161130f9190613552565b60405180910390a26001016112a5565b5050600280547fffffffffffffffffffffffffffffffffffffffffffffffffffff00ffffffffff166501000000000017905550610d52565b7ff0c57e16840df040f15088dc2f81fe391c3923bec73e23a9662efc9c229c6a00805468010000000000000000810460ff16159067ffffffffffffffff166000811580156113a25750825b905060008267ffffffffffffffff1660011480156113bf5750303b155b90506114006040518060400160405280601081526020017f696e697469616c53657475703a202573000000000000000000000000000000008152508361223c565b61143f6040518060400160405280601081526020017f636f6e737472756374696f6e3a202573000000000000000000000000000000008152508261223c565b8115801561144b575080155b15611482576040517ff92ee8a900000000000000000000000000000000000000000000000000000000815260040160405180910390fd5b84547fffffffffffffffffffffffffffffffffffffffffffffffff000000000000000016600117855583156114e35784547fffffffffffffffffffffffffffffffffffffffffffffff00ffffffffffffffff16680100000000000000001785555b6114ec866122cd565b6114f46122de565b73ffffffffffffffffffffffffffffffffffffffff808916600090815260046020526040902080547fffffffffffffffffffffffffffffffffffffffffffffffffffffffffffffff0016600117905560028054650102000000007fffffffffffffffffffffffffffffffffffffffffffffffffffff0000ffffffff90911617905587166115ad576040517fe6c4247b00000000000000000000000000000000000000000000000000000000815260040160405180910390fd5b600380547fffffffffffffffffffffffff00000000000000000000000000000000000000001673ffffffffffffffffffffffffffffffffffffffff89169081179091556040517fc42198387755d1905bd3c5b3ed34925a52f21b418fa2f083c6f95932bb7615df90600090a2831561167a5784547fffffffffffffffffffffffffffffffffffffffffffffff00ffffffffffffffff168555604051600181527fc7f505b2f371ae2175ee4913f4499e1f2633a7b5936321eed1cdaeb6115181d29060200160405180910390a15b5050505050505050565b6116916020820182613189565b6116a16040830160208401613189565b82608001356116af846108b7565b60028054640100000000900460ff16146116f5576040517f1aed3fed00000000000000000000000000000000000000000000000000000000815260040160405180910390fd5b6116ff828261323b565b341015611738576040517fbef7a4bc00000000000000000000000000000000000000000000000000000000815260040160405180910390fd5b6117428484611f4c565b6002805463ffffffff16906000611758836135a2565b91906101000a81548163ffffffff021916908363ffffffff160217905550506117a68560a001602081019061178d9190613189565b61179d6080880160608901612b07565b600091906122e6565b63ffffffff167f52b7e0fedd73670798c718622a4af6054002609507aadc127e8a4c4e28164f2c866040516117db9190613047565b60405180910390a25050505050565b6003546040517f63c60fb500000000000000000000000000000000000000000000000000000000815260009173ffffffffffffffffffffffffffffffffffffffff16906363c60fb59061090e908590600401613403565b60028054640100000000900460ff1614611887576040517f1aed3fed00000000000000000000000000000000000000000000000000000000815260040160405180910390fd5b60025460ff65010000000000909104166001146118d0576040517feb91229600000000000000000000000000000000000000000000000000000000815260040160405180910390fd5b600280547fffffffffffffffffffffffffffffffffffffffffffffffffffff00ffffffffff1665020000000000179055336000908152600460205260409020548490849060ff1661194d576040517f4ca8886700000000000000000000000000000000000000000000000000000000815260040160405180910390fd5b428267ffffffffffffffff16118061196e5750428167ffffffffffffffff16105b156119a5576040517f71dcf04900000000000000000000000000000000000000000000000000000000815260040160405180910390fd5b60005b8381101561131f576119c585858381811061086c5761086c612f2d565b508484828181106119d8576119d8612f2d565b90506020028101906119ea9190612f5c565b608001357fa54f85499e6ee944107a52732e75e682f2f7785c2e67a0e1203f62202ff67291868684818110611a2157611a21612f2d565b9050602002810190611a339190612f5c565b604051611a4091906135c5565b60405180910390a26001016119a8565b611a58612099565b73ffffffffffffffffffffffffffffffffffffffff8116611aad576040517f1e4fbdf7000000000000000000000000000000000000000000000000000000008152600060048201526024015b60405180910390fd5b611ab681612127565b50565b611ac38282610803565b6040517fedbfa46a000000000000000000000000000000000000000000000000000000008152600401611aa49190612a50565b600080611b0e611b0960a085018561365e565b612377565b90507ffe000000000000000000000000000000000000000000000000000000000000007fff00000000000000000000000000000000000000000000000000000000000000821601611bba57611b756060840135611b6e60a086018661365e565b9091612398565b50915081611bb5576040517f1f5328cc00000000000000000000000000000000000000000000000000000000815260808401356004820152602401611aa4565b611c4c565b6002546040517fa4afde4f000000000000000000000000000000000000000000000000000000008152660100000000000090910473ffffffffffffffffffffffffffffffffffffffff169063a4afde4f90611c199086906004016135c5565b600060405180830381600087803b158015611c3357600080fd5b505af1158015611c47573d6000803e3d6000fd5b505050505b50919050565b3073ffffffffffffffffffffffffffffffffffffffff7f0000000000000000000000000000000000000000000000000000000000000000161480611d1f57507f000000000000000000000000000000000000000000000000000000000000000073ffffffffffffffffffffffffffffffffffffffff16611d067f360894a13ba1a3210667c828492db98dca3e2076cc3735a920a3ca505d382bbc5473ffffffffffffffffffffffffffffffffffffffff1690565b73ffffffffffffffffffffffffffffffffffffffff1614155b15610fdf576040517fe07c8dba00000000000000000000000000000000000000000000000000000000815260040160405180910390fd5b611ab6612099565b8173ffffffffffffffffffffffffffffffffffffffff166352d1902d6040518163ffffffff1660e01b8152600401602060405180830381865afa925050508015611de3575060408051601f3d9081017fffffffffffffffffffffffffffffffffffffffffffffffffffffffffffffffe0168201909252611de091810190613170565b60015b611e31576040517f4c9c8ce300000000000000000000000000000000000000000000000000000000815273ffffffffffffffffffffffffffffffffffffffff83166004820152602401611aa4565b7f360894a13ba1a3210667c828492db98dca3e2076cc3735a920a3ca505d382bbc8114611e8d576040517faa1d49a400000000000000000000000000000000000000000000000000000000815260048101829052602401611aa4565b611e9783836123ea565b505050565b3073ffffffffffffffffffffffffffffffffffffffff7f00000000000000000000000000000000000000000000000000000000000000001614610fdf576040517fe07c8dba00000000000000000000000000000000000000000000000000000000815260040160405180910390fd5b6000805b82811015611f4557838382818110611f2957611f29612f2d565b9050602002013582611f3b919061323b565b9150600101611f0f565b5092915050565b60008267ffffffffffffffff16118015611f70575060008167ffffffffffffffff16115b8015611fcc5750611f8260b44261323b565b8267ffffffffffffffff161080611fae5750611fa162278d004261323b565b8167ffffffffffffffff16115b80611fcc57508167ffffffffffffffff168167ffffffffffffffff16105b1561096a576040517f7c40a65700000000000000000000000000000000000000000000000000000000815260040160405180910390fd5b60606108b18261201660e08201826131a4565b905061244d565b60606108b18261201660a08201826131a4565b60006108b18261204360a08201826131a4565b600081811061205457612054612f2d565b90506020020160208101906120699190613189565b61207660e08601866131a4565b9050612505565b60006108b18267ffffffffffffffff61207660e08301836131a4565b336120d87f9016d09d72d40fdae2fd8ceac6b6234c7706214fd39c1cd1e609a0528c1993005473ffffffffffffffffffffffffffffffffffffffff1690565b73ffffffffffffffffffffffffffffffffffffffff1614610fdf576040517f118cdaa7000000000000000000000000000000000000000000000000000000008152336004820152602401611aa4565b7f9016d09d72d40fdae2fd8ceac6b6234c7706214fd39c1cd1e609a0528c19930080547fffffffffffffffffffffffff0000000000000000000000000000000000000000811673ffffffffffffffffffffffffffffffffffffffff848116918217845560405192169182907f8be0079c531659141344cd1fd0a4f28419497f9722a3daafe3b4186f6b6457e090600090a3505050565b600083600061221d858560405160200161220392919067ffffffffffffffff92909216825273ffffffffffffffffffffffffffffffffffffffff16602082015260400190565b604051602081830303815290604052805160209091012090565b815260208101919091526040016000205463ffffffff16949350505050565b61096a82826040516024016122529291906136c3565b604080517fffffffffffffffffffffffffffffffffffffffffffffffffffffffffffffffe08184030181529190526020810180517bffffffffffffffffffffffffffffffffffffffffffffffffffffffff167fc3b5563500000000000000000000000000000000000000000000000000000000179052612525565b6122d561252e565b611ab681612595565b610fdf61252e565b600083600061232c858560405160200161220392919067ffffffffffffffff92909216825273ffffffffffffffffffffffffffffffffffffffff16602082015260400190565b815260208101919091526040016000908120805463ffffffff1691612350836135a2565b91906101000a81548163ffffffff021916908363ffffffff16021790555090509392505050565b60008061238760018285876136e7565b61239091613711565b949350505050565b6000606060008060006123ab888861259d565b91945062ffffff16925090506123db73ffffffffffffffffffffffffffffffffffffffff84168388602085612625565b90999098509650505050505050565b6123f3826126b0565b60405173ffffffffffffffffffffffffffffffffffffffff8316907fbc7cd75a20ee27fd9adebab32041f755214dbc6bffa90cc0225b39da2e5c2d3b90600090a280511561244557611e97828261277f565b61096a612802565b606060008267ffffffffffffffff81111561246a5761246a612b3b565b604051908082528060200260200182016040528015612493578160200160208202803683370190505b50905060005b838110156108ad576124d66124b160a08701876131a4565b838181106124c1576124c1612f2d565b905060200201602081019061178d9190613189565b8282815181106124e8576124e8612f2d565b63ffffffff90921660209283029190910190910152600101612499565b60006123908361251b6080870160608801612b07565b600091908561283a565b611ab6816128d0565b7ff0c57e16840df040f15088dc2f81fe391c3923bec73e23a9662efc9c229c6a005468010000000000000000900460ff16610fdf576040517fd7e6bcf800000000000000000000000000000000000000000000000000000000815260040160405180910390fd5b611a5861252e565b60008060606125b06021600186886136e7565b6125b991613759565b92506125c96024602186886136e7565b6125d291613795565b60e81c91506125e484602481886136e7565b8080601f0160208091040260200160405190810160405280939291908181526020018383808284376000920191909152509598949750919550929350505050565b6000606060008060008661ffff1667ffffffffffffffff81111561264b5761264b612b3b565b6040519080825280601f01601f191660200182016040528015612675576020820181803683370190505b5090506000808751602089018b8e8ef191503d925086831115612696578692505b828152826000602083013e90999098509650505050505050565b8073ffffffffffffffffffffffffffffffffffffffff163b600003612719576040517f4c9c8ce300000000000000000000000000000000000000000000000000000000815273ffffffffffffffffffffffffffffffffffffffff82166004820152602401611aa4565b7f360894a13ba1a3210667c828492db98dca3e2076cc3735a920a3ca505d382bbc80547fffffffffffffffffffffffff00000000000000000000000000000000000000001673ffffffffffffffffffffffffffffffffffffffff92909216919091179055565b60606000808473ffffffffffffffffffffffffffffffffffffffff16846040516127a991906137da565b600060405180830381855af49150503d80600081146127e4576040519150601f19603f3d011682016040523d82523d6000602084013e6127e9565b606091505b50915091506127f98583836128f1565b95945050505050565b3415610fdf576040517fb398979f00000000000000000000000000000000000000000000000000000000815260040160405180910390fd5b600081856000612881878760405160200161220392919067ffffffffffffffff92909216825273ffffffffffffffffffffffffffffffffffffffff16602082015260400190565b81526020810191909152604001600090812080549091906128a990849063ffffffff166137ec565b92506101000a81548163ffffffff021916908363ffffffff16021790559050949350505050565b60006a636f6e736f6c652e6c6f679050600080835160208501845afa505050565b6060826129065761290182612980565b611034565b815115801561292a575073ffffffffffffffffffffffffffffffffffffffff84163b155b15612979576040517f9996b31500000000000000000000000000000000000000000000000000000000815273ffffffffffffffffffffffffffffffffffffffff85166004820152602401611aa4565b5080611034565b8051156129905780518082602001fd5b6040517f1425ea4200000000000000000000000000000000000000000000000000000000815260040160405180910390fd5b60008083601f8401126129d457600080fd5b50813567ffffffffffffffff8111156129ec57600080fd5b6020830191508360208260051b8501011115612a0757600080fd5b9250929050565b60008060208385031215612a2157600080fd5b823567ffffffffffffffff811115612a3857600080fd5b612a44858286016129c2565b90969095509350505050565b6020808252825182820181905260009190848201906040850190845b81811015612a8a578351151583529284019291840191600101612a6c565b50909695505050505050565b60006101008284031215611c4c57600080fd5b600060208284031215612abb57600080fd5b813567ffffffffffffffff811115612ad257600080fd5b61239084828501612a96565b803573ffffffffffffffffffffffffffffffffffffffff81168114612b0257600080fd5b919050565b600060208284031215612b1957600080fd5b61103482612ade565b600060208284031215612b3457600080fd5b5035919050565b7f4e487b7100000000000000000000000000000000000000000000000000000000600052604160045260246000fd5b60008060408385031215612b7d57600080fd5b612b8683612ade565b9150602083013567ffffffffffffffff80821115612ba357600080fd5b818501915085601f830112612bb757600080fd5b813581811115612bc957612bc9612b3b565b604051601f82017fffffffffffffffffffffffffffffffffffffffffffffffffffffffffffffffe0908116603f01168101908382118183101715612c0f57612c0f612b3b565b81604052828152886020848701011115612c2857600080fd5b8260208601602083013760006020848301015280955050505050509250929050565b60008060208385031215612c5d57600080fd5b823567ffffffffffffffff80821115612c7557600080fd5b818501915085601f830112612c8957600080fd5b813581811115612c9857600080fd5b866020828501011115612caa57600080fd5b60209290920196919550909350505050565b80358015158114612b0257600080fd5b600060208284031215612cde57600080fd5b61103482612cbc565b803567ffffffffffffffff81168114612b0257600080fd5b60008060408385031215612d1257600080fd5b612d1b83612ce7565b9150612d2960208401612ade565b90509250929050565b60008060408385031215612d4557600080fd5b612d4e83612ade565b9150612d2960208401612cbc565b60005b83811015612d77578181015183820152602001612d5f565b50506000910152565b60008151808452612d98816020860160208601612d5c565b601f017fffffffffffffffffffffffffffffffffffffffffffffffffffffffffffffffe0169290920160200192915050565b6020815260006110346020830184612d80565b600080600080600060808688031215612df557600080fd5b85359450612e0560208701612ce7565b9350612e1360408701612ce7565b9250606086013567ffffffffffffffff80821115612e3057600080fd5b818801915088601f830112612e4457600080fd5b813581811115612e5357600080fd5b896020606083028501011115612e6857600080fd5b9699959850939650602001949392505050565b600080600060608486031215612e9057600080fd5b612e9984612ade565b9250612ea760208501612ade565b9150612eb560408501612ade565b90509250925092565b600080600080600060808688031215612ed657600080fd5b85359450612ee660208701612ce7565b9350612ef460408701612ce7565b9250606086013567ffffffffffffffff811115612f1057600080fd5b612f1c888289016129c2565b969995985093965092949392505050565b7f4e487b7100000000000000000000000000000000000000000000000000000000600052603260045260246000fd5b600082357fffffffffffffffffffffffffffffffffffffffffffffffffffffffffffffff41833603018112612f9057600080fd5b9190910192915050565b60008083357fffffffffffffffffffffffffffffffffffffffffffffffffffffffffffffffe1843603018112612fcf57600080fd5b830160208101925035905067ffffffffffffffff811115612fef57600080fd5b803603821315612a0757600080fd5b8183528181602085013750600060208284010152600060207fffffffffffffffffffffffffffffffffffffffffffffffffffffffffffffffe0601f840116840101905092915050565b6020815267ffffffffffffffff61305d83612ce7565b166020820152600061307160208401612ce7565b67ffffffffffffffff811660408401525061308e60408401612ade565b73ffffffffffffffffffffffffffffffffffffffff81166060840152506130b760608401612ade565b73ffffffffffffffffffffffffffffffffffffffff8116608084015250608083013560a08301526130ea60a08401612ce7565b67ffffffffffffffff811660c08401525061310860c0840184612f9a565b6101008060e086015261312061012086018385612ffe565b925061312f60e0870187612f9a565b92507fffffffffffffffffffffffffffffffffffffffffffffffffffffffffffffffe08685030182870152613165848483612ffe565b979650505050505050565b60006020828403121561318257600080fd5b5051919050565b60006020828403121561319b57600080fd5b61103482612ce7565b60008083357fffffffffffffffffffffffffffffffffffffffffffffffffffffffffffffffe18436030181126131d957600080fd5b83018035915067ffffffffffffffff8211156131f457600080fd5b6020019150600581901b3603821315612a0757600080fd5b7f4e487b7100000000000000000000000000000000000000000000000000000000600052601160045260246000fd5b808201808211156108b1576108b161320c565b815160009082906020808601845b8381101561327e57815163ffffffff168552938201939082019060010161325c565b50929695505050505050565b60008083357fffffffffffffffffffffffffffffffffffffffffffffffffffffffffffffffe18436030181126132bf57600080fd5b830160208101925035905067ffffffffffffffff8111156132df57600080fd5b8060051b3603821315612a0757600080fd5b81835260007f07ffffffffffffffffffffffffffffffffffffffffffffffffffffffffffffff83111561332357600080fd5b8260051b80836020870137939093016020019392505050565b8183526000602080850194508260005b858110156133795767ffffffffffffffff61336683612ce7565b168752958201959082019060010161334c565b509495945050505050565b6000838385526020808601955060208560051b8301018460005b878110156133f6577fffffffffffffffffffffffffffffffffffffffffffffffffffffffffffffffe08584030189526133d78288612f9a565b6133e2858284612ffe565b9a86019a945050509083019060010161339e565b5090979650505050505050565b602081526134256020820161341784612ce7565b67ffffffffffffffff169052565b600061343360208401612ce7565b67ffffffffffffffff811660408401525061345060408401612ade565b73ffffffffffffffffffffffffffffffffffffffff811660608401525061347960608401612ade565b73ffffffffffffffffffffffffffffffffffffffff81166080840152506134a3608084018461328a565b6101008060a08601526134bb610120860183856132f1565b92506134ca60a087018761328a565b92507fffffffffffffffffffffffffffffffffffffffffffffffffffffffffffffffe0808786030160c088015261350285858461333c565b945061351160c089018961328a565b94509150808786030160e088015261352a858584613384565b945061353960e089018961328a565b9450915080878603018388015250613165848483613384565b6060810167ffffffffffffffff61356884612ce7565b16825273ffffffffffffffffffffffffffffffffffffffff61358c60208501612ade565b1660208301526040830135604083015292915050565b600063ffffffff8083168181036135bb576135bb61320c565b6001019392505050565b6020815267ffffffffffffffff6135db83612ce7565b1660208201526000602083013562ffffff81168082146135fa57600080fd5b806040850152505073ffffffffffffffffffffffffffffffffffffffff61362360408501612ade565b16606083015260608301356080830152608083013560a083015261364a60a0840184612f9a565b60c0808501526127f960e085018284612ffe565b60008083357fffffffffffffffffffffffffffffffffffffffffffffffffffffffffffffffe184360301811261369357600080fd5b83018035915067ffffffffffffffff8211156136ae57600080fd5b602001915036819003821315612a0757600080fd5b6040815260006136d66040830185612d80565b905082151560208301529392505050565b600080858511156136f757600080fd5b8386111561370457600080fd5b5050820193919092039150565b7fff0000000000000000000000000000000000000000000000000000000000000081358181169160018510156137515780818660010360031b1b83161692505b505092915050565b803560208310156108b1577fffffffffffffffffffffffffffffffffffffffffffffffffffffffffffffffff602084900360031b1b1692915050565b7fffffff0000000000000000000000000000000000000000000000000000000000813581811691600385101561375157600394850390941b84901b1690921692915050565b60008251612f90818460208701612d5c565b63ffffffff818116838216019080821115611f4557611f4561320c56fea164736f6c6343000817000a",
  "linkReferences": {},
  "deployedLinkReferences": {}
}