{
  "_format": "hh-sol-artifact-1",
  "contractName": "MessageSpaceStationUg",
  "sourceName": "contracts/MessageSpaceStation.ugradable.sol",
  "abi": [
    {
      "inputs": [],
      "stateMutability": "nonpayable",
      "type": "constructor"
    },
    {
      "inputs": [],
      "name": "AccessDenied",
      "type": "error"
    },
    {
      "inputs": [
        {
          "internalType": "address",
          "name": "target",
          "type": "address"
        }
      ],
      "name": "AddressEmptyCode",
      "type": "error"
    },
    {
      "inputs": [],
      "name": "ArrivalTimeNotMakeSense",
      "type": "error"
    },
    {
      "inputs": [
        {
          "internalType": "address",
          "name": "implementation",
          "type": "address"
        }
      ],
      "name": "ERC1967InvalidImplementation",
      "type": "error"
    },
    {
      "inputs": [],
      "name": "ERC1967NonPayable",
      "type": "error"
    },
    {
      "inputs": [
        {
          "internalType": "bytes32",
          "name": "messageId",
          "type": "bytes32"
        }
      ],
      "name": "ExcuteError",
      "type": "error"
    },
    {
      "inputs": [],
      "name": "FailedInnerCall",
      "type": "error"
    },
    {
      "inputs": [],
      "name": "InvalidAddress",
      "type": "error"
    },
    {
      "inputs": [],
      "name": "InvalidInitialization",
      "type": "error"
    },
    {
      "inputs": [],
      "name": "InvalidMessage",
      "type": "error"
    },
    {
      "inputs": [],
      "name": "LandingPadOccupied",
      "type": "error"
    },
    {
      "inputs": [],
      "name": "NotImplement",
      "type": "error"
    },
    {
      "inputs": [],
      "name": "NotInitializing",
      "type": "error"
    },
    {
      "inputs": [
        {
          "internalType": "address",
          "name": "owner",
          "type": "address"
        }
      ],
      "name": "OwnableInvalidOwner",
      "type": "error"
    },
    {
      "inputs": [
        {
          "internalType": "address",
          "name": "account",
          "type": "address"
        }
      ],
      "name": "OwnableUnauthorizedAccount",
      "type": "error"
    },
    {
      "inputs": [
        {
          "internalType": "bool[]",
          "name": "results",
          "type": "bool[]"
        }
      ],
      "name": "SimulateResult",
      "type": "error"
    },
    {
      "inputs": [],
      "name": "StationPaused",
      "type": "error"
    },
    {
      "inputs": [],
      "name": "TimeNotReached",
      "type": "error"
    },
    {
      "inputs": [],
      "name": "UUPSUnauthorizedCallContext",
      "type": "error"
    },
    {
      "inputs": [
        {
          "internalType": "bytes32",
          "name": "slot",
          "type": "bytes32"
        }
      ],
      "name": "UUPSUnsupportedProxiableUUID",
      "type": "error"
    },
    {
      "inputs": [],
      "name": "ValueNotMatched",
      "type": "error"
    },
    {
      "inputs": [],
      "name": "WithdrawError",
      "type": "error"
    },
    {
      "anonymous": false,
      "inputs": [
        {
          "indexed": true,
          "internalType": "bool",
          "name": "isPause",
          "type": "bool"
        }
      ],
      "name": "EngineStatusRefreshing",
      "type": "event"
    },
    {
      "anonymous": false,
      "inputs": [
        {
          "indexed": false,
          "internalType": "uint64",
          "name": "version",
          "type": "uint64"
        }
      ],
      "name": "Initialized",
      "type": "event"
    },
    {
      "anonymous": false,
      "inputs": [
        {
          "indexed": true,
          "internalType": "address",
          "name": "previousOwner",
          "type": "address"
        },
        {
          "indexed": true,
          "internalType": "address",
          "name": "newOwner",
          "type": "address"
        }
      ],
      "name": "OwnershipTransferred",
      "type": "event"
    },
    {
      "anonymous": false,
      "inputs": [
        {
          "indexed": true,
          "internalType": "address",
          "name": "paymentSystemAddress",
          "type": "address"
        }
      ],
      "name": "PaymentSystemChanging",
      "type": "event"
    },
    {
      "anonymous": false,
      "inputs": [
        {
          "indexed": true,
          "internalType": "address",
          "name": "sequencerAddress",
          "type": "address"
        },
        {
          "indexed": false,
          "internalType": "bool",
          "name": "state",
          "type": "bool"
        }
      ],
      "name": "SequencerStatusChanging",
      "type": "event"
    },
    {
      "anonymous": false,
      "inputs": [
        {
          "indexed": true,
          "internalType": "bytes32",
          "name": "messageId",
          "type": "bytes32"
        },
        {
          "components": [
            {
              "internalType": "uint16",
              "name": "srcChainld",
              "type": "uint16"
            },
            {
              "internalType": "address",
              "name": "sender",
              "type": "address"
            },
            {
              "internalType": "bytes32",
              "name": "messgeId",
              "type": "bytes32"
            }
          ],
          "indexed": false,
          "internalType": "struct IMessageStruct.PostingLanding",
          "name": "params",
          "type": "tuple"
        }
      ],
      "name": "SuccessfulBatchLanding",
      "type": "event"
    },
    {
      "anonymous": false,
      "inputs": [
        {
          "indexed": true,
          "internalType": "bytes32",
          "name": "messageId",
          "type": "bytes32"
        },
        {
          "components": [
            {
              "internalType": "uint16",
              "name": "srcChainld",
              "type": "uint16"
            },
            {
              "internalType": "uint24",
              "name": "nonceLandingCurrent",
              "type": "uint24"
            },
            {
              "internalType": "address",
              "name": "sender",
              "type": "address"
            },
            {
              "internalType": "uint256",
              "name": "value",
              "type": "uint256"
            },
            {
              "internalType": "bytes32",
              "name": "messgeId",
              "type": "bytes32"
            },
            {
              "internalType": "bytes",
              "name": "message",
              "type": "bytes"
            }
          ],
          "indexed": false,
          "internalType": "struct IMessageStruct.InteractionLanding",
          "name": "params",
          "type": "tuple"
        }
      ],
      "name": "SuccessfulLanding",
      "type": "event"
    },
    {
      "anonymous": false,
      "inputs": [
        {
          "indexed": true,
          "internalType": "uint64",
          "name": "nonce",
          "type": "uint64"
        },
        {
          "components": [
            {
              "internalType": "uint64",
              "name": "earlistArrivalTimestamp",
              "type": "uint64"
            },
            {
              "internalType": "uint64",
              "name": "latestArrivalTimestamp",
              "type": "uint64"
            },
            {
              "internalType": "address",
              "name": "relayer",
              "type": "address"
            },
            {
              "internalType": "address",
              "name": "sender",
              "type": "address"
            },
            {
              "internalType": "uint256",
              "name": "value",
              "type": "uint256"
            },
            {
              "internalType": "uint16",
              "name": "destChainld",
              "type": "uint16"
            },
            {
              "internalType": "bytes",
              "name": "aditionParams",
              "type": "bytes"
            },
            {
              "internalType": "bytes",
              "name": "message",
              "type": "bytes"
            }
          ],
          "indexed": false,
          "internalType": "struct IMessageStruct.launchSingleMsgParams",
          "name": "params",
          "type": "tuple"
        }
      ],
      "name": "SuccessfulLaunchMessage",
      "type": "event"
    },
    {
      "anonymous": false,
      "inputs": [
        {
          "indexed": true,
          "internalType": "uint24[]",
          "name": "nonce",
          "type": "uint24[]"
        },
        {
          "components": [
            {
              "internalType": "uint64",
              "name": "earlistArrivalTimestamp",
              "type": "uint64"
            },
            {
              "internalType": "uint64",
              "name": "latestArrivalTimestamp",
              "type": "uint64"
            },
            {
              "internalType": "address",
              "name": "relayer",
              "type": "address"
            },
            {
              "internalType": "address",
              "name": "sender",
              "type": "address"
            },
            {
              "internalType": "uint256[]",
              "name": "value",
              "type": "uint256[]"
            },
            {
              "internalType": "uint16[]",
              "name": "destChainld",
              "type": "uint16[]"
            },
            {
              "internalType": "bytes[]",
              "name": "aditionParams",
              "type": "bytes[]"
            },
            {
              "internalType": "bytes[]",
              "name": "message",
              "type": "bytes[]"
            }
          ],
          "indexed": false,
          "internalType": "struct IMessageStruct.launchMultiMsgParams",
          "name": "params",
          "type": "tuple"
        }
      ],
      "name": "SuccessfulLaunchMessages",
      "type": "event"
    },
    {
      "anonymous": false,
      "inputs": [
        {
          "indexed": true,
          "internalType": "uint24",
          "name": "nonce",
          "type": "uint24"
        },
        {
          "components": [
            {
              "internalType": "uint64",
              "name": "earlistArrivalTimestamp",
              "type": "uint64"
            },
            {
              "internalType": "uint64",
              "name": "latestArrivalTimestamp",
              "type": "uint64"
            },
            {
              "internalType": "address",
              "name": "relayer",
              "type": "address"
            },
            {
              "internalType": "address",
              "name": "sender",
              "type": "address"
            },
            {
              "internalType": "uint256[]",
              "name": "value",
              "type": "uint256[]"
            },
            {
              "internalType": "uint16[]",
              "name": "destChainld",
              "type": "uint16[]"
            },
            {
              "internalType": "bytes[]",
              "name": "aditionParams",
              "type": "bytes[]"
            },
            {
              "internalType": "bytes[]",
              "name": "message",
              "type": "bytes[]"
            }
          ],
          "indexed": false,
          "internalType": "struct IMessageStruct.launchMultiMsgParams",
          "name": "params",
          "type": "tuple"
        }
      ],
      "name": "SuccessfulLaunchMessages2",
      "type": "event"
    },
    {
      "anonymous": false,
      "inputs": [
        {
          "indexed": true,
          "internalType": "address",
          "name": "implementation",
          "type": "address"
        }
      ],
      "name": "Upgraded",
      "type": "event"
    },
    {
      "anonymous": false,
      "inputs": [
        {
          "indexed": true,
          "internalType": "uint256",
          "name": "amount",
          "type": "uint256"
        }
      ],
      "name": "WithdrawRequest",
      "type": "event"
    },
    {
      "inputs": [],
      "name": "ChainId",
      "outputs": [
        {
          "internalType": "uint16",
          "name": "",
          "type": "uint16"
        }
      ],
      "stateMutability": "pure",
      "type": "function"
    },
    {
      "inputs": [
        {
          "internalType": "address",
          "name": "trustedRelayerAddr",
          "type": "address"
        },
        {
          "internalType": "bool",
          "name": "state",
          "type": "bool"
        }
      ],
      "name": "ConfigTrustedRelayer",
      "outputs": [],
      "stateMutability": "nonpayable",
      "type": "function"
    },
    {
      "inputs": [
        {
          "components": [
            {
              "internalType": "uint16",
              "name": "srcChainld",
              "type": "uint16"
            },
            {
              "internalType": "uint24",
              "name": "nonceLandingCurrent",
              "type": "uint24"
            },
            {
              "internalType": "address",
              "name": "sender",
              "type": "address"
            },
            {
              "internalType": "uint256",
              "name": "value",
              "type": "uint256"
            },
            {
              "internalType": "bytes32",
              "name": "messgeId",
              "type": "bytes32"
            },
            {
              "internalType": "bytes",
              "name": "message",
              "type": "bytes"
            }
          ],
          "internalType": "struct IMessageStruct.InteractionLanding[]",
          "name": "params",
          "type": "tuple[]"
        }
      ],
      "name": "EstimateExcuteGas",
      "outputs": [
        {
          "internalType": "bool[]",
          "name": "",
          "type": "bool[]"
        }
      ],
      "stateMutability": "nonpayable",
      "type": "function"
    },
    {
      "inputs": [
        {
          "components": [
            {
              "internalType": "uint64",
              "name": "earlistArrivalTimestamp",
              "type": "uint64"
            },
            {
              "internalType": "uint64",
              "name": "latestArrivalTimestamp",
              "type": "uint64"
            },
            {
              "internalType": "address",
              "name": "relayer",
              "type": "address"
            },
            {
              "internalType": "address",
              "name": "sender",
              "type": "address"
            },
            {
              "internalType": "uint256",
              "name": "value",
              "type": "uint256"
            },
            {
              "internalType": "uint16",
              "name": "destChainld",
              "type": "uint16"
            },
            {
              "internalType": "bytes",
              "name": "aditionParams",
              "type": "bytes"
            },
            {
              "internalType": "bytes",
              "name": "message",
              "type": "bytes"
            }
          ],
          "internalType": "struct IMessageStruct.launchSingleMsgParams",
          "name": "params",
          "type": "tuple"
        }
      ],
      "name": "EstimateFee",
      "outputs": [
        {
          "internalType": "uint256",
          "name": "",
          "type": "uint256"
        }
      ],
      "stateMutability": "view",
      "type": "function"
    },
    {
      "inputs": [
        {
          "components": [
            {
              "internalType": "uint64",
              "name": "earlistArrivalTimestamp",
              "type": "uint64"
            },
            {
              "internalType": "uint64",
              "name": "latestArrivalTimestamp",
              "type": "uint64"
            },
            {
              "internalType": "address",
              "name": "relayer",
              "type": "address"
            },
            {
              "internalType": "address",
              "name": "sender",
              "type": "address"
            },
            {
              "internalType": "uint256[]",
              "name": "value",
              "type": "uint256[]"
            },
            {
              "internalType": "uint16[]",
              "name": "destChainld",
              "type": "uint16[]"
            },
            {
              "internalType": "bytes[]",
              "name": "aditionParams",
              "type": "bytes[]"
            },
            {
              "internalType": "bytes[]",
              "name": "message",
              "type": "bytes[]"
            }
          ],
          "internalType": "struct IMessageStruct.launchMultiMsgParams",
          "name": "params",
          "type": "tuple"
        }
      ],
      "name": "EstimateFee",
      "outputs": [
        {
          "internalType": "uint256",
          "name": "",
          "type": "uint256"
        }
      ],
      "stateMutability": "view",
      "type": "function"
    },
    {
      "inputs": [],
      "name": "ExpertLandingHandler",
      "outputs": [
        {
          "internalType": "contract IExpertLandingHandler",
          "name": "",
          "type": "address"
        }
      ],
      "stateMutability": "view",
      "type": "function"
    },
    {
      "inputs": [
        {
          "internalType": "uint16",
          "name": "chainId",
          "type": "uint16"
        },
        {
          "internalType": "address",
          "name": "sender",
          "type": "address"
        }
      ],
      "name": "GetNonceLanding",
      "outputs": [
        {
          "internalType": "uint24",
          "name": "",
          "type": "uint24"
        }
      ],
      "stateMutability": "view",
      "type": "function"
    },
    {
      "inputs": [
        {
          "internalType": "uint16",
          "name": "chainId",
          "type": "uint16"
        },
        {
          "internalType": "address",
          "name": "sender",
          "type": "address"
        }
      ],
      "name": "GetNonceLaunch",
      "outputs": [
        {
          "internalType": "uint24",
          "name": "",
          "type": "uint24"
        }
      ],
      "stateMutability": "view",
      "type": "function"
    },
    {
      "inputs": [
        {
          "internalType": "bytes32",
          "name": "mptRootNew",
          "type": "bytes32"
        },
        {
          "internalType": "uint64",
          "name": "aggregatedEarlistArrivalTimestamp",
          "type": "uint64"
        },
        {
          "internalType": "uint64",
          "name": "aggregatedLatestArrivalTimestamp",
          "type": "uint64"
        },
        {
          "components": [
            {
              "internalType": "uint16",
              "name": "srcChainld",
              "type": "uint16"
            },
            {
              "internalType": "address",
              "name": "sender",
              "type": "address"
            },
            {
              "internalType": "bytes32",
              "name": "messgeId",
              "type": "bytes32"
            }
          ],
          "internalType": "struct IMessageStruct.PostingLanding[]",
          "name": "params",
          "type": "tuple[]"
        }
      ],
      "name": "Landing",
      "outputs": [],
      "stateMutability": "nonpayable",
      "type": "function"
    },
    {
      "inputs": [
        {
          "internalType": "bytes32",
          "name": "mptRootNew",
          "type": "bytes32"
        },
        {
          "internalType": "uint64",
          "name": "aggregatedEarlistArrivalTimestamp",
          "type": "uint64"
        },
        {
          "internalType": "uint64",
          "name": "aggregatedLatestArrivalTimestamp",
          "type": "uint64"
        },
        {
          "components": [
            {
              "internalType": "uint16",
              "name": "srcChainld",
              "type": "uint16"
            },
            {
              "internalType": "uint24",
              "name": "nonceLandingCurrent",
              "type": "uint24"
            },
            {
              "internalType": "address",
              "name": "sender",
              "type": "address"
            },
            {
              "internalType": "uint256",
              "name": "value",
              "type": "uint256"
            },
            {
              "internalType": "bytes32",
              "name": "messgeId",
              "type": "bytes32"
            },
            {
              "internalType": "bytes",
              "name": "message",
              "type": "bytes"
            }
          ],
          "internalType": "struct IMessageStruct.InteractionLanding[]",
          "name": "params",
          "type": "tuple[]"
        }
      ],
      "name": "Landing",
      "outputs": [],
      "stateMutability": "payable",
      "type": "function"
    },
    {
      "inputs": [
        {
          "components": [
            {
              "internalType": "uint64",
              "name": "earlistArrivalTimestamp",
              "type": "uint64"
            },
            {
              "internalType": "uint64",
              "name": "latestArrivalTimestamp",
              "type": "uint64"
            },
            {
              "internalType": "address",
              "name": "relayer",
              "type": "address"
            },
            {
              "internalType": "address",
              "name": "sender",
              "type": "address"
            },
            {
              "internalType": "uint256",
              "name": "value",
              "type": "uint256"
            },
            {
              "internalType": "uint16",
              "name": "destChainld",
              "type": "uint16"
            },
            {
              "internalType": "bytes",
              "name": "aditionParams",
              "type": "bytes"
            },
            {
              "internalType": "bytes",
              "name": "message",
              "type": "bytes"
            }
          ],
          "internalType": "struct IMessageStruct.launchSingleMsgParams",
          "name": "params",
          "type": "tuple"
        }
      ],
      "name": "Launch",
      "outputs": [],
      "stateMutability": "payable",
      "type": "function"
    },
    {
      "inputs": [
        {
          "components": [
            {
              "internalType": "uint64",
              "name": "earlistArrivalTimestamp",
              "type": "uint64"
            },
            {
              "internalType": "uint64",
              "name": "latestArrivalTimestamp",
              "type": "uint64"
            },
            {
              "internalType": "address",
              "name": "relayer",
              "type": "address"
            },
            {
              "internalType": "address",
              "name": "sender",
              "type": "address"
            },
            {
              "internalType": "uint256[]",
              "name": "value",
              "type": "uint256[]"
            },
            {
              "internalType": "uint16[]",
              "name": "destChainld",
              "type": "uint16[]"
            },
            {
              "internalType": "bytes[]",
              "name": "aditionParams",
              "type": "bytes[]"
            },
            {
              "internalType": "bytes[]",
              "name": "message",
              "type": "bytes[]"
            }
          ],
          "internalType": "struct IMessageStruct.launchMultiMsgParams",
          "name": "params",
          "type": "tuple"
        }
      ],
      "name": "Launch",
      "outputs": [],
      "stateMutability": "payable",
      "type": "function"
    },
    {
      "inputs": [],
      "name": "Manager",
      "outputs": [
        {
          "internalType": "address",
          "name": "",
          "type": "address"
        }
      ],
      "stateMutability": "view",
      "type": "function"
    },
    {
      "inputs": [
        {
          "internalType": "bool",
          "name": "stop",
          "type": "bool"
        }
      ],
      "name": "PauseEngine",
      "outputs": [],
      "stateMutability": "nonpayable",
      "type": "function"
    },
    {
      "inputs": [
        {
          "internalType": "address",
          "name": "paymentSystemAddress",
          "type": "address"
        }
      ],
      "name": "SetPaymentSystem",
      "outputs": [],
      "stateMutability": "nonpayable",
      "type": "function"
    },
    {
      "inputs": [
        {
          "components": [
            {
              "internalType": "uint16",
              "name": "srcChainld",
              "type": "uint16"
            },
            {
              "internalType": "uint24",
              "name": "nonceLandingCurrent",
              "type": "uint24"
            },
            {
              "internalType": "address",
              "name": "sender",
              "type": "address"
            },
            {
              "internalType": "uint256",
              "name": "value",
              "type": "uint256"
            },
            {
              "internalType": "bytes32",
              "name": "messgeId",
              "type": "bytes32"
            },
            {
              "internalType": "bytes",
              "name": "message",
              "type": "bytes"
            }
          ],
          "internalType": "struct IMessageStruct.InteractionLanding[]",
          "name": "params",
          "type": "tuple[]"
        }
      ],
      "name": "SimulateLanding",
      "outputs": [],
      "stateMutability": "nonpayable",
      "type": "function"
    },
    {
      "inputs": [
        {
          "internalType": "address",
          "name": "",
          "type": "address"
        }
      ],
      "name": "TrustedRelayer",
      "outputs": [
        {
          "internalType": "bool",
          "name": "",
          "type": "bool"
        }
      ],
      "stateMutability": "view",
      "type": "function"
    },
    {
      "inputs": [],
      "name": "UPGRADE_INTERFACE_VERSION",
      "outputs": [
        {
          "internalType": "string",
          "name": "",
          "type": "string"
        }
      ],
      "stateMutability": "view",
      "type": "function"
    },
    {
      "inputs": [],
      "name": "Version",
      "outputs": [
        {
          "internalType": "string",
          "name": "",
          "type": "string"
        }
      ],
      "stateMutability": "view",
      "type": "function"
    },
    {
      "inputs": [
        {
          "internalType": "uint256",
          "name": "amount",
          "type": "uint256"
        }
      ],
      "name": "Withdraw",
      "outputs": [],
      "stateMutability": "nonpayable",
      "type": "function"
    },
    {
      "inputs": [],
      "name": "deployChainId",
      "outputs": [
        {
          "internalType": "uint16",
          "name": "",
          "type": "uint16"
        }
      ],
      "stateMutability": "view",
      "type": "function"
    },
    {
      "inputs": [
        {
          "internalType": "address",
          "name": "trustedRelayerAddr",
          "type": "address"
        },
        {
          "internalType": "address",
          "name": "paymentSystemAddr",
          "type": "address"
        },
        {
          "internalType": "address",
          "name": "_owner",
          "type": "address"
        }
      ],
      "name": "initialize",
      "outputs": [],
      "stateMutability": "nonpayable",
      "type": "function"
    },
    {
      "inputs": [],
      "name": "isLanding",
      "outputs": [
        {
          "internalType": "uint8",
          "name": "",
          "type": "uint8"
        }
      ],
      "stateMutability": "view",
      "type": "function"
    },
    {
      "inputs": [],
      "name": "isPaused",
      "outputs": [
        {
          "internalType": "uint8",
          "name": "",
          "type": "uint8"
        }
      ],
      "stateMutability": "view",
      "type": "function"
    },
    {
      "inputs": [
        {
          "internalType": "address",
          "name": "addr",
          "type": "address"
        }
      ],
      "name": "isTrustedRelayer",
      "outputs": [
        {
          "internalType": "bool",
          "name": "",
          "type": "bool"
        }
      ],
      "stateMutability": "view",
      "type": "function"
    },
    {
      "inputs": [],
      "name": "maxArrivalTime",
      "outputs": [
        {
          "internalType": "uint64",
          "name": "",
          "type": "uint64"
        }
      ],
      "stateMutability": "view",
      "type": "function"
    },
    {
      "inputs": [],
      "name": "minArrivalTime",
      "outputs": [
        {
          "internalType": "uint64",
          "name": "",
          "type": "uint64"
        }
      ],
      "stateMutability": "view",
      "type": "function"
    },
    {
      "inputs": [
        {
          "internalType": "bytes32",
          "name": "",
          "type": "bytes32"
        }
      ],
      "name": "nonceLanding",
      "outputs": [
        {
          "internalType": "uint24",
          "name": "",
          "type": "uint24"
        }
      ],
      "stateMutability": "view",
      "type": "function"
    },
    {
      "inputs": [
        {
          "internalType": "bytes32",
          "name": "",
          "type": "bytes32"
        }
      ],
      "name": "nonceLaunch",
      "outputs": [
        {
          "internalType": "uint24",
          "name": "",
          "type": "uint24"
        }
      ],
      "stateMutability": "view",
      "type": "function"
    },
    {
      "inputs": [],
      "name": "owner",
      "outputs": [
        {
          "internalType": "address",
          "name": "",
          "type": "address"
        }
      ],
      "stateMutability": "view",
      "type": "function"
    },
    {
      "inputs": [],
      "name": "paymentSystem",
      "outputs": [
        {
          "internalType": "contract IMessagePaymentSystem",
          "name": "",
          "type": "address"
        }
      ],
      "stateMutability": "view",
      "type": "function"
    },
    {
      "inputs": [],
      "name": "proxiableUUID",
      "outputs": [
        {
          "internalType": "bytes32",
          "name": "",
          "type": "bytes32"
        }
      ],
      "stateMutability": "view",
      "type": "function"
    },
    {
      "inputs": [],
      "name": "renounceOwnership",
      "outputs": [],
      "stateMutability": "nonpayable",
      "type": "function"
    },
    {
      "inputs": [
        {
          "internalType": "bytes",
          "name": "config",
          "type": "bytes"
        }
      ],
      "name": "setConfiguration",
      "outputs": [],
      "stateMutability": "view",
      "type": "function"
    },
    {
      "inputs": [
        {
          "internalType": "address",
          "name": "newOwner",
          "type": "address"
        }
      ],
      "name": "transferOwnership",
      "outputs": [],
      "stateMutability": "nonpayable",
      "type": "function"
    },
    {
      "inputs": [
        {
          "internalType": "address",
          "name": "newImplementation",
          "type": "address"
        },
        {
          "internalType": "bytes",
          "name": "data",
          "type": "bytes"
        }
      ],
      "name": "upgradeToAndCall",
      "outputs": [],
      "stateMutability": "payable",
      "type": "function"
    },
    {
      "stateMutability": "payable",
      "type": "receive"
    }
  ],
  "bytecode": "0x60a0604052306080523480156200001557600080fd5b506200002062000026565b620000da565b7ff0c57e16840df040f15088dc2f81fe391c3923bec73e23a9662efc9c229c6a00805468010000000000000000900460ff1615620000775760405163f92ee8a960e01b815260040160405180910390fd5b80546001600160401b0390811614620000d75780546001600160401b0319166001600160401b0390811782556040519081527fc7f505b2f371ae2175ee4913f4499e1f2633a7b5936321eed1cdaeb6115181d29060200160405180910390a15b50565b60805161377f6200010460003960008181611c4001528181611c690152611e8a015261377f6000f3fe6080604052600436106102535760003560e01c806378357e5311610138578063bb62860d116100b0578063d48eb1481161007f578063de8aeda011610064578063de8aeda0146107a1578063e9c1dd51146107b8578063f2fde38b146107d857600080fd5b8063d48eb1481461077b578063dbda6ad91461078e57600080fd5b8063bb62860d146106af578063beb931e0146106f8578063c0c53b8b14610715578063cde86f381461073557600080fd5b80639de0049411610107578063ad3cb1cc116100ec578063ad3cb1cc14610613578063b187bd2614610669578063baee4cee1461068f57600080fd5b80639de00494146105c65780639df40f5a146105e657600080fd5b806378357e53146105325780638da5cb5b146105475780639574d6dc146105915780639b1762d9146105b157600080fd5b80634f1ef286116101cb5780635ad3ad061161019a5780635ca6d9d81161017f5780635ca6d9d8146104dd5780636c86f477146104fd578063715018a61461051d57600080fd5b80635ad3ad061461048f5780635b6b431d146104bd57600080fd5b80634f1ef2861461040757806352d1902d1461041a57806354fb60b81461043d57806357a1397b1461046f57600080fd5b80632386512a11610222578063354ae29511610207578063354ae295146103855780633596f3d6146103a85780633e141d74146103d557600080fd5b80632386512a146103455780632dc83fce1461036557600080fd5b8063012c22c41461025f578063113f182f146102745780631a8a6524146102b95780631ef35f0b146102ed57600080fd5b3661025a57005b600080fd5b61027261026d36600461292c565b6107f8565b005b34801561028057600080fd5b506102a461028f36600461298a565b60046020526000908152604090205460ff1681565b60405190151581526020015b60405180910390f35b3480156102c557600080fd5b506102d96102d43660046129b7565b61091d565b60405162ffffff90911681526020016102b0565b3480156102f957600080fd5b506002546103209062010000900473ffffffffffffffffffffffffffffffffffffffff1681565b60405173ffffffffffffffffffffffffffffffffffffffff90911681526020016102b0565b34801561035157600080fd5b506102d96103603660046129b7565b610934565b34801561037157600080fd5b50610272610380366004612a36565b610941565b34801561039157600080fd5b5060025b60405161ffff90911681526020016102b0565b3480156103b457600080fd5b506003546103209073ffffffffffffffffffffffffffffffffffffffff1681565b3480156103e157600080fd5b506102d96103f0366004612a78565b60016020526000908152604090205462ffffff1681565b610272610415366004612ac0565b610987565b34801561042657600080fd5b5061042f6109a6565b6040519081526020016102b0565b34801561044957600080fd5b506102d9610458366004612a78565b60006020819052908152604090205462ffffff1681565b34801561047b57600080fd5b5061027261048a36600461298a565b6109d5565b34801561049b57600080fd5b506104a460b481565b60405167ffffffffffffffff90911681526020016102b0565b3480156104c957600080fd5b506102726104d8366004612a78565b610afd565b3480156104e957600080fd5b506102726104f8366004612ba0565b610bcd565b34801561050957600080fd5b50610272610518366004612c22565b610c6b565b34801561052957600080fd5b50610272610d68565b34801561053e57600080fd5b50610320610d7c565b34801561055357600080fd5b507f9016d09d72d40fdae2fd8ceac6b6234c7706214fd39c1cd1e609a0528c1993005473ffffffffffffffffffffffffffffffffffffffff16610320565b34801561059d57600080fd5b506102726105ac366004612c55565b610dc1565b3480156105bd57600080fd5b50610395600281565b3480156105d257600080fd5b506102726105e1366004612cf3565b610fc9565b3480156105f257600080fd5b50610606610601366004612a36565b6110bf565b6040516102b09190612d1d565b34801561061f57600080fd5b5061065c6040518060400160405280600581526020017f352e302e3000000000000000000000000000000000000000000000000000000081525081565b6040516102b09190612dd1565b34801561067557600080fd5b5060025460ff165b60405160ff90911681526020016102b0565b34801561069b57600080fd5b5061042f6106aa36600461292c565b611171565b3480156106bb57600080fd5b5061065c6040518060400160405280600681526020017f76312e302e30000000000000000000000000000000000000000000000000000081525081565b34801561070457600080fd5b50600254610100900460ff1661067d565b34801561072157600080fd5b50610272610730366004612de4565b611209565b34801561074157600080fd5b506102a461075036600461298a565b73ffffffffffffffffffffffffffffffffffffffff1660009081526004602052604090205460ff1690565b610272610789366004612e27565b611532565b61027261079c36600461292c565b611731565b3480156107ad57600080fd5b506104a462278d0081565b3480156107c457600080fd5b5061042f6107d336600461292c565b6119b5565b3480156107e457600080fd5b506102726107f336600461298a565b611a0c565b6108056020820182612e96565b6108156040830160208401612e96565b826080013561082384611171565b6002805460ff1614610861576040517f1aed3fed00000000000000000000000000000000000000000000000000000000815260040160405180910390fd5b61086b8282612ee0565b3410156108a4576040517fbef7a4bc00000000000000000000000000000000000000000000000000000000815260040160405180910390fd5b6108ae8484611a70565b6108da6108c160c0870160a08801612ef3565b6108d1608088016060890161298a565b60009190611b27565b62ffffff167f152a18b29cf6dbe9dfcab16cf3cfa31318e63d06a8cb54f898e7838244136f508660405161090e9190612fbb565b60405180910390a25050505050565b600061092b60018484611bca565b90505b92915050565b600061092b818484611bca565b61094b82826110bf565b6040517fedbfa46a00000000000000000000000000000000000000000000000000000000815260040161097e9190612d1d565b60405180910390fd5b61098f611c28565b61099882611d2c565b6109a28282611d34565b5050565b60006109b0611e72565b507f360894a13ba1a3210667c828492db98dca3e2076cc3735a920a3ca505d382bbc90565b6109dd610d7c565b73ffffffffffffffffffffffffffffffffffffffff163373ffffffffffffffffffffffffffffffffffffffff1614610a41576040517f4ca8886700000000000000000000000000000000000000000000000000000000815260040160405180910390fd5b73ffffffffffffffffffffffffffffffffffffffff8116610a8e576040517fe6c4247b00000000000000000000000000000000000000000000000000000000815260040160405180910390fd5b600380547fffffffffffffffffffffffff00000000000000000000000000000000000000001673ffffffffffffffffffffffffffffffffffffffff83169081179091556040517fc42198387755d1905bd3c5b3ed34925a52f21b418fa2f083c6f95932bb7615df90600090a250565b6000610b07610d7c565b73ffffffffffffffffffffffffffffffffffffffff168260405160006040518083038185875af1925050503d8060008114610b5e576040519150601f19603f3d011682016040523d82523d6000602084013e610b63565b606091505b5050905080610b9e576040517fd477157400000000000000000000000000000000000000000000000000000000815260040160405180910390fd5b60405182907f7d8aac96811a5850be6542bb655a486c8a5e53ded4ede4a04a50542d5fbb834790600090a25050565b610bd5610d7c565b73ffffffffffffffffffffffffffffffffffffffff163373ffffffffffffffffffffffffffffffffffffffff1614610c39576040517f4ca8886700000000000000000000000000000000000000000000000000000000815260040160405180910390fd5b6040517fff94113200000000000000000000000000000000000000000000000000000000815260040160405180910390fd5b610c73610d7c565b73ffffffffffffffffffffffffffffffffffffffff163373ffffffffffffffffffffffffffffffffffffffff1614610cd7576040517f4ca8886700000000000000000000000000000000000000000000000000000000815260040160405180910390fd5b8015610d0d57600280547fffffffffffffffffffffffffffffffffffffffffffffffffffffffffffffff00166001179055610d38565b600280547fffffffffffffffffffffffffffffffffffffffffffffffffffffffffffffff0016811790555b604051811515907fe1b0651480ab1796bad61735eb927e1f76e963b70868c9848f4ef24c2a36586290600090a250565b610d70611ee1565b610d7a6000611f6f565b565b6000610dbc7f9016d09d72d40fdae2fd8ceac6b6234c7706214fd39c1cd1e609a0528c1993005473ffffffffffffffffffffffffffffffffffffffff1690565b905090565b6002805460ff1614610dff576040517f1aed3fed00000000000000000000000000000000000000000000000000000000815260040160405180910390fd5b60025460ff61010090910416600114610e44576040517feb91229600000000000000000000000000000000000000000000000000000000815260040160405180910390fd5b600280547fffffffffffffffffffffffffffffffffffffffffffffffffffffffffffff00ff16610200179055336000908152600460205260409020548490849060ff16610ebd576040517f4ca8886700000000000000000000000000000000000000000000000000000000815260040160405180910390fd5b428267ffffffffffffffff161180610ede5750428167ffffffffffffffff16105b15610f15576040517f71dcf04900000000000000000000000000000000000000000000000000000000815260040160405180910390fd5b60005b83811015610f9257848482818110610f3257610f326130de565b905060600201604001357ff12efb46f79f2d0af956a44e54b35dc59c06849d38675b0c07ba1afa8c4205ac868684818110610f6f57610f6f6130de565b905060600201604051610f82919061310d565b60405180910390a2600101610f18565b5050600280547fffffffffffffffffffffffffffffffffffffffffffffffffffffffffffff00ff16610100179055505b5050505050565b610fd1610d7c565b73ffffffffffffffffffffffffffffffffffffffff163373ffffffffffffffffffffffffffffffffffffffff1614611035576040517f4ca8886700000000000000000000000000000000000000000000000000000000815260040160405180910390fd5b73ffffffffffffffffffffffffffffffffffffffff821660008181526004602090815260409182902080547fffffffffffffffffffffffffffffffffffffffffffffffffffffffffffffff001685151590811790915591519182527f8338f01d8cd6c8e1a0d79c0a27a46c8206945b5bdc431c90be0c09a60c26d863910160405180910390a25050565b606060008267ffffffffffffffff8111156110dc576110dc612a91565b604051908082528060200260200182016040528015611105578160200160208202803683370190505b50905060005b838110156111695761113f858583818110611128576111286130de565b905060200281019061113a9190613157565b612005565b828281518110611151576111516130de565b9115156020928302919091019091015260010161110b565b509392505050565b6003546040517f6fc6e4d900000000000000000000000000000000000000000000000000000000815260009173ffffffffffffffffffffffffffffffffffffffff1690636fc6e4d9906111c8908590600401612fbb565b602060405180830381865afa1580156111e5573d6000803e3d6000fd5b505050506040513d601f19601f8201168201806040525081019061092e9190613195565b7ff0c57e16840df040f15088dc2f81fe391c3923bec73e23a9662efc9c229c6a00805468010000000000000000810460ff16159067ffffffffffffffff166000811580156112545750825b905060008267ffffffffffffffff1660011480156112715750303b155b90506112b26040518060400160405280601081526020017f696e697469616c53657475703a202573000000000000000000000000000000008152508361215d565b6112f16040518060400160405280601081526020017f636f6e737472756374696f6e3a202573000000000000000000000000000000008152508261215d565b811580156112fd575080155b15611334576040517ff92ee8a900000000000000000000000000000000000000000000000000000000815260040160405180910390fd5b84547fffffffffffffffffffffffffffffffffffffffffffffffff000000000000000016600117855583156113955784547fffffffffffffffffffffffffffffffffffffffffffffff00ffffffffffffffff16680100000000000000001785555b61139e866121ee565b6113a66121ff565b73ffffffffffffffffffffffffffffffffffffffff808916600090815260046020526040902080547fffffffffffffffffffffffffffffffffffffffffffffffffffffffffffffff00166001179055600280546101027fffffffffffffffffffffffffffffffffffffffffffffffffffffffffffff0000909116179055871661145b576040517fe6c4247b00000000000000000000000000000000000000000000000000000000815260040160405180910390fd5b600380547fffffffffffffffffffffffff00000000000000000000000000000000000000001673ffffffffffffffffffffffffffffffffffffffff89169081179091556040517fc42198387755d1905bd3c5b3ed34925a52f21b418fa2f083c6f95932bb7615df90600090a283156115285784547fffffffffffffffffffffffffffffffffffffffffffffff00ffffffffffffffff168555604051600181527fc7f505b2f371ae2175ee4913f4499e1f2633a7b5936321eed1cdaeb6115181d29060200160405180910390a15b5050505050505050565b6002805460ff1614611570576040517f1aed3fed00000000000000000000000000000000000000000000000000000000815260040160405180910390fd5b60025460ff610100909104166001146115b5576040517feb91229600000000000000000000000000000000000000000000000000000000815260040160405180910390fd5b600280547fffffffffffffffffffffffffffffffffffffffffffffffffffffffffffff00ff16610200179055336000908152600460205260409020548490849060ff1661162e576040517f4ca8886700000000000000000000000000000000000000000000000000000000815260040160405180910390fd5b428267ffffffffffffffff16118061164f5750428167ffffffffffffffff16105b15611686576040517f71dcf04900000000000000000000000000000000000000000000000000000000815260040160405180910390fd5b60005b83811015610f92576116a6858583818110611128576111286130de565b508484828181106116b9576116b96130de565b90506020028101906116cb9190613157565b608001357f05ef1cb7d36c282e73dec116d15b81bb7d7ab3fc0aba9c33a9c88b887fb7ae4d868684818110611702576117026130de565b90506020028101906117149190613157565b60405161172191906131ae565b60405180910390a2600101611689565b61173e6020820182612e96565b61174e6040830160208401612e96565b61176361175e6080850185613241565b612207565b61176c846119b5565b6002805460ff16146117aa576040517f1aed3fed00000000000000000000000000000000000000000000000000000000815260040160405180910390fd5b6117b48282612ee0565b3410156117ed576040517fbef7a4bc00000000000000000000000000000000000000000000000000000000815260040160405180910390fd5b6117f78484611a70565b61180460e0860186613241565b905060000361183f576040517f6eca2e4b00000000000000000000000000000000000000000000000000000000815260040160405180910390fd5b61184c60e0860186613241565b905061185b60a0870187613241565b9050036118bc5761186b85612248565b60405161187891906132a9565b60405180910390207fbc365d311c6c2f1351ccfbf74f6059d823d42d7a6845cac551bb29a190414665866040516118af9190613457565b60405180910390a2610fc2565b60016118cb60a0870187613241565b90501180156118e857506118e260e0860186613241565b90506001145b156118f65761186b85612262565b61190360a0860186613241565b905060011480156119225750600161191e60e0870187613241565b9050115b156119645761193085612275565b62ffffff167ff508b5f5070460912ffa9a2c4f2425abdc5a95a47027e4aaaeefd8e9bb760142866040516118af9190613457565b61197160a0860186613241565b905060000361198357611930856122c2565b6040517f6eca2e4b00000000000000000000000000000000000000000000000000000000815260040160405180910390fd5b6003546040517f655f0db900000000000000000000000000000000000000000000000000000000815260009173ffffffffffffffffffffffffffffffffffffffff169063655f0db9906111c8908590600401613457565b611a14611ee1565b73ffffffffffffffffffffffffffffffffffffffff8116611a64576040517f1e4fbdf70000000000000000000000000000000000000000000000000000000081526000600482015260240161097e565b611a6d81611f6f565b50565b60008267ffffffffffffffff16118015611a94575060008167ffffffffffffffff16115b8015611af05750611aa660b442612ee0565b8267ffffffffffffffff161080611ad25750611ac562278d0042612ee0565b8167ffffffffffffffff16115b80611af057508167ffffffffffffffff168167ffffffffffffffff16105b156109a2576040517f7c40a65700000000000000000000000000000000000000000000000000000000815260040160405180910390fd5b6000836000611b818585604051602001611b6792919061ffff92909216825273ffffffffffffffffffffffffffffffffffffffff16602082015260400190565b604051602081830303815290604052805160209091012090565b815260208101919091526040016000908120805462ffffff1691611ba4836135a6565b91906101000a81548162ffffff021916908362ffffff16021790555090505b9392505050565b6000836000611c0a8585604051602001611b6792919061ffff92909216825273ffffffffffffffffffffffffffffffffffffffff16602082015260400190565b815260208101919091526040016000205462ffffff16949350505050565b3073ffffffffffffffffffffffffffffffffffffffff7f0000000000000000000000000000000000000000000000000000000000000000161480611cf557507f000000000000000000000000000000000000000000000000000000000000000073ffffffffffffffffffffffffffffffffffffffff16611cdc7f360894a13ba1a3210667c828492db98dca3e2076cc3735a920a3ca505d382bbc5473ffffffffffffffffffffffffffffffffffffffff1690565b73ffffffffffffffffffffffffffffffffffffffff1614155b15610d7a576040517fe07c8dba00000000000000000000000000000000000000000000000000000000815260040160405180910390fd5b611a6d611ee1565b8173ffffffffffffffffffffffffffffffffffffffff166352d1902d6040518163ffffffff1660e01b8152600401602060405180830381865afa925050508015611db9575060408051601f3d9081017fffffffffffffffffffffffffffffffffffffffffffffffffffffffffffffffe0168201909252611db691810190613195565b60015b611e07576040517f4c9c8ce300000000000000000000000000000000000000000000000000000000815273ffffffffffffffffffffffffffffffffffffffff8316600482015260240161097e565b7f360894a13ba1a3210667c828492db98dca3e2076cc3735a920a3ca505d382bbc8114611e63576040517faa1d49a40000000000000000000000000000000000000000000000000000000081526004810182905260240161097e565b611e6d83836122d8565b505050565b3073ffffffffffffffffffffffffffffffffffffffff7f00000000000000000000000000000000000000000000000000000000000000001614610d7a576040517fe07c8dba00000000000000000000000000000000000000000000000000000000815260040160405180910390fd5b33611f207f9016d09d72d40fdae2fd8ceac6b6234c7706214fd39c1cd1e609a0528c1993005473ffffffffffffffffffffffffffffffffffffffff1690565b73ffffffffffffffffffffffffffffffffffffffff1614610d7a576040517f118cdaa700000000000000000000000000000000000000000000000000000000815233600482015260240161097e565b7f9016d09d72d40fdae2fd8ceac6b6234c7706214fd39c1cd1e609a0528c19930080547fffffffffffffffffffffffff0000000000000000000000000000000000000000811673ffffffffffffffffffffffffffffffffffffffff848116918217845560405192169182907f8be0079c531659141344cd1fd0a4f28419497f9722a3daafe3b4186f6b6457e090600090a3505050565b60008061201d61201860a08501856135c8565b61233b565b90507ffe000000000000000000000000000000000000000000000000000000000000007fff000000000000000000000000000000000000000000000000000000000000008216016120c957612084606084013561207d60a08601866135c8565b909161235c565b509150816120c4576040517f1f5328cc0000000000000000000000000000000000000000000000000000000081526080840135600482015260240161097e565b612157565b6002546040517f2adbcb650000000000000000000000000000000000000000000000000000000081526201000090910473ffffffffffffffffffffffffffffffffffffffff1690632adbcb65906121249086906004016131ae565b600060405180830381600087803b15801561213e57600080fd5b505af1158015612152573d6000803e3d6000fd5b505050505b50919050565b6109a2828260405160240161217392919061362d565b604080517fffffffffffffffffffffffffffffffffffffffffffffffffffffffffffffffe08184030181529190526020810180517bffffffffffffffffffffffffffffffffffffffffffffffffffffffff167fc3b55635000000000000000000000000000000000000000000000000000000001790526123ae565b6121f66123b7565b611a6d8161241e565b610d7a6123b7565b6000805b8281101561224157838382818110612225576122256130de565b90506020020135826122379190612ee0565b915060010161220b565b5092915050565b606061092e8261225b60e0820182613241565b9050612426565b606061092e8261225b60a0820182613241565b600061092e8261228860a0820182613241565b6000818110612299576122996130de565b90506020020160208101906122ae9190612ef3565b6122bb60e0860186613241565b90506124dd565b600061092e8261ffff6122bb60e0830183613241565b6122e1826124fd565b60405173ffffffffffffffffffffffffffffffffffffffff8316907fbc7cd75a20ee27fd9adebab32041f755214dbc6bffa90cc0225b39da2e5c2d3b90600090a280511561233357611e6d82826125cc565b6109a261264f565b60008061234b6001828587613651565b6123549161367b565b949350505050565b60006060600080600061236f8888612687565b9194509250905061239f73ffffffffffffffffffffffffffffffffffffffff841662ffffff84168860208561270f565b90999098509650505050505050565b611a6d8161279a565b7ff0c57e16840df040f15088dc2f81fe391c3923bec73e23a9662efc9c229c6a005468010000000000000000900460ff16610d7a576040517fd7e6bcf800000000000000000000000000000000000000000000000000000000815260040160405180910390fd5b611a146123b7565b606060008267ffffffffffffffff81111561244357612443612a91565b60405190808252806020026020018201604052801561246c578160200160208202803683370190505b50905060005b83811015611169576124af61248a60a0870187613241565b8381811061249a5761249a6130de565b90506020020160208101906108c19190612ef3565b8282815181106124c1576124c16130de565b62ffffff90921660209283029190910190910152600101612472565b6000612354836124f3608087016060880161298a565b60009190856127bb565b8073ffffffffffffffffffffffffffffffffffffffff163b600003612566576040517f4c9c8ce300000000000000000000000000000000000000000000000000000000815273ffffffffffffffffffffffffffffffffffffffff8216600482015260240161097e565b7f360894a13ba1a3210667c828492db98dca3e2076cc3735a920a3ca505d382bbc80547fffffffffffffffffffffffff00000000000000000000000000000000000000001673ffffffffffffffffffffffffffffffffffffffff92909216919091179055565b60606000808473ffffffffffffffffffffffffffffffffffffffff16846040516125f691906136c3565b600060405180830381855af49150503d8060008114612631576040519150601f19603f3d011682016040523d82523d6000602084013e612636565b606091505b5091509150612646858383612848565b95945050505050565b3415610d7a576040517fb398979f00000000000000000000000000000000000000000000000000000000815260040160405180910390fd5b600080606061269a602160018688613651565b6126a3916136d5565b92506126b3602460218688613651565b6126bc91613711565b60e81c91506126ce8460248188613651565b8080601f0160208091040260200160405190810160405280939291908181526020018383808284376000920191909152509598949750919550929350505050565b6000606060008060008661ffff1667ffffffffffffffff81111561273557612735612a91565b6040519080825280601f01601f19166020018201604052801561275f576020820181803683370190505b5090506000808751602089018b8e8ef191503d925086831115612780578692505b828152826000602083013e90999098509650505050505050565b60006a636f6e736f6c652e6c6f679050600080835160208501845afa505050565b6000818560006127fc8787604051602001611b6792919061ffff92909216825273ffffffffffffffffffffffffffffffffffffffff16602082015260400190565b815260208101919091526040016000908120805490919061282390849062ffffff16613756565b92506101000a81548162ffffff021916908362ffffff16021790559050949350505050565b60608261285d57612858826128d7565b611bc3565b8151158015612881575073ffffffffffffffffffffffffffffffffffffffff84163b155b156128d0576040517f9996b31500000000000000000000000000000000000000000000000000000000815273ffffffffffffffffffffffffffffffffffffffff8516600482015260240161097e565b5080611bc3565b8051156128e75780518082602001fd5b6040517f1425ea4200000000000000000000000000000000000000000000000000000000815260040160405180910390fd5b6000610100828403121561215757600080fd5b60006020828403121561293e57600080fd5b813567ffffffffffffffff81111561295557600080fd5b61235484828501612919565b803573ffffffffffffffffffffffffffffffffffffffff8116811461298557600080fd5b919050565b60006020828403121561299c57600080fd5b61092b82612961565b803561ffff8116811461298557600080fd5b600080604083850312156129ca57600080fd5b6129d3836129a5565b91506129e160208401612961565b90509250929050565b60008083601f8401126129fc57600080fd5b50813567ffffffffffffffff811115612a1457600080fd5b6020830191508360208260051b8501011115612a2f57600080fd5b9250929050565b60008060208385031215612a4957600080fd5b823567ffffffffffffffff811115612a6057600080fd5b612a6c858286016129ea565b90969095509350505050565b600060208284031215612a8a57600080fd5b5035919050565b7f4e487b7100000000000000000000000000000000000000000000000000000000600052604160045260246000fd5b60008060408385031215612ad357600080fd5b612adc83612961565b9150602083013567ffffffffffffffff80821115612af957600080fd5b818501915085601f830112612b0d57600080fd5b813581811115612b1f57612b1f612a91565b604051601f82017fffffffffffffffffffffffffffffffffffffffffffffffffffffffffffffffe0908116603f01168101908382118183101715612b6557612b65612a91565b81604052828152886020848701011115612b7e57600080fd5b8260208601602083013760006020848301015280955050505050509250929050565b60008060208385031215612bb357600080fd5b823567ffffffffffffffff80821115612bcb57600080fd5b818501915085601f830112612bdf57600080fd5b813581811115612bee57600080fd5b866020828501011115612c0057600080fd5b60209290920196919550909350505050565b8035801515811461298557600080fd5b600060208284031215612c3457600080fd5b61092b82612c12565b803567ffffffffffffffff8116811461298557600080fd5b600080600080600060808688031215612c6d57600080fd5b85359450612c7d60208701612c3d565b9350612c8b60408701612c3d565b9250606086013567ffffffffffffffff80821115612ca857600080fd5b818801915088601f830112612cbc57600080fd5b813581811115612ccb57600080fd5b896020606083028501011115612ce057600080fd5b9699959850939650602001949392505050565b60008060408385031215612d0657600080fd5b612d0f83612961565b91506129e160208401612c12565b6020808252825182820181905260009190848201906040850190845b81811015612d57578351151583529284019291840191600101612d39565b50909695505050505050565b60005b83811015612d7e578181015183820152602001612d66565b50506000910152565b60008151808452612d9f816020860160208601612d63565b601f017fffffffffffffffffffffffffffffffffffffffffffffffffffffffffffffffe0169290920160200192915050565b60208152600061092b6020830184612d87565b600080600060608486031215612df957600080fd5b612e0284612961565b9250612e1060208501612961565b9150612e1e60408501612961565b90509250925092565b600080600080600060808688031215612e3f57600080fd5b85359450612e4f60208701612c3d565b9350612e5d60408701612c3d565b9250606086013567ffffffffffffffff811115612e7957600080fd5b612e85888289016129ea565b969995985093965092949392505050565b600060208284031215612ea857600080fd5b61092b82612c3d565b7f4e487b7100000000000000000000000000000000000000000000000000000000600052601160045260246000fd5b8082018082111561092e5761092e612eb1565b600060208284031215612f0557600080fd5b61092b826129a5565b60008083357fffffffffffffffffffffffffffffffffffffffffffffffffffffffffffffffe1843603018112612f4357600080fd5b830160208101925035905067ffffffffffffffff811115612f6357600080fd5b803603821315612a2f57600080fd5b8183528181602085013750600060208284010152600060207fffffffffffffffffffffffffffffffffffffffffffffffffffffffffffffffe0601f840116840101905092915050565b6020815267ffffffffffffffff612fd183612c3d565b1660208201526000612fe560208401612c3d565b67ffffffffffffffff811660408401525061300260408401612961565b73ffffffffffffffffffffffffffffffffffffffff811660608401525061302b60608401612961565b73ffffffffffffffffffffffffffffffffffffffff8116608084015250608083013560a083015261305e60a084016129a5565b61ffff811660c08401525061307660c0840184612f0e565b6101008060e086015261308e61012086018385612f72565b925061309d60e0870187612f0e565b92507fffffffffffffffffffffffffffffffffffffffffffffffffffffffffffffffe086850301828701526130d3848483612f72565b979650505050505050565b7f4e487b7100000000000000000000000000000000000000000000000000000000600052603260045260246000fd5b6060810161ffff61311d846129a5565b16825273ffffffffffffffffffffffffffffffffffffffff61314160208501612961565b1660208301526040830135604083015292915050565b600082357fffffffffffffffffffffffffffffffffffffffffffffffffffffffffffffff4183360301811261318b57600080fd5b9190910192915050565b6000602082840312156131a757600080fd5b5051919050565b6020815261ffff6131be836129a5565b1660208201526000602083013562ffffff81168082146131dd57600080fd5b806040850152505073ffffffffffffffffffffffffffffffffffffffff61320660408501612961565b16606083015260608301356080830152608083013560a083015261322d60a0840184612f0e565b60c08085015261264660e085018284612f72565b60008083357fffffffffffffffffffffffffffffffffffffffffffffffffffffffffffffffe184360301811261327657600080fd5b83018035915067ffffffffffffffff82111561329157600080fd5b6020019150600581901b3603821315612a2f57600080fd5b815160009082906020808601845b838110156132d857815162ffffff16855293820193908201906001016132b7565b50929695505050505050565b60008083357fffffffffffffffffffffffffffffffffffffffffffffffffffffffffffffffe184360301811261331957600080fd5b830160208101925035905067ffffffffffffffff81111561333957600080fd5b8060051b3603821315612a2f57600080fd5b81835260007f07ffffffffffffffffffffffffffffffffffffffffffffffffffffffffffffff83111561337d57600080fd5b8260051b80836020870137939093016020019392505050565b8183526000602080850194508260005b858110156133cd5761ffff6133ba836129a5565b16875295820195908201906001016133a6565b509495945050505050565b6000838385526020808601955060208560051b8301018460005b8781101561344a577fffffffffffffffffffffffffffffffffffffffffffffffffffffffffffffffe085840301895261342b8288612f0e565b613436858284612f72565b9a86019a94505050908301906001016133f2565b5090979650505050505050565b602081526134796020820161346b84612c3d565b67ffffffffffffffff169052565b600061348760208401612c3d565b67ffffffffffffffff81166040840152506134a460408401612961565b73ffffffffffffffffffffffffffffffffffffffff81166060840152506134cd60608401612961565b73ffffffffffffffffffffffffffffffffffffffff81166080840152506134f760808401846132e4565b6101008060a086015261350f6101208601838561334b565b925061351e60a08701876132e4565b92507fffffffffffffffffffffffffffffffffffffffffffffffffffffffffffffffe0808786030160c0880152613556858584613396565b945061356560c08901896132e4565b94509150808786030160e088015261357e8585846133d8565b945061358d60e08901896132e4565b94509150808786030183880152506130d38484836133d8565b600062ffffff8083168181036135be576135be612eb1565b6001019392505050565b60008083357fffffffffffffffffffffffffffffffffffffffffffffffffffffffffffffffe18436030181126135fd57600080fd5b83018035915067ffffffffffffffff82111561361857600080fd5b602001915036819003821315612a2f57600080fd5b6040815260006136406040830185612d87565b905082151560208301529392505050565b6000808585111561366157600080fd5b8386111561366e57600080fd5b5050820193919092039150565b7fff0000000000000000000000000000000000000000000000000000000000000081358181169160018510156136bb5780818660010360031b1b83161692505b505092915050565b6000825161318b818460208701612d63565b8035602083101561092e577fffffffffffffffffffffffffffffffffffffffffffffffffffffffffffffffff602084900360031b1b1692915050565b7fffffff000000000000000000000000000000000000000000000000000000000081358181169160038510156136bb57600394850390941b84901b1690921692915050565b62ffffff81811683821601908082111561224157612241612eb156fea164736f6c6343000817000a",
  "linkReferences": {},
  "deployedLinkReferences": {}
}