{
  "_format": "hh-sol-artifact-1",
  "contractName": "MessageSpaceStationUg",
  "sourceName": "contracts/MessageSpaceStation.ugradable.sol",
  "abi": [
    {
      "inputs": [],
      "stateMutability": "nonpayable",
      "type": "constructor"
    },
    {
      "inputs": [],
      "name": "AccessDenied",
      "type": "error"
    },
    {
      "inputs": [
        {
          "internalType": "address",
          "name": "target",
          "type": "address"
        }
      ],
      "name": "AddressEmptyCode",
      "type": "error"
    },
    {
      "inputs": [],
      "name": "ArrivalTimeNotMakeSense",
      "type": "error"
    },
    {
      "inputs": [
        {
          "internalType": "address",
          "name": "implementation",
          "type": "address"
        }
      ],
      "name": "ERC1967InvalidImplementation",
      "type": "error"
    },
    {
      "inputs": [],
      "name": "ERC1967NonPayable",
      "type": "error"
    },
    {
      "inputs": [
        {
          "internalType": "bytes32",
          "name": "messageId",
          "type": "bytes32"
        }
      ],
      "name": "ExcuteError",
      "type": "error"
    },
    {
      "inputs": [],
      "name": "FailedInnerCall",
      "type": "error"
    },
    {
      "inputs": [],
      "name": "InvalidAddress",
      "type": "error"
    },
    {
      "inputs": [],
      "name": "InvalidInitialization",
      "type": "error"
    },
    {
      "inputs": [],
      "name": "InvalidMessage",
      "type": "error"
    },
    {
      "inputs": [],
      "name": "LandingPadOccupied",
      "type": "error"
    },
    {
      "inputs": [],
      "name": "NotImplement",
      "type": "error"
    },
    {
      "inputs": [],
      "name": "NotInitializing",
      "type": "error"
    },
    {
      "inputs": [
        {
          "internalType": "address",
          "name": "owner",
          "type": "address"
        }
      ],
      "name": "OwnableInvalidOwner",
      "type": "error"
    },
    {
      "inputs": [
        {
          "internalType": "address",
          "name": "account",
          "type": "address"
        }
      ],
      "name": "OwnableUnauthorizedAccount",
      "type": "error"
    },
    {
      "inputs": [
        {
          "internalType": "bool[]",
          "name": "results",
          "type": "bool[]"
        }
      ],
      "name": "SimulateResult",
      "type": "error"
    },
    {
      "inputs": [],
      "name": "StationPaused",
      "type": "error"
    },
    {
      "inputs": [],
      "name": "TimeNotReached",
      "type": "error"
    },
    {
      "inputs": [],
      "name": "UUPSUnauthorizedCallContext",
      "type": "error"
    },
    {
      "inputs": [
        {
          "internalType": "bytes32",
          "name": "slot",
          "type": "bytes32"
        }
      ],
      "name": "UUPSUnsupportedProxiableUUID",
      "type": "error"
    },
    {
      "inputs": [],
      "name": "ValueNotMatched",
      "type": "error"
    },
    {
      "inputs": [],
      "name": "WithdrawError",
      "type": "error"
    },
    {
      "anonymous": false,
      "inputs": [
        {
          "indexed": true,
          "internalType": "bool",
          "name": "isPause",
          "type": "bool"
        }
      ],
      "name": "EngineStatusRefreshing",
      "type": "event"
    },
    {
      "anonymous": false,
      "inputs": [
        {
          "indexed": false,
          "internalType": "uint64",
          "name": "version",
          "type": "uint64"
        }
      ],
      "name": "Initialized",
      "type": "event"
    },
    {
      "anonymous": false,
      "inputs": [
        {
          "indexed": true,
          "internalType": "address",
          "name": "previousOwner",
          "type": "address"
        },
        {
          "indexed": true,
          "internalType": "address",
          "name": "newOwner",
          "type": "address"
        }
      ],
      "name": "OwnershipTransferred",
      "type": "event"
    },
    {
      "anonymous": false,
      "inputs": [
        {
          "indexed": true,
          "internalType": "address",
          "name": "paymentSystemAddress",
          "type": "address"
        }
      ],
      "name": "PaymentSystemChanging",
      "type": "event"
    },
    {
      "anonymous": false,
      "inputs": [
        {
          "indexed": true,
          "internalType": "address",
          "name": "sequencerAddress",
          "type": "address"
        },
        {
          "indexed": false,
          "internalType": "bool",
          "name": "state",
          "type": "bool"
        }
      ],
      "name": "SequencerStatusChanging",
      "type": "event"
    },
    {
      "anonymous": false,
      "inputs": [
        {
          "indexed": true,
          "internalType": "bytes32",
          "name": "messageId",
          "type": "bytes32"
        },
        {
          "components": [
            {
              "internalType": "uint64",
              "name": "srcChainld",
              "type": "uint64"
            },
            {
              "internalType": "address",
              "name": "sender",
              "type": "address"
            },
            {
              "internalType": "bytes32",
              "name": "messgeId",
              "type": "bytes32"
            }
          ],
          "indexed": false,
          "internalType": "struct IMessageStruct.PostingLanding",
          "name": "params",
          "type": "tuple"
        }
      ],
      "name": "SuccessfulBatchLanding",
      "type": "event"
    },
    {
      "anonymous": false,
      "inputs": [
        {
          "indexed": true,
          "internalType": "bytes32",
          "name": "messageId",
          "type": "bytes32"
        },
        {
          "components": [
            {
              "internalType": "bytes32",
              "name": "messgeId",
              "type": "bytes32"
            },
            {
              "internalType": "uint64",
              "name": "srcChainld",
              "type": "uint64"
            },
            {
              "internalType": "uint24",
              "name": "srcChainNonce",
              "type": "uint24"
            },
            {
              "internalType": "bytes32",
              "name": "srcTxHash",
              "type": "bytes32"
            },
            {
              "internalType": "address",
              "name": "sender",
              "type": "address"
            },
            {
              "internalType": "uint256",
              "name": "value",
              "type": "uint256"
            },
            {
              "internalType": "bytes",
              "name": "message",
              "type": "bytes"
            }
          ],
          "indexed": false,
          "internalType": "struct IMessageStruct.InteractionLanding",
          "name": "params",
          "type": "tuple"
        }
      ],
      "name": "SuccessfulLanding",
      "type": "event"
    },
    {
      "anonymous": false,
      "inputs": [
        {
          "indexed": true,
          "internalType": "uint32",
          "name": "nonce",
          "type": "uint32"
        },
        {
          "components": [
            {
              "internalType": "uint64",
              "name": "earlistArrivalTimestamp",
              "type": "uint64"
            },
            {
              "internalType": "uint64",
              "name": "latestArrivalTimestamp",
              "type": "uint64"
            },
            {
              "internalType": "address",
              "name": "relayer",
              "type": "address"
            },
            {
              "internalType": "address",
              "name": "sender",
              "type": "address"
            },
            {
              "internalType": "uint256",
              "name": "value",
              "type": "uint256"
            },
            {
              "internalType": "uint64",
              "name": "destChainld",
              "type": "uint64"
            },
            {
              "internalType": "bytes",
              "name": "aditionParams",
              "type": "bytes"
            },
            {
              "internalType": "bytes",
              "name": "message",
              "type": "bytes"
            }
          ],
          "indexed": false,
          "internalType": "struct IMessageStruct.launchSingleMsgParams",
          "name": "params",
          "type": "tuple"
        }
      ],
      "name": "SuccessfulLaunchMessage",
      "type": "event"
    },
    {
      "anonymous": false,
      "inputs": [
        {
          "indexed": true,
          "internalType": "uint32[]",
          "name": "nonce",
          "type": "uint32[]"
        },
        {
          "components": [
            {
              "internalType": "uint64",
              "name": "earlistArrivalTimestamp",
              "type": "uint64"
            },
            {
              "internalType": "uint64",
              "name": "latestArrivalTimestamp",
              "type": "uint64"
            },
            {
              "internalType": "address",
              "name": "relayer",
              "type": "address"
            },
            {
              "internalType": "address",
              "name": "sender",
              "type": "address"
            },
            {
              "internalType": "uint256[]",
              "name": "value",
              "type": "uint256[]"
            },
            {
              "internalType": "uint64[]",
              "name": "destChainld",
              "type": "uint64[]"
            },
            {
              "internalType": "bytes[]",
              "name": "aditionParams",
              "type": "bytes[]"
            },
            {
              "internalType": "bytes[]",
              "name": "message",
              "type": "bytes[]"
            }
          ],
          "indexed": false,
          "internalType": "struct IMessageStruct.launchMultiMsgParams",
          "name": "params",
          "type": "tuple"
        }
      ],
      "name": "SuccessfulLaunchMessages",
      "type": "event"
    },
    {
      "anonymous": false,
      "inputs": [
        {
          "indexed": true,
          "internalType": "uint32",
          "name": "nonce",
          "type": "uint32"
        },
        {
          "components": [
            {
              "internalType": "uint64",
              "name": "earlistArrivalTimestamp",
              "type": "uint64"
            },
            {
              "internalType": "uint64",
              "name": "latestArrivalTimestamp",
              "type": "uint64"
            },
            {
              "internalType": "address",
              "name": "relayer",
              "type": "address"
            },
            {
              "internalType": "address",
              "name": "sender",
              "type": "address"
            },
            {
              "internalType": "uint256[]",
              "name": "value",
              "type": "uint256[]"
            },
            {
              "internalType": "uint64[]",
              "name": "destChainld",
              "type": "uint64[]"
            },
            {
              "internalType": "bytes[]",
              "name": "aditionParams",
              "type": "bytes[]"
            },
            {
              "internalType": "bytes[]",
              "name": "message",
              "type": "bytes[]"
            }
          ],
          "indexed": false,
          "internalType": "struct IMessageStruct.launchMultiMsgParams",
          "name": "params",
          "type": "tuple"
        }
      ],
      "name": "SuccessfulLaunchMessages2",
      "type": "event"
    },
    {
      "anonymous": false,
      "inputs": [
        {
          "indexed": true,
          "internalType": "address",
          "name": "implementation",
          "type": "address"
        }
      ],
      "name": "Upgraded",
      "type": "event"
    },
    {
      "anonymous": false,
      "inputs": [
        {
          "indexed": true,
          "internalType": "uint256",
          "name": "amount",
          "type": "uint256"
        }
      ],
      "name": "WithdrawRequest",
      "type": "event"
    },
    {
      "inputs": [],
      "name": "ChainId",
      "outputs": [
        {
          "internalType": "uint64",
          "name": "",
          "type": "uint64"
        }
      ],
      "stateMutability": "view",
      "type": "function"
    },
    {
      "inputs": [
        {
          "internalType": "address",
          "name": "trustedRelayerAddr",
          "type": "address"
        },
        {
          "internalType": "bool",
          "name": "state",
          "type": "bool"
        }
      ],
      "name": "ConfigTrustedRelayer",
      "outputs": [],
      "stateMutability": "nonpayable",
      "type": "function"
    },
    {
      "inputs": [
        {
          "components": [
            {
              "internalType": "bytes32",
              "name": "messgeId",
              "type": "bytes32"
            },
            {
              "internalType": "uint64",
              "name": "srcChainld",
              "type": "uint64"
            },
            {
              "internalType": "uint24",
              "name": "srcChainNonce",
              "type": "uint24"
            },
            {
              "internalType": "bytes32",
              "name": "srcTxHash",
              "type": "bytes32"
            },
            {
              "internalType": "address",
              "name": "sender",
              "type": "address"
            },
            {
              "internalType": "uint256",
              "name": "value",
              "type": "uint256"
            },
            {
              "internalType": "bytes",
              "name": "message",
              "type": "bytes"
            }
          ],
          "internalType": "struct IMessageStruct.InteractionLanding[]",
          "name": "params",
          "type": "tuple[]"
        }
      ],
      "name": "EstimateExcuteGas",
      "outputs": [
        {
          "internalType": "bool[]",
          "name": "",
          "type": "bool[]"
        }
      ],
      "stateMutability": "nonpayable",
      "type": "function"
    },
    {
      "inputs": [
        {
          "components": [
            {
              "internalType": "uint64",
              "name": "earlistArrivalTimestamp",
              "type": "uint64"
            },
            {
              "internalType": "uint64",
              "name": "latestArrivalTimestamp",
              "type": "uint64"
            },
            {
              "internalType": "address",
              "name": "relayer",
              "type": "address"
            },
            {
              "internalType": "address",
              "name": "sender",
              "type": "address"
            },
            {
              "internalType": "uint256",
              "name": "value",
              "type": "uint256"
            },
            {
              "internalType": "uint64",
              "name": "destChainld",
              "type": "uint64"
            },
            {
              "internalType": "bytes",
              "name": "aditionParams",
              "type": "bytes"
            },
            {
              "internalType": "bytes",
              "name": "message",
              "type": "bytes"
            }
          ],
          "internalType": "struct IMessageStruct.launchSingleMsgParams",
          "name": "params",
          "type": "tuple"
        }
      ],
      "name": "EstimateFee",
      "outputs": [
        {
          "internalType": "uint256",
          "name": "",
          "type": "uint256"
        }
      ],
      "stateMutability": "view",
      "type": "function"
    },
    {
      "inputs": [
        {
          "components": [
            {
              "internalType": "uint64",
              "name": "earlistArrivalTimestamp",
              "type": "uint64"
            },
            {
              "internalType": "uint64",
              "name": "latestArrivalTimestamp",
              "type": "uint64"
            },
            {
              "internalType": "address",
              "name": "relayer",
              "type": "address"
            },
            {
              "internalType": "address",
              "name": "sender",
              "type": "address"
            },
            {
              "internalType": "uint256[]",
              "name": "value",
              "type": "uint256[]"
            },
            {
              "internalType": "uint64[]",
              "name": "destChainld",
              "type": "uint64[]"
            },
            {
              "internalType": "bytes[]",
              "name": "aditionParams",
              "type": "bytes[]"
            },
            {
              "internalType": "bytes[]",
              "name": "message",
              "type": "bytes[]"
            }
          ],
          "internalType": "struct IMessageStruct.launchMultiMsgParams",
          "name": "params",
          "type": "tuple"
        }
      ],
      "name": "EstimateFee",
      "outputs": [
        {
          "internalType": "uint256",
          "name": "",
          "type": "uint256"
        }
      ],
      "stateMutability": "view",
      "type": "function"
    },
    {
      "inputs": [],
      "name": "ExpertLandingHandler",
      "outputs": [
        {
          "internalType": "contract IExpertLandingHandler",
          "name": "",
          "type": "address"
        }
      ],
      "stateMutability": "view",
      "type": "function"
    },
    {
      "inputs": [
        {
          "internalType": "uint64",
          "name": "chainId",
          "type": "uint64"
        },
        {
          "internalType": "address",
          "name": "sender",
          "type": "address"
        }
      ],
      "name": "GetNonceLanding",
      "outputs": [
        {
          "internalType": "uint32",
          "name": "",
          "type": "uint32"
        }
      ],
      "stateMutability": "view",
      "type": "function"
    },
    {
      "inputs": [
        {
          "internalType": "uint64",
          "name": "chainId",
          "type": "uint64"
        },
        {
          "internalType": "address",
          "name": "sender",
          "type": "address"
        }
      ],
      "name": "GetNonceLaunch",
      "outputs": [
        {
          "internalType": "uint32",
          "name": "",
          "type": "uint32"
        }
      ],
      "stateMutability": "view",
      "type": "function"
    },
    {
      "inputs": [
        {
          "internalType": "bytes32",
          "name": "mptRootNew",
          "type": "bytes32"
        },
        {
          "internalType": "uint64",
          "name": "aggregatedEarlistArrivalTimestamp",
          "type": "uint64"
        },
        {
          "internalType": "uint64",
          "name": "aggregatedLatestArrivalTimestamp",
          "type": "uint64"
        },
        {
          "components": [
            {
              "internalType": "uint64",
              "name": "srcChainld",
              "type": "uint64"
            },
            {
              "internalType": "address",
              "name": "sender",
              "type": "address"
            },
            {
              "internalType": "bytes32",
              "name": "messgeId",
              "type": "bytes32"
            }
          ],
          "internalType": "struct IMessageStruct.PostingLanding[]",
          "name": "params",
          "type": "tuple[]"
        }
      ],
      "name": "Landing",
      "outputs": [],
      "stateMutability": "nonpayable",
      "type": "function"
    },
    {
      "inputs": [
        {
          "internalType": "bytes32",
          "name": "mptRootNew",
          "type": "bytes32"
        },
        {
          "internalType": "uint64",
          "name": "aggregatedEarlistArrivalTimestamp",
          "type": "uint64"
        },
        {
          "internalType": "uint64",
          "name": "aggregatedLatestArrivalTimestamp",
          "type": "uint64"
        },
        {
          "components": [
            {
              "internalType": "bytes32",
              "name": "messgeId",
              "type": "bytes32"
            },
            {
              "internalType": "uint64",
              "name": "srcChainld",
              "type": "uint64"
            },
            {
              "internalType": "uint24",
              "name": "srcChainNonce",
              "type": "uint24"
            },
            {
              "internalType": "bytes32",
              "name": "srcTxHash",
              "type": "bytes32"
            },
            {
              "internalType": "address",
              "name": "sender",
              "type": "address"
            },
            {
              "internalType": "uint256",
              "name": "value",
              "type": "uint256"
            },
            {
              "internalType": "bytes",
              "name": "message",
              "type": "bytes"
            }
          ],
          "internalType": "struct IMessageStruct.InteractionLanding[]",
          "name": "params",
          "type": "tuple[]"
        }
      ],
      "name": "Landing",
      "outputs": [],
      "stateMutability": "payable",
      "type": "function"
    },
    {
      "inputs": [
        {
          "components": [
            {
              "internalType": "uint64",
              "name": "earlistArrivalTimestamp",
              "type": "uint64"
            },
            {
              "internalType": "uint64",
              "name": "latestArrivalTimestamp",
              "type": "uint64"
            },
            {
              "internalType": "address",
              "name": "relayer",
              "type": "address"
            },
            {
              "internalType": "address",
              "name": "sender",
              "type": "address"
            },
            {
              "internalType": "uint256[]",
              "name": "value",
              "type": "uint256[]"
            },
            {
              "internalType": "uint64[]",
              "name": "destChainld",
              "type": "uint64[]"
            },
            {
              "internalType": "bytes[]",
              "name": "aditionParams",
              "type": "bytes[]"
            },
            {
              "internalType": "bytes[]",
              "name": "message",
              "type": "bytes[]"
            }
          ],
          "internalType": "struct IMessageStruct.launchMultiMsgParams",
          "name": "params",
          "type": "tuple"
        }
      ],
      "name": "Launch",
      "outputs": [],
      "stateMutability": "payable",
      "type": "function"
    },
    {
      "inputs": [
        {
          "components": [
            {
              "internalType": "uint64",
              "name": "earlistArrivalTimestamp",
              "type": "uint64"
            },
            {
              "internalType": "uint64",
              "name": "latestArrivalTimestamp",
              "type": "uint64"
            },
            {
              "internalType": "address",
              "name": "relayer",
              "type": "address"
            },
            {
              "internalType": "address",
              "name": "sender",
              "type": "address"
            },
            {
              "internalType": "uint256",
              "name": "value",
              "type": "uint256"
            },
            {
              "internalType": "uint64",
              "name": "destChainld",
              "type": "uint64"
            },
            {
              "internalType": "bytes",
              "name": "aditionParams",
              "type": "bytes"
            },
            {
              "internalType": "bytes",
              "name": "message",
              "type": "bytes"
            }
          ],
          "internalType": "struct IMessageStruct.launchSingleMsgParams",
          "name": "params",
          "type": "tuple"
        }
      ],
      "name": "Launch",
      "outputs": [],
      "stateMutability": "payable",
      "type": "function"
    },
    {
      "inputs": [],
      "name": "Manager",
      "outputs": [
        {
          "internalType": "address",
          "name": "",
          "type": "address"
        }
      ],
      "stateMutability": "view",
      "type": "function"
    },
    {
      "inputs": [
        {
          "internalType": "bool",
          "name": "stop",
          "type": "bool"
        }
      ],
      "name": "PauseEngine",
      "outputs": [],
      "stateMutability": "nonpayable",
      "type": "function"
    },
    {
      "inputs": [
        {
          "internalType": "address",
          "name": "paymentSystemAddress",
          "type": "address"
        }
      ],
      "name": "SetPaymentSystem",
      "outputs": [],
      "stateMutability": "nonpayable",
      "type": "function"
    },
    {
      "inputs": [
        {
          "components": [
            {
              "internalType": "bytes32",
              "name": "messgeId",
              "type": "bytes32"
            },
            {
              "internalType": "uint64",
              "name": "srcChainld",
              "type": "uint64"
            },
            {
              "internalType": "uint24",
              "name": "srcChainNonce",
              "type": "uint24"
            },
            {
              "internalType": "bytes32",
              "name": "srcTxHash",
              "type": "bytes32"
            },
            {
              "internalType": "address",
              "name": "sender",
              "type": "address"
            },
            {
              "internalType": "uint256",
              "name": "value",
              "type": "uint256"
            },
            {
              "internalType": "bytes",
              "name": "message",
              "type": "bytes"
            }
          ],
          "internalType": "struct IMessageStruct.InteractionLanding[]",
          "name": "params",
          "type": "tuple[]"
        }
      ],
      "name": "SimulateLanding",
      "outputs": [],
      "stateMutability": "nonpayable",
      "type": "function"
    },
    {
      "inputs": [
        {
          "internalType": "address",
          "name": "",
          "type": "address"
        }
      ],
      "name": "TrustedRelayer",
      "outputs": [
        {
          "internalType": "bool",
          "name": "",
          "type": "bool"
        }
      ],
      "stateMutability": "view",
      "type": "function"
    },
    {
      "inputs": [],
      "name": "UPGRADE_INTERFACE_VERSION",
      "outputs": [
        {
          "internalType": "string",
          "name": "",
          "type": "string"
        }
      ],
      "stateMutability": "view",
      "type": "function"
    },
    {
      "inputs": [],
      "name": "Version",
      "outputs": [
        {
          "internalType": "string",
          "name": "",
          "type": "string"
        }
      ],
      "stateMutability": "view",
      "type": "function"
    },
    {
      "inputs": [
        {
          "internalType": "uint256",
          "name": "amount",
          "type": "uint256"
        }
      ],
      "name": "Withdraw",
      "outputs": [],
      "stateMutability": "nonpayable",
      "type": "function"
    },
    {
      "inputs": [
        {
          "internalType": "address",
          "name": "trustedRelayerAddr",
          "type": "address"
        },
        {
          "internalType": "address",
          "name": "paymentSystemAddr",
          "type": "address"
        },
        {
          "internalType": "address",
          "name": "_owner",
          "type": "address"
        }
      ],
      "name": "initialize",
      "outputs": [],
      "stateMutability": "nonpayable",
      "type": "function"
    },
    {
      "inputs": [],
      "name": "isLanding",
      "outputs": [
        {
          "internalType": "uint8",
          "name": "",
          "type": "uint8"
        }
      ],
      "stateMutability": "view",
      "type": "function"
    },
    {
      "inputs": [],
      "name": "isPaused",
      "outputs": [
        {
          "internalType": "uint8",
          "name": "",
          "type": "uint8"
        }
      ],
      "stateMutability": "view",
      "type": "function"
    },
    {
      "inputs": [
        {
          "internalType": "address",
          "name": "addr",
          "type": "address"
        }
      ],
      "name": "isTrustedRelayer",
      "outputs": [
        {
          "internalType": "bool",
          "name": "",
          "type": "bool"
        }
      ],
      "stateMutability": "view",
      "type": "function"
    },
    {
      "inputs": [],
      "name": "maxArrivalTime",
      "outputs": [
        {
          "internalType": "uint64",
          "name": "",
          "type": "uint64"
        }
      ],
      "stateMutability": "view",
      "type": "function"
    },
    {
      "inputs": [],
      "name": "minArrivalTime",
      "outputs": [
        {
          "internalType": "uint64",
          "name": "",
          "type": "uint64"
        }
      ],
      "stateMutability": "view",
      "type": "function"
    },
    {
      "inputs": [],
      "name": "nonce",
      "outputs": [
        {
          "internalType": "uint32",
          "name": "",
          "type": "uint32"
        }
      ],
      "stateMutability": "view",
      "type": "function"
    },
    {
      "inputs": [
        {
          "internalType": "bytes32",
          "name": "",
          "type": "bytes32"
        }
      ],
      "name": "nonceLanding",
      "outputs": [
        {
          "internalType": "uint32",
          "name": "",
          "type": "uint32"
        }
      ],
      "stateMutability": "view",
      "type": "function"
    },
    {
      "inputs": [
        {
          "internalType": "bytes32",
          "name": "",
          "type": "bytes32"
        }
      ],
      "name": "nonceLaunch",
      "outputs": [
        {
          "internalType": "uint32",
          "name": "",
          "type": "uint32"
        }
      ],
      "stateMutability": "view",
      "type": "function"
    },
    {
      "inputs": [],
      "name": "owner",
      "outputs": [
        {
          "internalType": "address",
          "name": "",
          "type": "address"
        }
      ],
      "stateMutability": "view",
      "type": "function"
    },
    {
      "inputs": [],
      "name": "paymentSystem",
      "outputs": [
        {
          "internalType": "contract IMessagePaymentSystem",
          "name": "",
          "type": "address"
        }
      ],
      "stateMutability": "view",
      "type": "function"
    },
    {
      "inputs": [],
      "name": "proxiableUUID",
      "outputs": [
        {
          "internalType": "bytes32",
          "name": "",
          "type": "bytes32"
        }
      ],
      "stateMutability": "view",
      "type": "function"
    },
    {
      "inputs": [],
      "name": "renounceOwnership",
      "outputs": [],
      "stateMutability": "nonpayable",
      "type": "function"
    },
    {
      "inputs": [
        {
          "internalType": "bytes",
          "name": "config",
          "type": "bytes"
        }
      ],
      "name": "setConfiguration",
      "outputs": [],
      "stateMutability": "view",
      "type": "function"
    },
    {
      "inputs": [
        {
          "internalType": "address",
          "name": "newOwner",
          "type": "address"
        }
      ],
      "name": "transferOwnership",
      "outputs": [],
      "stateMutability": "nonpayable",
      "type": "function"
    },
    {
      "inputs": [
        {
          "internalType": "address",
          "name": "newImplementation",
          "type": "address"
        },
        {
          "internalType": "bytes",
          "name": "data",
          "type": "bytes"
        }
      ],
      "name": "upgradeToAndCall",
      "outputs": [],
      "stateMutability": "payable",
      "type": "function"
    },
    {
      "stateMutability": "payable",
      "type": "receive"
    }
  ],
  "bytecode": "0x60a0604052306080523480156200001557600080fd5b506200002062000026565b620000da565b7ff0c57e16840df040f15088dc2f81fe391c3923bec73e23a9662efc9c229c6a00805468010000000000000000900460ff1615620000775760405163f92ee8a960e01b815260040160405180910390fd5b80546001600160401b0390811614620000d75780546001600160401b0319166001600160401b0390811782556040519081527fc7f505b2f371ae2175ee4913f4499e1f2633a7b5936321eed1cdaeb6115181d29060200160405180910390a15b50565b60805161387a6200010460003960008181611b6501528181611b8e0152611daf015261387a6000f3fe6080604052600436106102535760003560e01c806378357e5311610138578063bb7dbe67116100b0578063cde86f381161007f578063de8aeda011610064578063de8aeda0146107a8578063ea77c16b146107bf578063f2fde38b146107df57600080fd5b8063cde86f381461074f578063d50b31f71461079557600080fd5b8063bb7dbe67146106db578063beb931e0146106fb578063c0c53b8b1461071c578063c890429f1461073c57600080fd5b80639de0049411610107578063affed0e0116100ec578063affed0e014610647578063b187bd2614610664578063bb62860d1461069257600080fd5b80639de00494146105d1578063ad3cb1cc146105f157600080fd5b806378357e53146105325780637dd70a86146105475780638da5cb5b1461056757806392b85cdf146105b157600080fd5b806354fb60b8116101cb5780635b6b431d1161019a5780636c71aad11161017f5780636c71aad1146104d05780636c86f477146104fd578063715018a61461051d57600080fd5b80635b6b431d146104905780635ca6d9d8146104b057600080fd5b806354fb60b81461041557806357a1397b146104485780635ad3ad06146104685780635b05504b1461047d57600080fd5b8063354ae295116102225780633e141d74116102075780633e141d74146103a55780634f1ef286146103ed57806352d1902d1461040057600080fd5b8063354ae295146103505780633596f3d61461037857600080fd5b80630ad7abc11461025f578063113f182f146102925780631ef35f0b146102d257806322ea43021461032e57600080fd5b3661025a57005b600080fd5b34801561026b57600080fd5b5061027f61027a366004612a29565b6107ff565b6040519081526020015b60405180910390f35b34801561029e57600080fd5b506102c26102ad366004612a87565b60046020526000908152604090205460ff1681565b6040519015158152602001610289565b3480156102de57600080fd5b50600254610309906601000000000000900473ffffffffffffffffffffffffffffffffffffffff1681565b60405173ffffffffffffffffffffffffffffffffffffffff9091168152602001610289565b34801561033a57600080fd5b5061034e610349366004612aee565b61089d565b005b34801561035c57600080fd5b50465b60405167ffffffffffffffff9091168152602001610289565b34801561038457600080fd5b506003546103099073ffffffffffffffffffffffffffffffffffffffff1681565b3480156103b157600080fd5b506103d86103c0366004612b30565b60016020526000908152604090205463ffffffff1681565b60405163ffffffff9091168152602001610289565b61034e6103fb366004612b78565b6108e3565b34801561040c57600080fd5b5061027f610902565b34801561042157600080fd5b506103d8610430366004612b30565b60006020819052908152604090205463ffffffff1681565b34801561045457600080fd5b5061034e610463366004612a87565b610931565b34801561047457600080fd5b5061035f60b481565b61034e61048b366004612a29565b610a59565b34801561049c57600080fd5b5061034e6104ab366004612b30565b610ced565b3480156104bc57600080fd5b5061034e6104cb366004612c58565b610dbd565b3480156104dc57600080fd5b506104f06104eb366004612aee565b610e5b565b6040516102899190612cca565b34801561050957600080fd5b5061034e610518366004612d20565b610f0d565b34801561052957600080fd5b5061034e611013565b34801561053e57600080fd5b50610309611027565b34801561055357600080fd5b506103d8610562366004612d53565b61106c565b34801561057357600080fd5b507f9016d09d72d40fdae2fd8ceac6b6234c7706214fd39c1cd1e609a0528c1993005473ffffffffffffffffffffffffffffffffffffffff16610309565b3480156105bd57600080fd5b506103d86105cc366004612d53565b611081565b3480156105dd57600080fd5b5061034e6105ec366004612d86565b61108e565b3480156105fd57600080fd5b5061063a6040518060400160405280600581526020017f352e302e3000000000000000000000000000000000000000000000000000000081525081565b6040516102899190612e1e565b34801561065357600080fd5b506002546103d89063ffffffff1681565b34801561067057600080fd5b50600254640100000000900460ff165b60405160ff9091168152602001610289565b34801561069e57600080fd5b5061063a6040518060400160405280600681526020017f76312e302e30000000000000000000000000000000000000000000000000000081525081565b3480156106e757600080fd5b5061034e6106f6366004612e31565b611184565b34801561070757600080fd5b5060025465010000000000900460ff16610680565b34801561072857600080fd5b5061034e610737366004612ecf565b6113c8565b61034e61074a366004612a29565b6116f5565b34801561075b57600080fd5b506102c261076a366004612a87565b73ffffffffffffffffffffffffffffffffffffffff1660009081526004602052604090205460ff1690565b61034e6107a3366004612f12565b61185b565b3480156107b457600080fd5b5061035f62278d0081565b3480156107cb57600080fd5b5061027f6107da366004612a29565b611a92565b3480156107eb57600080fd5b5061034e6107fa366004612a87565b611ae9565b6003546040517fced906b300000000000000000000000000000000000000000000000000000000815260009173ffffffffffffffffffffffffffffffffffffffff169063ced906b39061085690859060040161302e565b602060405180830381865afa158015610873573d6000803e3d6000fd5b505050506040513d601f19601f820116820180604052508101906108979190613157565b92915050565b6108a78282610e5b565b6040517fedbfa46a0000000000000000000000000000000000000000000000000000000081526004016108da9190612cca565b60405180910390fd5b6108eb611b4d565b6108f482611c51565b6108fe8282611c59565b5050565b600061090c611d97565b507f360894a13ba1a3210667c828492db98dca3e2076cc3735a920a3ca505d382bbc90565b610939611027565b73ffffffffffffffffffffffffffffffffffffffff163373ffffffffffffffffffffffffffffffffffffffff161461099d576040517f4ca8886700000000000000000000000000000000000000000000000000000000815260040160405180910390fd5b73ffffffffffffffffffffffffffffffffffffffff81166109ea576040517fe6c4247b00000000000000000000000000000000000000000000000000000000815260040160405180910390fd5b600380547fffffffffffffffffffffffff00000000000000000000000000000000000000001673ffffffffffffffffffffffffffffffffffffffff83169081179091556040517fc42198387755d1905bd3c5b3ed34925a52f21b418fa2f083c6f95932bb7615df90600090a250565b610a666020820182613170565b610a766040830160208401613170565b610a8b610a86608085018561318b565b611e06565b610a9484611a92565b60028054640100000000900460ff1614610ada576040517f1aed3fed00000000000000000000000000000000000000000000000000000000815260040160405180910390fd5b610ae48282613222565b341015610b1d576040517fbef7a4bc00000000000000000000000000000000000000000000000000000000815260040160405180910390fd5b610b278484611e47565b610b3460e086018661318b565b9050600003610b6f576040517f6eca2e4b00000000000000000000000000000000000000000000000000000000815260040160405180910390fd5b610b7c60e086018661318b565b9050610b8b60a087018761318b565b905003610bec57610b9b85611efe565b604051610ba89190613235565b60405180910390207f30663dee845b90a60f8a6ab79591632a642c173ba91bf42f30d72e7894a851f386604051610bdf91906133ea565b60405180910390a2610ce6565b6001610bfb60a087018761318b565b9050118015610c185750610c1260e086018661318b565b90506001145b15610c2657610b9b85611f18565b610c3360a086018661318b565b90506001148015610c5257506001610c4e60e087018761318b565b9050115b15610c9557610c6085611f2b565b63ffffffff167fcff4da636d037fd25ec9d40ad04218727c418b275d36d85ebf57f2052962f99186604051610bdf91906133ea565b610ca260a086018661318b565b9050600003610cb457610c6085611f78565b6040517f6eca2e4b00000000000000000000000000000000000000000000000000000000815260040160405180910390fd5b5050505050565b6000610cf7611027565b73ffffffffffffffffffffffffffffffffffffffff168260405160006040518083038185875af1925050503d8060008114610d4e576040519150601f19603f3d011682016040523d82523d6000602084013e610d53565b606091505b5050905080610d8e576040517fd477157400000000000000000000000000000000000000000000000000000000815260040160405180910390fd5b60405182907f7d8aac96811a5850be6542bb655a486c8a5e53ded4ede4a04a50542d5fbb834790600090a25050565b610dc5611027565b73ffffffffffffffffffffffffffffffffffffffff163373ffffffffffffffffffffffffffffffffffffffff1614610e29576040517f4ca8886700000000000000000000000000000000000000000000000000000000815260040160405180910390fd5b6040517fff94113200000000000000000000000000000000000000000000000000000000815260040160405180910390fd5b606060008267ffffffffffffffff811115610e7857610e78612b49565b604051908082528060200260200182016040528015610ea1578160200160208202803683370190505b50905060005b83811015610f0557610edb858583818110610ec457610ec4613539565b9050602002810190610ed69190613568565b611f94565b828281518110610eed57610eed613539565b91151560209283029190910190910152600101610ea7565b509392505050565b610f15611027565b73ffffffffffffffffffffffffffffffffffffffff163373ffffffffffffffffffffffffffffffffffffffff1614610f79576040517f4ca8886700000000000000000000000000000000000000000000000000000000815260040160405180910390fd5b8015610fb357600280547fffffffffffffffffffffffffffffffffffffffffffffffffffffff00ffffffff16640100000000179055610fe3565b600280547fffffffffffffffffffffffffffffffffffffffffffffffffffffff00ffffffff166402000000001790555b604051811515907fe1b0651480ab1796bad61735eb927e1f76e963b70868c9848f4ef24c2a36586290600090a250565b61101b6120ed565b611025600061217b565b565b60006110677f9016d09d72d40fdae2fd8ceac6b6234c7706214fd39c1cd1e609a0528c1993005473ffffffffffffffffffffffffffffffffffffffff1690565b905090565b600061107a60018484612211565b9392505050565b600061107a818484612211565b611096611027565b73ffffffffffffffffffffffffffffffffffffffff163373ffffffffffffffffffffffffffffffffffffffff16146110fa576040517f4ca8886700000000000000000000000000000000000000000000000000000000815260040160405180910390fd5b73ffffffffffffffffffffffffffffffffffffffff821660008181526004602090815260409182902080547fffffffffffffffffffffffffffffffffffffffffffffffffffffffffffffff001685151590811790915591519182527f8338f01d8cd6c8e1a0d79c0a27a46c8206945b5bdc431c90be0c09a60c26d863910160405180910390a25050565b60028054640100000000900460ff16146111ca576040517f1aed3fed00000000000000000000000000000000000000000000000000000000815260040160405180910390fd5b60025460ff6501000000000090910416600114611213576040517feb91229600000000000000000000000000000000000000000000000000000000815260040160405180910390fd5b600280547fffffffffffffffffffffffffffffffffffffffffffffffffffff00ffffffffff1665020000000000179055336000908152600460205260409020548490849060ff16611290576040517f4ca8886700000000000000000000000000000000000000000000000000000000815260040160405180910390fd5b60008267ffffffffffffffff161180156112b4575060008167ffffffffffffffff16115b80156112dc5750428267ffffffffffffffff1611806112dc5750428167ffffffffffffffff16105b15611313576040517f71dcf04900000000000000000000000000000000000000000000000000000000815260040160405180910390fd5b60005b838110156113905784848281811061133057611330613539565b905060600201604001357ffde9feca32d13cf616acebebf1cf35ceaa9da86954422c0126b25b731f3974e586868481811061136d5761136d613539565b90506060020160405161138091906135a6565b60405180910390a2600101611316565b5050600280547fffffffffffffffffffffffffffffffffffffffffffffffffffff00ffffffffff166501000000000017905550610ce6565b7ff0c57e16840df040f15088dc2f81fe391c3923bec73e23a9662efc9c229c6a00805468010000000000000000810460ff16159067ffffffffffffffff166000811580156114135750825b905060008267ffffffffffffffff1660011480156114305750303b155b90506114716040518060400160405280601081526020017f696e697469616c53657475703a2025730000000000000000000000000000000081525083612290565b6114b06040518060400160405280601081526020017f636f6e737472756374696f6e3a2025730000000000000000000000000000000081525082612290565b811580156114bc575080155b156114f3576040517ff92ee8a900000000000000000000000000000000000000000000000000000000815260040160405180910390fd5b84547fffffffffffffffffffffffffffffffffffffffffffffffff000000000000000016600117855583156115545784547fffffffffffffffffffffffffffffffffffffffffffffff00ffffffffffffffff16680100000000000000001785555b61155d86612321565b611565612332565b73ffffffffffffffffffffffffffffffffffffffff808916600090815260046020526040902080547fffffffffffffffffffffffffffffffffffffffffffffffffffffffffffffff0016600117905560028054650102000000007fffffffffffffffffffffffffffffffffffffffffffffffffffff0000ffffffff909116179055871661161e576040517fe6c4247b00000000000000000000000000000000000000000000000000000000815260040160405180910390fd5b600380547fffffffffffffffffffffffff00000000000000000000000000000000000000001673ffffffffffffffffffffffffffffffffffffffff89169081179091556040517fc42198387755d1905bd3c5b3ed34925a52f21b418fa2f083c6f95932bb7615df90600090a283156116eb5784547fffffffffffffffffffffffffffffffffffffffffffffff00ffffffffffffffff168555604051600181527fc7f505b2f371ae2175ee4913f4499e1f2633a7b5936321eed1cdaeb6115181d29060200160405180910390a15b5050505050505050565b6117026020820182613170565b6117126040830160208401613170565b8260800135611720846107ff565b60028054640100000000900460ff1614611766576040517f1aed3fed00000000000000000000000000000000000000000000000000000000815260040160405180910390fd5b6117708282613222565b3410156117a9576040517fbef7a4bc00000000000000000000000000000000000000000000000000000000815260040160405180910390fd5b6117b38484611e47565b6002805463ffffffff169060006117c9836135f6565b91906101000a81548163ffffffff021916908363ffffffff160217905550506118178560a00160208101906117fe9190613170565b61180e6080880160608901612a87565b6000919061233a565b63ffffffff167f52b7e0fedd73670798c718622a4af6054002609507aadc127e8a4c4e28164f2c8660405161184c919061302e565b60405180910390a25050505050565b60028054640100000000900460ff16146118a1576040517f1aed3fed00000000000000000000000000000000000000000000000000000000815260040160405180910390fd5b60025460ff65010000000000909104166001146118ea576040517feb91229600000000000000000000000000000000000000000000000000000000815260040160405180910390fd5b600280547fffffffffffffffffffffffffffffffffffffffffffffffffffff00ffffffffff1665020000000000179055336000908152600460205260409020548490849060ff16611967576040517f4ca8886700000000000000000000000000000000000000000000000000000000815260040160405180910390fd5b60008267ffffffffffffffff1611801561198b575060008167ffffffffffffffff16115b80156119b35750428267ffffffffffffffff1611806119b35750428167ffffffffffffffff16105b156119ea576040517f71dcf04900000000000000000000000000000000000000000000000000000000815260040160405180910390fd5b60005b8381101561139057611a0a858583818110610ec457610ec4613539565b50848482818110611a1d57611a1d613539565b9050602002810190611a2f9190613568565b357fcd0035f4a6d7a0d02dd86be3d93b47e877bdfc40306ed0574dcf75c2d8bb1831868684818110611a6357611a63613539565b9050602002810190611a759190613568565b604051611a829190613619565b60405180910390a26001016119ed565b6003546040517f63c60fb500000000000000000000000000000000000000000000000000000000815260009173ffffffffffffffffffffffffffffffffffffffff16906363c60fb5906108569085906004016133ea565b611af16120ed565b73ffffffffffffffffffffffffffffffffffffffff8116611b41576040517f1e4fbdf7000000000000000000000000000000000000000000000000000000008152600060048201526024016108da565b611b4a8161217b565b50565b3073ffffffffffffffffffffffffffffffffffffffff7f0000000000000000000000000000000000000000000000000000000000000000161480611c1a57507f000000000000000000000000000000000000000000000000000000000000000073ffffffffffffffffffffffffffffffffffffffff16611c017f360894a13ba1a3210667c828492db98dca3e2076cc3735a920a3ca505d382bbc5473ffffffffffffffffffffffffffffffffffffffff1690565b73ffffffffffffffffffffffffffffffffffffffff1614155b15611025576040517fe07c8dba00000000000000000000000000000000000000000000000000000000815260040160405180910390fd5b611b4a6120ed565b8173ffffffffffffffffffffffffffffffffffffffff166352d1902d6040518163ffffffff1660e01b8152600401602060405180830381865afa925050508015611cde575060408051601f3d9081017fffffffffffffffffffffffffffffffffffffffffffffffffffffffffffffffe0168201909252611cdb91810190613157565b60015b611d2c576040517f4c9c8ce300000000000000000000000000000000000000000000000000000000815273ffffffffffffffffffffffffffffffffffffffff831660048201526024016108da565b7f360894a13ba1a3210667c828492db98dca3e2076cc3735a920a3ca505d382bbc8114611d88576040517faa1d49a4000000000000000000000000000000000000000000000000000000008152600481018290526024016108da565b611d9283836123cb565b505050565b3073ffffffffffffffffffffffffffffffffffffffff7f00000000000000000000000000000000000000000000000000000000000000001614611025576040517fe07c8dba00000000000000000000000000000000000000000000000000000000815260040160405180910390fd5b6000805b82811015611e4057838382818110611e2457611e24613539565b9050602002013582611e369190613222565b9150600101611e0a565b5092915050565b60008267ffffffffffffffff16118015611e6b575060008167ffffffffffffffff16115b8015611ec75750611e7d60b442613222565b8267ffffffffffffffff161080611ea95750611e9c62278d0042613222565b8167ffffffffffffffff16115b80611ec757508167ffffffffffffffff168167ffffffffffffffff16105b156108fe576040517f7c40a65700000000000000000000000000000000000000000000000000000000815260040160405180910390fd5b606061089782611f1160e082018261318b565b905061242e565b606061089782611f1160a082018261318b565b600061089782611f3e60a082018261318b565b6000818110611f4f57611f4f613539565b9050602002016020810190611f649190613170565b611f7160e086018661318b565b90506124e6565b60006108978267ffffffffffffffff611f7160e083018361318b565b600080611fac611fa760c08501856136c2565b61250e565b90507ffe000000000000000000000000000000000000000000000000000000000000007fff000000000000000000000000000000000000000000000000000000000000008216016120555761201360a084013561200c60c08601866136c2565b9091612527565b50915081612050576040517f1f5328cc000000000000000000000000000000000000000000000000000000008152833560048201526024016108da565b6120e7565b6002546040517f8a5cb4ab000000000000000000000000000000000000000000000000000000008152660100000000000090910473ffffffffffffffffffffffffffffffffffffffff1690638a5cb4ab906120b4908690600401613619565b600060405180830381600087803b1580156120ce57600080fd5b505af11580156120e2573d6000803e3d6000fd5b505050505b50919050565b3361212c7f9016d09d72d40fdae2fd8ceac6b6234c7706214fd39c1cd1e609a0528c1993005473ffffffffffffffffffffffffffffffffffffffff1690565b73ffffffffffffffffffffffffffffffffffffffff1614611025576040517f118cdaa70000000000000000000000000000000000000000000000000000000081523360048201526024016108da565b7f9016d09d72d40fdae2fd8ceac6b6234c7706214fd39c1cd1e609a0528c19930080547fffffffffffffffffffffffff0000000000000000000000000000000000000000811673ffffffffffffffffffffffffffffffffffffffff848116918217845560405192169182907f8be0079c531659141344cd1fd0a4f28419497f9722a3daafe3b4186f6b6457e090600090a3505050565b6000836000612271858560405160200161225792919067ffffffffffffffff92909216825273ffffffffffffffffffffffffffffffffffffffff16602082015260400190565b604051602081830303815290604052805160209091012090565b815260208101919091526040016000205463ffffffff16949350505050565b6108fe82826040516024016122a6929190613727565b604080517fffffffffffffffffffffffffffffffffffffffffffffffffffffffffffffffe08184030181529190526020810180517bffffffffffffffffffffffffffffffffffffffffffffffffffffffff167fc3b5563500000000000000000000000000000000000000000000000000000000179052612579565b612329612582565b611b4a816125e9565b611025612582565b6000836000612380858560405160200161225792919067ffffffffffffffff92909216825273ffffffffffffffffffffffffffffffffffffffff16602082015260400190565b815260208101919091526040016000908120805463ffffffff16916123a4836135f6565b91906101000a81548163ffffffff021916908363ffffffff16021790555090509392505050565b6123d4826125f1565b60405173ffffffffffffffffffffffffffffffffffffffff8316907fbc7cd75a20ee27fd9adebab32041f755214dbc6bffa90cc0225b39da2e5c2d3b90600090a280511561242657611d9282826126c0565b6108fe612743565b606060008267ffffffffffffffff81111561244b5761244b612b49565b604051908082528060200260200182016040528015612474578160200160208202803683370190505b50905060005b83811015610f05576124b761249260a087018761318b565b838181106124a2576124a2613539565b90506020020160208101906117fe9190613170565b8282815181106124c9576124c9613539565b63ffffffff9092166020928302919091019091015260010161247a565b6000612506836124fc6080870160608801612a87565b600091908561277b565b949350505050565b60008061251e600182858761374b565b61250691613775565b60006060600080600061253a8888612811565b91945062ffffff169250905061256a73ffffffffffffffffffffffffffffffffffffffff84168388602085612899565b90999098509650505050505050565b611b4a81612924565b7ff0c57e16840df040f15088dc2f81fe391c3923bec73e23a9662efc9c229c6a005468010000000000000000900460ff16611025576040517fd7e6bcf800000000000000000000000000000000000000000000000000000000815260040160405180910390fd5b611af1612582565b8073ffffffffffffffffffffffffffffffffffffffff163b60000361265a576040517f4c9c8ce300000000000000000000000000000000000000000000000000000000815273ffffffffffffffffffffffffffffffffffffffff821660048201526024016108da565b7f360894a13ba1a3210667c828492db98dca3e2076cc3735a920a3ca505d382bbc80547fffffffffffffffffffffffff00000000000000000000000000000000000000001673ffffffffffffffffffffffffffffffffffffffff92909216919091179055565b60606000808473ffffffffffffffffffffffffffffffffffffffff16846040516126ea91906137bd565b600060405180830381855af49150503d8060008114612725576040519150601f19603f3d011682016040523d82523d6000602084013e61272a565b606091505b509150915061273a858383612945565b95945050505050565b3415611025576040517fb398979f00000000000000000000000000000000000000000000000000000000815260040160405180910390fd5b6000818560006127c2878760405160200161225792919067ffffffffffffffff92909216825273ffffffffffffffffffffffffffffffffffffffff16602082015260400190565b81526020810191909152604001600090812080549091906127ea90849063ffffffff166137cf565b92506101000a81548163ffffffff021916908363ffffffff16021790559050949350505050565b600080606061282460216001868861374b565b61282d916137ec565b925061283d60246021868861374b565b61284691613828565b60e81c9150612858846024818861374b565b8080601f0160208091040260200160405190810160405280939291908181526020018383808284376000920191909152509598949750919550929350505050565b6000606060008060008661ffff1667ffffffffffffffff8111156128bf576128bf612b49565b6040519080825280601f01601f1916602001820160405280156128e9576020820181803683370190505b5090506000808751602089018b8e8ef191503d92508683111561290a578692505b828152826000602083013e90999098509650505050505050565b60006a636f6e736f6c652e6c6f679050600080835160208501845afa505050565b60608261295a57612955826129d4565b61107a565b815115801561297e575073ffffffffffffffffffffffffffffffffffffffff84163b155b156129cd576040517f9996b31500000000000000000000000000000000000000000000000000000000815273ffffffffffffffffffffffffffffffffffffffff851660048201526024016108da565b508061107a565b8051156129e45780518082602001fd5b6040517f1425ea4200000000000000000000000000000000000000000000000000000000815260040160405180910390fd5b600061010082840312156120e757600080fd5b600060208284031215612a3b57600080fd5b813567ffffffffffffffff811115612a5257600080fd5b61250684828501612a16565b803573ffffffffffffffffffffffffffffffffffffffff81168114612a8257600080fd5b919050565b600060208284031215612a9957600080fd5b61107a82612a5e565b60008083601f840112612ab457600080fd5b50813567ffffffffffffffff811115612acc57600080fd5b6020830191508360208260051b8501011115612ae757600080fd5b9250929050565b60008060208385031215612b0157600080fd5b823567ffffffffffffffff811115612b1857600080fd5b612b2485828601612aa2565b90969095509350505050565b600060208284031215612b4257600080fd5b5035919050565b7f4e487b7100000000000000000000000000000000000000000000000000000000600052604160045260246000fd5b60008060408385031215612b8b57600080fd5b612b9483612a5e565b9150602083013567ffffffffffffffff80821115612bb157600080fd5b818501915085601f830112612bc557600080fd5b813581811115612bd757612bd7612b49565b604051601f82017fffffffffffffffffffffffffffffffffffffffffffffffffffffffffffffffe0908116603f01168101908382118183101715612c1d57612c1d612b49565b81604052828152886020848701011115612c3657600080fd5b8260208601602083013760006020848301015280955050505050509250929050565b60008060208385031215612c6b57600080fd5b823567ffffffffffffffff80821115612c8357600080fd5b818501915085601f830112612c9757600080fd5b813581811115612ca657600080fd5b866020828501011115612cb857600080fd5b60209290920196919550909350505050565b6020808252825182820181905260009190848201906040850190845b81811015612d04578351151583529284019291840191600101612ce6565b50909695505050505050565b80358015158114612a8257600080fd5b600060208284031215612d3257600080fd5b61107a82612d10565b803567ffffffffffffffff81168114612a8257600080fd5b60008060408385031215612d6657600080fd5b612d6f83612d3b565b9150612d7d60208401612a5e565b90509250929050565b60008060408385031215612d9957600080fd5b612da283612a5e565b9150612d7d60208401612d10565b60005b83811015612dcb578181015183820152602001612db3565b50506000910152565b60008151808452612dec816020860160208601612db0565b601f017fffffffffffffffffffffffffffffffffffffffffffffffffffffffffffffffe0169290920160200192915050565b60208152600061107a6020830184612dd4565b600080600080600060808688031215612e4957600080fd5b85359450612e5960208701612d3b565b9350612e6760408701612d3b565b9250606086013567ffffffffffffffff80821115612e8457600080fd5b818801915088601f830112612e9857600080fd5b813581811115612ea757600080fd5b896020606083028501011115612ebc57600080fd5b9699959850939650602001949392505050565b600080600060608486031215612ee457600080fd5b612eed84612a5e565b9250612efb60208501612a5e565b9150612f0960408501612a5e565b90509250925092565b600080600080600060808688031215612f2a57600080fd5b85359450612f3a60208701612d3b565b9350612f4860408701612d3b565b9250606086013567ffffffffffffffff811115612f6457600080fd5b612f7088828901612aa2565b969995985093965092949392505050565b60008083357fffffffffffffffffffffffffffffffffffffffffffffffffffffffffffffffe1843603018112612fb657600080fd5b830160208101925035905067ffffffffffffffff811115612fd657600080fd5b803603821315612ae757600080fd5b8183528181602085013750600060208284010152600060207fffffffffffffffffffffffffffffffffffffffffffffffffffffffffffffffe0601f840116840101905092915050565b6020815267ffffffffffffffff61304483612d3b565b166020820152600061305860208401612d3b565b67ffffffffffffffff811660408401525061307560408401612a5e565b73ffffffffffffffffffffffffffffffffffffffff811660608401525061309e60608401612a5e565b73ffffffffffffffffffffffffffffffffffffffff8116608084015250608083013560a08301526130d160a08401612d3b565b67ffffffffffffffff811660c0840152506130ef60c0840184612f81565b6101008060e086015261310761012086018385612fe5565b925061311660e0870187612f81565b92507fffffffffffffffffffffffffffffffffffffffffffffffffffffffffffffffe0868503018287015261314c848483612fe5565b979650505050505050565b60006020828403121561316957600080fd5b5051919050565b60006020828403121561318257600080fd5b61107a82612d3b565b60008083357fffffffffffffffffffffffffffffffffffffffffffffffffffffffffffffffe18436030181126131c057600080fd5b83018035915067ffffffffffffffff8211156131db57600080fd5b6020019150600581901b3603821315612ae757600080fd5b7f4e487b7100000000000000000000000000000000000000000000000000000000600052601160045260246000fd5b80820180821115610897576108976131f3565b815160009082906020808601845b8381101561326557815163ffffffff1685529382019390820190600101613243565b50929695505050505050565b60008083357fffffffffffffffffffffffffffffffffffffffffffffffffffffffffffffffe18436030181126132a657600080fd5b830160208101925035905067ffffffffffffffff8111156132c657600080fd5b8060051b3603821315612ae757600080fd5b81835260007f07ffffffffffffffffffffffffffffffffffffffffffffffffffffffffffffff83111561330a57600080fd5b8260051b80836020870137939093016020019392505050565b8183526000602080850194508260005b858110156133605767ffffffffffffffff61334d83612d3b565b1687529582019590820190600101613333565b509495945050505050565b6000838385526020808601955060208560051b8301018460005b878110156133dd577fffffffffffffffffffffffffffffffffffffffffffffffffffffffffffffffe08584030189526133be8288612f81565b6133c9858284612fe5565b9a86019a9450505090830190600101613385565b5090979650505050505050565b6020815261340c602082016133fe84612d3b565b67ffffffffffffffff169052565b600061341a60208401612d3b565b67ffffffffffffffff811660408401525061343760408401612a5e565b73ffffffffffffffffffffffffffffffffffffffff811660608401525061346060608401612a5e565b73ffffffffffffffffffffffffffffffffffffffff811660808401525061348a6080840184613271565b6101008060a08601526134a2610120860183856132d8565b92506134b160a0870187613271565b92507fffffffffffffffffffffffffffffffffffffffffffffffffffffffffffffffe0808786030160c08801526134e9858584613323565b94506134f860c0890189613271565b94509150808786030160e088015261351185858461336b565b945061352060e0890189613271565b945091508087860301838801525061314c84848361336b565b7f4e487b7100000000000000000000000000000000000000000000000000000000600052603260045260246000fd5b600082357fffffffffffffffffffffffffffffffffffffffffffffffffffffffffffffff2183360301811261359c57600080fd5b9190910192915050565b6060810167ffffffffffffffff6135bc84612d3b565b16825273ffffffffffffffffffffffffffffffffffffffff6135e060208501612a5e565b1660208301526040830135604083015292915050565b600063ffffffff80831681810361360f5761360f6131f3565b6001019392505050565b602081528135602082015267ffffffffffffffff61363960208401612d3b565b1660408201526000604083013562ffffff8116811461365757600080fd5b62ffffff81166060840152506060830135608083015261367960808401612a5e565b73ffffffffffffffffffffffffffffffffffffffff811660a08401525060a083013560c08301526136ad60c0840184612f81565b60e08085015261273a61010085018284612fe5565b60008083357fffffffffffffffffffffffffffffffffffffffffffffffffffffffffffffffe18436030181126136f757600080fd5b83018035915067ffffffffffffffff82111561371257600080fd5b602001915036819003821315612ae757600080fd5b60408152600061373a6040830185612dd4565b905082151560208301529392505050565b6000808585111561375b57600080fd5b8386111561376857600080fd5b5050820193919092039150565b7fff0000000000000000000000000000000000000000000000000000000000000081358181169160018510156137b55780818660010360031b1b83161692505b505092915050565b6000825161359c818460208701612db0565b63ffffffff818116838216019080821115611e4057611e406131f3565b80356020831015610897577fffffffffffffffffffffffffffffffffffffffffffffffffffffffffffffffff602084900360031b1b1692915050565b7fffffff000000000000000000000000000000000000000000000000000000000081358181169160038510156137b557600394850390941b84901b169092169291505056fea164736f6c6343000817000a",
  "linkReferences": {},
  "deployedLinkReferences": {}
}