{
  "_format": "hh-sol-artifact-1",
  "contractName": "MessageSpaceStationUg",
  "sourceName": "contracts/MessageSpaceStation.ugradable.sol",
  "abi": [
    {
      "inputs": [],
      "stateMutability": "nonpayable",
      "type": "constructor"
    },
    {
      "inputs": [],
      "name": "AccessDenied",
      "type": "error"
    },
    {
      "inputs": [
        {
          "internalType": "address",
          "name": "target",
          "type": "address"
        }
      ],
      "name": "AddressEmptyCode",
      "type": "error"
    },
    {
      "inputs": [],
      "name": "ArrivalTimeNotMakeSense",
      "type": "error"
    },
    {
      "inputs": [
        {
          "internalType": "address",
          "name": "implementation",
          "type": "address"
        }
      ],
      "name": "ERC1967InvalidImplementation",
      "type": "error"
    },
    {
      "inputs": [],
      "name": "ERC1967NonPayable",
      "type": "error"
    },
    {
      "inputs": [
        {
          "internalType": "bytes32",
          "name": "messageId",
          "type": "bytes32"
        }
      ],
      "name": "ExcuteError",
      "type": "error"
    },
    {
      "inputs": [],
      "name": "FailedInnerCall",
      "type": "error"
    },
    {
      "inputs": [],
      "name": "InvalidAddress",
      "type": "error"
    },
    {
      "inputs": [],
      "name": "InvalidInitialization",
      "type": "error"
    },
    {
      "inputs": [],
      "name": "InvalidMessage",
      "type": "error"
    },
    {
      "inputs": [],
      "name": "LandingPadOccupied",
      "type": "error"
    },
    {
      "inputs": [],
      "name": "NotImplement",
      "type": "error"
    },
    {
      "inputs": [],
      "name": "NotInitializing",
      "type": "error"
    },
    {
      "inputs": [
        {
          "internalType": "address",
          "name": "owner",
          "type": "address"
        }
      ],
      "name": "OwnableInvalidOwner",
      "type": "error"
    },
    {
      "inputs": [
        {
          "internalType": "address",
          "name": "account",
          "type": "address"
        }
      ],
      "name": "OwnableUnauthorizedAccount",
      "type": "error"
    },
    {
      "inputs": [
        {
          "internalType": "bool[]",
          "name": "results",
          "type": "bool[]"
        }
      ],
      "name": "SimulateResult",
      "type": "error"
    },
    {
      "inputs": [],
      "name": "StationPaused",
      "type": "error"
    },
    {
      "inputs": [],
      "name": "TimeNotReached",
      "type": "error"
    },
    {
      "inputs": [],
      "name": "UUPSUnauthorizedCallContext",
      "type": "error"
    },
    {
      "inputs": [
        {
          "internalType": "bytes32",
          "name": "slot",
          "type": "bytes32"
        }
      ],
      "name": "UUPSUnsupportedProxiableUUID",
      "type": "error"
    },
    {
      "inputs": [],
      "name": "ValueNotMatched",
      "type": "error"
    },
    {
      "inputs": [],
      "name": "WithdrawError",
      "type": "error"
    },
    {
      "anonymous": false,
      "inputs": [
        {
          "indexed": true,
          "internalType": "bool",
          "name": "isPause",
          "type": "bool"
        }
      ],
      "name": "EngineStatusRefreshing",
      "type": "event"
    },
    {
      "anonymous": false,
      "inputs": [
        {
          "indexed": false,
          "internalType": "uint64",
          "name": "version",
          "type": "uint64"
        }
      ],
      "name": "Initialized",
      "type": "event"
    },
    {
      "anonymous": false,
      "inputs": [
        {
          "indexed": true,
          "internalType": "address",
          "name": "previousOwner",
          "type": "address"
        },
        {
          "indexed": true,
          "internalType": "address",
          "name": "newOwner",
          "type": "address"
        }
      ],
      "name": "OwnershipTransferred",
      "type": "event"
    },
    {
      "anonymous": false,
      "inputs": [
        {
          "indexed": true,
          "internalType": "address",
          "name": "paymentSystemAddress",
          "type": "address"
        }
      ],
      "name": "PaymentSystemChanging",
      "type": "event"
    },
    {
      "anonymous": false,
      "inputs": [
        {
          "indexed": true,
          "internalType": "address",
          "name": "sequencerAddress",
          "type": "address"
        },
        {
          "indexed": false,
          "internalType": "bool",
          "name": "state",
          "type": "bool"
        }
      ],
      "name": "SequencerStatusChanging",
      "type": "event"
    },
    {
      "anonymous": false,
      "inputs": [
        {
          "indexed": true,
          "internalType": "bytes32",
          "name": "messageId",
          "type": "bytes32"
        },
        {
          "components": [
            {
              "internalType": "uint16",
              "name": "srcChainld",
              "type": "uint16"
            },
            {
              "internalType": "address",
              "name": "sender",
              "type": "address"
            },
            {
              "internalType": "bytes32",
              "name": "messgeId",
              "type": "bytes32"
            }
          ],
          "indexed": false,
          "internalType": "struct IMessageStruct.PostingLanding",
          "name": "params",
          "type": "tuple"
        }
      ],
      "name": "SuccessfulBatchLanding",
      "type": "event"
    },
    {
      "anonymous": false,
      "inputs": [
        {
          "indexed": true,
          "internalType": "bytes32",
          "name": "messageId",
          "type": "bytes32"
        },
        {
          "components": [
            {
              "internalType": "uint16",
              "name": "srcChainld",
              "type": "uint16"
            },
            {
              "internalType": "uint24",
              "name": "nonceLandingCurrent",
              "type": "uint24"
            },
            {
              "internalType": "address",
              "name": "sender",
              "type": "address"
            },
            {
              "internalType": "uint256",
              "name": "value",
              "type": "uint256"
            },
            {
              "internalType": "bytes32",
              "name": "messgeId",
              "type": "bytes32"
            },
            {
              "internalType": "bytes",
              "name": "message",
              "type": "bytes"
            }
          ],
          "indexed": false,
          "internalType": "struct IMessageStruct.InteractionLanding",
          "name": "params",
          "type": "tuple"
        }
      ],
      "name": "SuccessfulLanding",
      "type": "event"
    },
    {
      "anonymous": false,
      "inputs": [
        {
          "indexed": true,
          "internalType": "uint24",
          "name": "nonce",
          "type": "uint24"
        },
        {
          "components": [
            {
              "internalType": "uint64",
              "name": "earlistArrivalTimestamp",
              "type": "uint64"
            },
            {
              "internalType": "uint64",
              "name": "latestArrivalTimestamp",
              "type": "uint64"
            },
            {
              "internalType": "address",
              "name": "relayer",
              "type": "address"
            },
            {
              "internalType": "address",
              "name": "sender",
              "type": "address"
            },
            {
              "internalType": "uint256",
              "name": "value",
              "type": "uint256"
            },
            {
              "internalType": "uint16",
              "name": "destChainld",
              "type": "uint16"
            },
            {
              "internalType": "bytes",
              "name": "aditionParams",
              "type": "bytes"
            },
            {
              "internalType": "bytes",
              "name": "message",
              "type": "bytes"
            }
          ],
          "indexed": false,
          "internalType": "struct IMessageStruct.launchSingleMsgParams",
          "name": "params",
          "type": "tuple"
        }
      ],
      "name": "SuccessfulLaunchMessage",
      "type": "event"
    },
    {
      "anonymous": false,
      "inputs": [
        {
          "indexed": true,
          "internalType": "uint24[]",
          "name": "nonce",
          "type": "uint24[]"
        },
        {
          "components": [
            {
              "internalType": "uint64",
              "name": "earlistArrivalTimestamp",
              "type": "uint64"
            },
            {
              "internalType": "uint64",
              "name": "latestArrivalTimestamp",
              "type": "uint64"
            },
            {
              "internalType": "address",
              "name": "relayer",
              "type": "address"
            },
            {
              "internalType": "address",
              "name": "sender",
              "type": "address"
            },
            {
              "internalType": "uint256[]",
              "name": "value",
              "type": "uint256[]"
            },
            {
              "internalType": "uint16[]",
              "name": "destChainld",
              "type": "uint16[]"
            },
            {
              "internalType": "bytes[]",
              "name": "aditionParams",
              "type": "bytes[]"
            },
            {
              "internalType": "bytes[]",
              "name": "message",
              "type": "bytes[]"
            }
          ],
          "indexed": false,
          "internalType": "struct IMessageStruct.launchMultiMsgParams",
          "name": "params",
          "type": "tuple"
        }
      ],
      "name": "SuccessfulLaunchMessages",
      "type": "event"
    },
    {
      "anonymous": false,
      "inputs": [
        {
          "indexed": true,
          "internalType": "uint24",
          "name": "nonce",
          "type": "uint24"
        },
        {
          "components": [
            {
              "internalType": "uint64",
              "name": "earlistArrivalTimestamp",
              "type": "uint64"
            },
            {
              "internalType": "uint64",
              "name": "latestArrivalTimestamp",
              "type": "uint64"
            },
            {
              "internalType": "address",
              "name": "relayer",
              "type": "address"
            },
            {
              "internalType": "address",
              "name": "sender",
              "type": "address"
            },
            {
              "internalType": "uint256[]",
              "name": "value",
              "type": "uint256[]"
            },
            {
              "internalType": "uint16[]",
              "name": "destChainld",
              "type": "uint16[]"
            },
            {
              "internalType": "bytes[]",
              "name": "aditionParams",
              "type": "bytes[]"
            },
            {
              "internalType": "bytes[]",
              "name": "message",
              "type": "bytes[]"
            }
          ],
          "indexed": false,
          "internalType": "struct IMessageStruct.launchMultiMsgParams",
          "name": "params",
          "type": "tuple"
        }
      ],
      "name": "SuccessfulLaunchMessages2",
      "type": "event"
    },
    {
      "anonymous": false,
      "inputs": [
        {
          "indexed": true,
          "internalType": "address",
          "name": "implementation",
          "type": "address"
        }
      ],
      "name": "Upgraded",
      "type": "event"
    },
    {
      "anonymous": false,
      "inputs": [
        {
          "indexed": true,
          "internalType": "uint256",
          "name": "amount",
          "type": "uint256"
        }
      ],
      "name": "WithdrawRequest",
      "type": "event"
    },
    {
      "inputs": [],
      "name": "ChainId",
      "outputs": [
        {
          "internalType": "uint16",
          "name": "",
          "type": "uint16"
        }
      ],
      "stateMutability": "pure",
      "type": "function"
    },
    {
      "inputs": [
        {
          "internalType": "address",
          "name": "trustedRelayerAddr",
          "type": "address"
        },
        {
          "internalType": "bool",
          "name": "state",
          "type": "bool"
        }
      ],
      "name": "ConfigTrustedRelayer",
      "outputs": [],
      "stateMutability": "nonpayable",
      "type": "function"
    },
    {
      "inputs": [
        {
          "components": [
            {
              "internalType": "uint16",
              "name": "srcChainld",
              "type": "uint16"
            },
            {
              "internalType": "uint24",
              "name": "nonceLandingCurrent",
              "type": "uint24"
            },
            {
              "internalType": "address",
              "name": "sender",
              "type": "address"
            },
            {
              "internalType": "uint256",
              "name": "value",
              "type": "uint256"
            },
            {
              "internalType": "bytes32",
              "name": "messgeId",
              "type": "bytes32"
            },
            {
              "internalType": "bytes",
              "name": "message",
              "type": "bytes"
            }
          ],
          "internalType": "struct IMessageStruct.InteractionLanding[]",
          "name": "params",
          "type": "tuple[]"
        }
      ],
      "name": "EstimateExcuteGas",
      "outputs": [
        {
          "internalType": "bool[]",
          "name": "",
          "type": "bool[]"
        }
      ],
      "stateMutability": "nonpayable",
      "type": "function"
    },
    {
      "inputs": [
        {
          "components": [
            {
              "internalType": "uint64",
              "name": "earlistArrivalTimestamp",
              "type": "uint64"
            },
            {
              "internalType": "uint64",
              "name": "latestArrivalTimestamp",
              "type": "uint64"
            },
            {
              "internalType": "address",
              "name": "relayer",
              "type": "address"
            },
            {
              "internalType": "address",
              "name": "sender",
              "type": "address"
            },
            {
              "internalType": "uint256",
              "name": "value",
              "type": "uint256"
            },
            {
              "internalType": "uint16",
              "name": "destChainld",
              "type": "uint16"
            },
            {
              "internalType": "bytes",
              "name": "aditionParams",
              "type": "bytes"
            },
            {
              "internalType": "bytes",
              "name": "message",
              "type": "bytes"
            }
          ],
          "internalType": "struct IMessageStruct.launchSingleMsgParams",
          "name": "params",
          "type": "tuple"
        }
      ],
      "name": "EstimateFee",
      "outputs": [
        {
          "internalType": "uint256",
          "name": "",
          "type": "uint256"
        }
      ],
      "stateMutability": "view",
      "type": "function"
    },
    {
      "inputs": [
        {
          "components": [
            {
              "internalType": "uint64",
              "name": "earlistArrivalTimestamp",
              "type": "uint64"
            },
            {
              "internalType": "uint64",
              "name": "latestArrivalTimestamp",
              "type": "uint64"
            },
            {
              "internalType": "address",
              "name": "relayer",
              "type": "address"
            },
            {
              "internalType": "address",
              "name": "sender",
              "type": "address"
            },
            {
              "internalType": "uint256[]",
              "name": "value",
              "type": "uint256[]"
            },
            {
              "internalType": "uint16[]",
              "name": "destChainld",
              "type": "uint16[]"
            },
            {
              "internalType": "bytes[]",
              "name": "aditionParams",
              "type": "bytes[]"
            },
            {
              "internalType": "bytes[]",
              "name": "message",
              "type": "bytes[]"
            }
          ],
          "internalType": "struct IMessageStruct.launchMultiMsgParams",
          "name": "params",
          "type": "tuple"
        }
      ],
      "name": "EstimateFee",
      "outputs": [
        {
          "internalType": "uint256",
          "name": "",
          "type": "uint256"
        }
      ],
      "stateMutability": "view",
      "type": "function"
    },
    {
      "inputs": [],
      "name": "ExpertLandingHandler",
      "outputs": [
        {
          "internalType": "contract IExpertLandingHandler",
          "name": "",
          "type": "address"
        }
      ],
      "stateMutability": "view",
      "type": "function"
    },
    {
      "inputs": [
        {
          "internalType": "uint16",
          "name": "chainId",
          "type": "uint16"
        },
        {
          "internalType": "address",
          "name": "sender",
          "type": "address"
        }
      ],
      "name": "GetNonceLanding",
      "outputs": [
        {
          "internalType": "uint24",
          "name": "",
          "type": "uint24"
        }
      ],
      "stateMutability": "view",
      "type": "function"
    },
    {
      "inputs": [
        {
          "internalType": "uint16",
          "name": "chainId",
          "type": "uint16"
        },
        {
          "internalType": "address",
          "name": "sender",
          "type": "address"
        }
      ],
      "name": "GetNonceLaunch",
      "outputs": [
        {
          "internalType": "uint24",
          "name": "",
          "type": "uint24"
        }
      ],
      "stateMutability": "view",
      "type": "function"
    },
    {
      "inputs": [
        {
          "internalType": "bytes32",
          "name": "mptRootNew",
          "type": "bytes32"
        },
        {
          "internalType": "uint64",
          "name": "aggregatedEarlistArrivalTimestamp",
          "type": "uint64"
        },
        {
          "internalType": "uint64",
          "name": "aggregatedLatestArrivalTimestamp",
          "type": "uint64"
        },
        {
          "components": [
            {
              "internalType": "uint16",
              "name": "srcChainld",
              "type": "uint16"
            },
            {
              "internalType": "address",
              "name": "sender",
              "type": "address"
            },
            {
              "internalType": "bytes32",
              "name": "messgeId",
              "type": "bytes32"
            }
          ],
          "internalType": "struct IMessageStruct.PostingLanding[]",
          "name": "params",
          "type": "tuple[]"
        }
      ],
      "name": "Landing",
      "outputs": [],
      "stateMutability": "nonpayable",
      "type": "function"
    },
    {
      "inputs": [
        {
          "internalType": "bytes32",
          "name": "mptRootNew",
          "type": "bytes32"
        },
        {
          "internalType": "uint64",
          "name": "aggregatedEarlistArrivalTimestamp",
          "type": "uint64"
        },
        {
          "internalType": "uint64",
          "name": "aggregatedLatestArrivalTimestamp",
          "type": "uint64"
        },
        {
          "components": [
            {
              "internalType": "uint16",
              "name": "srcChainld",
              "type": "uint16"
            },
            {
              "internalType": "uint24",
              "name": "nonceLandingCurrent",
              "type": "uint24"
            },
            {
              "internalType": "address",
              "name": "sender",
              "type": "address"
            },
            {
              "internalType": "uint256",
              "name": "value",
              "type": "uint256"
            },
            {
              "internalType": "bytes32",
              "name": "messgeId",
              "type": "bytes32"
            },
            {
              "internalType": "bytes",
              "name": "message",
              "type": "bytes"
            }
          ],
          "internalType": "struct IMessageStruct.InteractionLanding[]",
          "name": "params",
          "type": "tuple[]"
        }
      ],
      "name": "Landing",
      "outputs": [],
      "stateMutability": "payable",
      "type": "function"
    },
    {
      "inputs": [
        {
          "components": [
            {
              "internalType": "uint64",
              "name": "earlistArrivalTimestamp",
              "type": "uint64"
            },
            {
              "internalType": "uint64",
              "name": "latestArrivalTimestamp",
              "type": "uint64"
            },
            {
              "internalType": "address",
              "name": "relayer",
              "type": "address"
            },
            {
              "internalType": "address",
              "name": "sender",
              "type": "address"
            },
            {
              "internalType": "uint256",
              "name": "value",
              "type": "uint256"
            },
            {
              "internalType": "uint16",
              "name": "destChainld",
              "type": "uint16"
            },
            {
              "internalType": "bytes",
              "name": "aditionParams",
              "type": "bytes"
            },
            {
              "internalType": "bytes",
              "name": "message",
              "type": "bytes"
            }
          ],
          "internalType": "struct IMessageStruct.launchSingleMsgParams",
          "name": "params",
          "type": "tuple"
        }
      ],
      "name": "Launch",
      "outputs": [],
      "stateMutability": "payable",
      "type": "function"
    },
    {
      "inputs": [
        {
          "components": [
            {
              "internalType": "uint64",
              "name": "earlistArrivalTimestamp",
              "type": "uint64"
            },
            {
              "internalType": "uint64",
              "name": "latestArrivalTimestamp",
              "type": "uint64"
            },
            {
              "internalType": "address",
              "name": "relayer",
              "type": "address"
            },
            {
              "internalType": "address",
              "name": "sender",
              "type": "address"
            },
            {
              "internalType": "uint256[]",
              "name": "value",
              "type": "uint256[]"
            },
            {
              "internalType": "uint16[]",
              "name": "destChainld",
              "type": "uint16[]"
            },
            {
              "internalType": "bytes[]",
              "name": "aditionParams",
              "type": "bytes[]"
            },
            {
              "internalType": "bytes[]",
              "name": "message",
              "type": "bytes[]"
            }
          ],
          "internalType": "struct IMessageStruct.launchMultiMsgParams",
          "name": "params",
          "type": "tuple"
        }
      ],
      "name": "Launch",
      "outputs": [],
      "stateMutability": "payable",
      "type": "function"
    },
    {
      "inputs": [],
      "name": "Manager",
      "outputs": [
        {
          "internalType": "address",
          "name": "",
          "type": "address"
        }
      ],
      "stateMutability": "view",
      "type": "function"
    },
    {
      "inputs": [
        {
          "internalType": "bool",
          "name": "stop",
          "type": "bool"
        }
      ],
      "name": "PauseEngine",
      "outputs": [],
      "stateMutability": "nonpayable",
      "type": "function"
    },
    {
      "inputs": [
        {
          "internalType": "address",
          "name": "paymentSystemAddress",
          "type": "address"
        }
      ],
      "name": "SetPaymentSystem",
      "outputs": [],
      "stateMutability": "nonpayable",
      "type": "function"
    },
    {
      "inputs": [
        {
          "components": [
            {
              "internalType": "uint16",
              "name": "srcChainld",
              "type": "uint16"
            },
            {
              "internalType": "uint24",
              "name": "nonceLandingCurrent",
              "type": "uint24"
            },
            {
              "internalType": "address",
              "name": "sender",
              "type": "address"
            },
            {
              "internalType": "uint256",
              "name": "value",
              "type": "uint256"
            },
            {
              "internalType": "bytes32",
              "name": "messgeId",
              "type": "bytes32"
            },
            {
              "internalType": "bytes",
              "name": "message",
              "type": "bytes"
            }
          ],
          "internalType": "struct IMessageStruct.InteractionLanding[]",
          "name": "params",
          "type": "tuple[]"
        }
      ],
      "name": "SimulateLanding",
      "outputs": [],
      "stateMutability": "nonpayable",
      "type": "function"
    },
    {
      "inputs": [
        {
          "internalType": "address",
          "name": "",
          "type": "address"
        }
      ],
      "name": "TrustedRelayer",
      "outputs": [
        {
          "internalType": "bool",
          "name": "",
          "type": "bool"
        }
      ],
      "stateMutability": "view",
      "type": "function"
    },
    {
      "inputs": [],
      "name": "UPGRADE_INTERFACE_VERSION",
      "outputs": [
        {
          "internalType": "string",
          "name": "",
          "type": "string"
        }
      ],
      "stateMutability": "view",
      "type": "function"
    },
    {
      "inputs": [],
      "name": "Version",
      "outputs": [
        {
          "internalType": "string",
          "name": "",
          "type": "string"
        }
      ],
      "stateMutability": "view",
      "type": "function"
    },
    {
      "inputs": [
        {
          "internalType": "uint256",
          "name": "amount",
          "type": "uint256"
        }
      ],
      "name": "Withdraw",
      "outputs": [],
      "stateMutability": "nonpayable",
      "type": "function"
    },
    {
      "inputs": [],
      "name": "deployChainId",
      "outputs": [
        {
          "internalType": "uint16",
          "name": "",
          "type": "uint16"
        }
      ],
      "stateMutability": "view",
      "type": "function"
    },
    {
      "inputs": [
        {
          "internalType": "address",
          "name": "trustedRelayerAddr",
          "type": "address"
        },
        {
          "internalType": "address",
          "name": "paymentSystemAddr",
          "type": "address"
        },
        {
          "internalType": "address",
          "name": "_owner",
          "type": "address"
        }
      ],
      "name": "initialize",
      "outputs": [],
      "stateMutability": "nonpayable",
      "type": "function"
    },
    {
      "inputs": [],
      "name": "isLanding",
      "outputs": [
        {
          "internalType": "uint8",
          "name": "",
          "type": "uint8"
        }
      ],
      "stateMutability": "view",
      "type": "function"
    },
    {
      "inputs": [],
      "name": "isPaused",
      "outputs": [
        {
          "internalType": "uint8",
          "name": "",
          "type": "uint8"
        }
      ],
      "stateMutability": "view",
      "type": "function"
    },
    {
      "inputs": [
        {
          "internalType": "address",
          "name": "addr",
          "type": "address"
        }
      ],
      "name": "isTrustedRelayer",
      "outputs": [
        {
          "internalType": "bool",
          "name": "",
          "type": "bool"
        }
      ],
      "stateMutability": "view",
      "type": "function"
    },
    {
      "inputs": [],
      "name": "maxArrivalTime",
      "outputs": [
        {
          "internalType": "uint64",
          "name": "",
          "type": "uint64"
        }
      ],
      "stateMutability": "view",
      "type": "function"
    },
    {
      "inputs": [],
      "name": "minArrivalTime",
      "outputs": [
        {
          "internalType": "uint64",
          "name": "",
          "type": "uint64"
        }
      ],
      "stateMutability": "view",
      "type": "function"
    },
    {
      "inputs": [],
      "name": "nonce",
      "outputs": [
        {
          "internalType": "uint32",
          "name": "",
          "type": "uint32"
        }
      ],
      "stateMutability": "view",
      "type": "function"
    },
    {
      "inputs": [
        {
          "internalType": "bytes32",
          "name": "",
          "type": "bytes32"
        }
      ],
      "name": "nonceLanding",
      "outputs": [
        {
          "internalType": "uint24",
          "name": "",
          "type": "uint24"
        }
      ],
      "stateMutability": "view",
      "type": "function"
    },
    {
      "inputs": [
        {
          "internalType": "bytes32",
          "name": "",
          "type": "bytes32"
        }
      ],
      "name": "nonceLaunch",
      "outputs": [
        {
          "internalType": "uint24",
          "name": "",
          "type": "uint24"
        }
      ],
      "stateMutability": "view",
      "type": "function"
    },
    {
      "inputs": [],
      "name": "owner",
      "outputs": [
        {
          "internalType": "address",
          "name": "",
          "type": "address"
        }
      ],
      "stateMutability": "view",
      "type": "function"
    },
    {
      "inputs": [],
      "name": "paymentSystem",
      "outputs": [
        {
          "internalType": "contract IMessagePaymentSystem",
          "name": "",
          "type": "address"
        }
      ],
      "stateMutability": "view",
      "type": "function"
    },
    {
      "inputs": [],
      "name": "proxiableUUID",
      "outputs": [
        {
          "internalType": "bytes32",
          "name": "",
          "type": "bytes32"
        }
      ],
      "stateMutability": "view",
      "type": "function"
    },
    {
      "inputs": [],
      "name": "renounceOwnership",
      "outputs": [],
      "stateMutability": "nonpayable",
      "type": "function"
    },
    {
      "inputs": [
        {
          "internalType": "bytes",
          "name": "config",
          "type": "bytes"
        }
      ],
      "name": "setConfiguration",
      "outputs": [],
      "stateMutability": "view",
      "type": "function"
    },
    {
      "inputs": [
        {
          "internalType": "address",
          "name": "newOwner",
          "type": "address"
        }
      ],
      "name": "transferOwnership",
      "outputs": [],
      "stateMutability": "nonpayable",
      "type": "function"
    },
    {
      "inputs": [
        {
          "internalType": "address",
          "name": "newImplementation",
          "type": "address"
        },
        {
          "internalType": "bytes",
          "name": "data",
          "type": "bytes"
        }
      ],
      "name": "upgradeToAndCall",
      "outputs": [],
      "stateMutability": "payable",
      "type": "function"
    },
    {
      "stateMutability": "payable",
      "type": "receive"
    }
  ],
  "bytecode": "0x60a0604052306080523480156200001557600080fd5b506200002062000026565b620000da565b7ff0c57e16840df040f15088dc2f81fe391c3923bec73e23a9662efc9c229c6a00805468010000000000000000900460ff1615620000775760405163f92ee8a960e01b815260040160405180910390fd5b80546001600160401b0390811614620000d75780546001600160401b0319166001600160401b0390811782556040519081527fc7f505b2f371ae2175ee4913f4499e1f2633a7b5936321eed1cdaeb6115181d29060200160405180910390a15b50565b6080516138726200010460003960008181611d1601528181611d3f0152611f6001526138726000f3fe60806040526004361061026e5760003560e01c806378357e5311610153578063baee4cee116100cb578063d48eb1481161007f578063de8aeda011610064578063de8aeda0146107fe578063e9c1dd5114610815578063f2fde38b1461083557600080fd5b8063d48eb148146107d8578063dbda6ad9146107eb57600080fd5b8063beb931e0116100b0578063beb931e014610751578063c0c53b8b14610772578063cde86f381461079257600080fd5b8063baee4cee146106e8578063bb62860d1461070857600080fd5b80639de0049411610122578063ad3cb1cc11610107578063ad3cb1cc14610632578063affed0e014610688578063b187bd26146106ba57600080fd5b80639de00494146105e55780639df40f5a1461060557600080fd5b806378357e53146105515780638da5cb5b146105665780639574d6dc146105b05780639b1762d9146105d057600080fd5b80634f1ef286116101e65780635ad3ad06116101b55780635ca6d9d81161019a5780635ca6d9d8146104fc5780636c86f4771461051c578063715018a61461053c57600080fd5b80635ad3ad06146104ae5780635b6b431d146104dc57600080fd5b80634f1ef2861461042657806352d1902d1461043957806354fb60b81461045c57806357a1397b1461048e57600080fd5b80632386512a1161023d578063354ae29511610222578063354ae295146103a45780633596f3d6146103c75780633e141d74146103f457600080fd5b80632386512a146103645780632dc83fce1461038457600080fd5b8063012c22c41461027a578063113f182f1461028f5780631a8a6524146102d45780631ef35f0b1461030857600080fd5b3661027557005b600080fd5b61028d610288366004612a06565b610855565b005b34801561029b57600080fd5b506102bf6102aa366004612a64565b60046020526000908152604090205460ff1681565b60405190151581526020015b60405180910390f35b3480156102e057600080fd5b506102f46102ef366004612a91565b6109ba565b60405162ffffff90911681526020016102cb565b34801561031457600080fd5b5060025461033f906601000000000000900473ffffffffffffffffffffffffffffffffffffffff1681565b60405173ffffffffffffffffffffffffffffffffffffffff90911681526020016102cb565b34801561037057600080fd5b506102f461037f366004612a91565b6109d1565b34801561039057600080fd5b5061028d61039f366004612b10565b6109de565b3480156103b057600080fd5b5060025b60405161ffff90911681526020016102cb565b3480156103d357600080fd5b5060035461033f9073ffffffffffffffffffffffffffffffffffffffff1681565b34801561040057600080fd5b506102f461040f366004612b52565b60016020526000908152604090205462ffffff1681565b61028d610434366004612b9a565b610a24565b34801561044557600080fd5b5061044e610a43565b6040519081526020016102cb565b34801561046857600080fd5b506102f4610477366004612b52565b60006020819052908152604090205462ffffff1681565b34801561049a57600080fd5b5061028d6104a9366004612a64565b610a72565b3480156104ba57600080fd5b506104c360b481565b60405167ffffffffffffffff90911681526020016102cb565b3480156104e857600080fd5b5061028d6104f7366004612b52565b610b9a565b34801561050857600080fd5b5061028d610517366004612c7a565b610c6a565b34801561052857600080fd5b5061028d610537366004612cfc565b610d08565b34801561054857600080fd5b5061028d610e0e565b34801561055d57600080fd5b5061033f610e22565b34801561057257600080fd5b507f9016d09d72d40fdae2fd8ceac6b6234c7706214fd39c1cd1e609a0528c1993005473ffffffffffffffffffffffffffffffffffffffff1661033f565b3480156105bc57600080fd5b5061028d6105cb366004612d2f565b610e67565b3480156105dc57600080fd5b506103b4600281565b3480156105f157600080fd5b5061028d610600366004612dcd565b611083565b34801561061157600080fd5b50610625610620366004612b10565b611179565b6040516102cb9190612df7565b34801561063e57600080fd5b5061067b6040518060400160405280600581526020017f352e302e3000000000000000000000000000000000000000000000000000000081525081565b6040516102cb9190612eab565b34801561069457600080fd5b506002546106a59063ffffffff1681565b60405163ffffffff90911681526020016102cb565b3480156106c657600080fd5b50600254640100000000900460ff165b60405160ff90911681526020016102cb565b3480156106f457600080fd5b5061044e610703366004612a06565b61122b565b34801561071457600080fd5b5061067b6040518060400160405280600681526020017f76312e302e30000000000000000000000000000000000000000000000000000081525081565b34801561075d57600080fd5b5060025465010000000000900460ff166106d6565b34801561077e57600080fd5b5061028d61078d366004612ebe565b6112c3565b34801561079e57600080fd5b506102bf6107ad366004612a64565b73ffffffffffffffffffffffffffffffffffffffff1660009081526004602052604090205460ff1690565b61028d6107e6366004612f01565b6115f0565b61028d6107f9366004612a06565b6117ff565b34801561080a57600080fd5b506104c362278d0081565b34801561082157600080fd5b5061044e610830366004612a06565b611a8b565b34801561084157600080fd5b5061028d610850366004612a64565b611ae2565b6108626020820182612f70565b6108726040830160208401612f70565b82608001356108808461122b565b60028054640100000000900460ff16146108c6576040517f1aed3fed00000000000000000000000000000000000000000000000000000000815260040160405180910390fd5b6108d08282612fba565b341015610909576040517fbef7a4bc00000000000000000000000000000000000000000000000000000000815260040160405180910390fd5b6109138484611b46565b6002805463ffffffff1690600061092983612fcd565b91906101000a81548163ffffffff021916908363ffffffff160217905550506109778560a001602081019061095e9190612ff0565b61096e6080880160608901612a64565b60009190611bfd565b62ffffff167f9a011eee2d5247e7b60b00c50ec332931aafb57101c82598f61b3ce804e5808e866040516109ab91906130b8565b60405180910390a25050505050565b60006109c860018484611ca0565b90505b92915050565b60006109c8818484611ca0565b6109e88282611179565b6040517fedbfa46a000000000000000000000000000000000000000000000000000000008152600401610a1b9190612df7565b60405180910390fd5b610a2c611cfe565b610a3582611e02565b610a3f8282611e0a565b5050565b6000610a4d611f48565b507f360894a13ba1a3210667c828492db98dca3e2076cc3735a920a3ca505d382bbc90565b610a7a610e22565b73ffffffffffffffffffffffffffffffffffffffff163373ffffffffffffffffffffffffffffffffffffffff1614610ade576040517f4ca8886700000000000000000000000000000000000000000000000000000000815260040160405180910390fd5b73ffffffffffffffffffffffffffffffffffffffff8116610b2b576040517fe6c4247b00000000000000000000000000000000000000000000000000000000815260040160405180910390fd5b600380547fffffffffffffffffffffffff00000000000000000000000000000000000000001673ffffffffffffffffffffffffffffffffffffffff83169081179091556040517fc42198387755d1905bd3c5b3ed34925a52f21b418fa2f083c6f95932bb7615df90600090a250565b6000610ba4610e22565b73ffffffffffffffffffffffffffffffffffffffff168260405160006040518083038185875af1925050503d8060008114610bfb576040519150601f19603f3d011682016040523d82523d6000602084013e610c00565b606091505b5050905080610c3b576040517fd477157400000000000000000000000000000000000000000000000000000000815260040160405180910390fd5b60405182907f7d8aac96811a5850be6542bb655a486c8a5e53ded4ede4a04a50542d5fbb834790600090a25050565b610c72610e22565b73ffffffffffffffffffffffffffffffffffffffff163373ffffffffffffffffffffffffffffffffffffffff1614610cd6576040517f4ca8886700000000000000000000000000000000000000000000000000000000815260040160405180910390fd5b6040517fff94113200000000000000000000000000000000000000000000000000000000815260040160405180910390fd5b610d10610e22565b73ffffffffffffffffffffffffffffffffffffffff163373ffffffffffffffffffffffffffffffffffffffff1614610d74576040517f4ca8886700000000000000000000000000000000000000000000000000000000815260040160405180910390fd5b8015610dae57600280547fffffffffffffffffffffffffffffffffffffffffffffffffffffff00ffffffff16640100000000179055610dde565b600280547fffffffffffffffffffffffffffffffffffffffffffffffffffffff00ffffffff166402000000001790555b604051811515907fe1b0651480ab1796bad61735eb927e1f76e963b70868c9848f4ef24c2a36586290600090a250565b610e16611fb7565b610e206000612045565b565b6000610e627f9016d09d72d40fdae2fd8ceac6b6234c7706214fd39c1cd1e609a0528c1993005473ffffffffffffffffffffffffffffffffffffffff1690565b905090565b60028054640100000000900460ff1614610ead576040517f1aed3fed00000000000000000000000000000000000000000000000000000000815260040160405180910390fd5b60025460ff6501000000000090910416600114610ef6576040517feb91229600000000000000000000000000000000000000000000000000000000815260040160405180910390fd5b600280547fffffffffffffffffffffffffffffffffffffffffffffffffffff00ffffffffff1665020000000000179055336000908152600460205260409020548490849060ff16610f73576040517f4ca8886700000000000000000000000000000000000000000000000000000000815260040160405180910390fd5b428267ffffffffffffffff161180610f945750428167ffffffffffffffff16105b15610fcb576040517f71dcf04900000000000000000000000000000000000000000000000000000000815260040160405180910390fd5b60005b8381101561104857848482818110610fe857610fe86131db565b905060600201604001357ff12efb46f79f2d0af956a44e54b35dc59c06849d38675b0c07ba1afa8c4205ac868684818110611025576110256131db565b905060600201604051611038919061320a565b60405180910390a2600101610fce565b5050600280547fffffffffffffffffffffffffffffffffffffffffffffffffffff00ffffffffff1665010000000000179055505b5050505050565b61108b610e22565b73ffffffffffffffffffffffffffffffffffffffff163373ffffffffffffffffffffffffffffffffffffffff16146110ef576040517f4ca8886700000000000000000000000000000000000000000000000000000000815260040160405180910390fd5b73ffffffffffffffffffffffffffffffffffffffff821660008181526004602090815260409182902080547fffffffffffffffffffffffffffffffffffffffffffffffffffffffffffffff001685151590811790915591519182527f8338f01d8cd6c8e1a0d79c0a27a46c8206945b5bdc431c90be0c09a60c26d863910160405180910390a25050565b606060008267ffffffffffffffff81111561119657611196612b6b565b6040519080825280602002602001820160405280156111bf578160200160208202803683370190505b50905060005b83811015611223576111f98585838181106111e2576111e26131db565b90506020028101906111f49190613254565b6120db565b82828151811061120b5761120b6131db565b911515602092830291909101909101526001016111c5565b509392505050565b6003546040517f6fc6e4d900000000000000000000000000000000000000000000000000000000815260009173ffffffffffffffffffffffffffffffffffffffff1690636fc6e4d9906112829085906004016130b8565b602060405180830381865afa15801561129f573d6000803e3d6000fd5b505050506040513d601f19601f820116820180604052508101906109cb9190613292565b7ff0c57e16840df040f15088dc2f81fe391c3923bec73e23a9662efc9c229c6a00805468010000000000000000810460ff16159067ffffffffffffffff1660008115801561130e5750825b905060008267ffffffffffffffff16600114801561132b5750303b155b905061136c6040518060400160405280601081526020017f696e697469616c53657475703a2025730000000000000000000000000000000081525083612237565b6113ab6040518060400160405280601081526020017f636f6e737472756374696f6e3a2025730000000000000000000000000000000081525082612237565b811580156113b7575080155b156113ee576040517ff92ee8a900000000000000000000000000000000000000000000000000000000815260040160405180910390fd5b84547fffffffffffffffffffffffffffffffffffffffffffffffff0000000000000000166001178555831561144f5784547fffffffffffffffffffffffffffffffffffffffffffffff00ffffffffffffffff16680100000000000000001785555b611458866122c8565b6114606122d9565b73ffffffffffffffffffffffffffffffffffffffff808916600090815260046020526040902080547fffffffffffffffffffffffffffffffffffffffffffffffffffffffffffffff0016600117905560028054650102000000007fffffffffffffffffffffffffffffffffffffffffffffffffffff0000ffffffff9091161790558716611519576040517fe6c4247b00000000000000000000000000000000000000000000000000000000815260040160405180910390fd5b600380547fffffffffffffffffffffffff00000000000000000000000000000000000000001673ffffffffffffffffffffffffffffffffffffffff89169081179091556040517fc42198387755d1905bd3c5b3ed34925a52f21b418fa2f083c6f95932bb7615df90600090a283156115e65784547fffffffffffffffffffffffffffffffffffffffffffffff00ffffffffffffffff168555604051600181527fc7f505b2f371ae2175ee4913f4499e1f2633a7b5936321eed1cdaeb6115181d29060200160405180910390a15b5050505050505050565b60028054640100000000900460ff1614611636576040517f1aed3fed00000000000000000000000000000000000000000000000000000000815260040160405180910390fd5b60025460ff650100000000009091041660011461167f576040517feb91229600000000000000000000000000000000000000000000000000000000815260040160405180910390fd5b600280547fffffffffffffffffffffffffffffffffffffffffffffffffffff00ffffffffff1665020000000000179055336000908152600460205260409020548490849060ff166116fc576040517f4ca8886700000000000000000000000000000000000000000000000000000000815260040160405180910390fd5b428267ffffffffffffffff16118061171d5750428167ffffffffffffffff16105b15611754576040517f71dcf04900000000000000000000000000000000000000000000000000000000815260040160405180910390fd5b60005b83811015611048576117748585838181106111e2576111e26131db565b50848482818110611787576117876131db565b90506020028101906117999190613254565b608001357f05ef1cb7d36c282e73dec116d15b81bb7d7ab3fc0aba9c33a9c88b887fb7ae4d8686848181106117d0576117d06131db565b90506020028101906117e29190613254565b6040516117ef91906132ab565b60405180910390a2600101611757565b61180c6020820182612f70565b61181c6040830160208401612f70565b61183161182c608085018561333e565b6122e1565b61183a84611a8b565b60028054640100000000900460ff1614611880576040517f1aed3fed00000000000000000000000000000000000000000000000000000000815260040160405180910390fd5b61188a8282612fba565b3410156118c3576040517fbef7a4bc00000000000000000000000000000000000000000000000000000000815260040160405180910390fd5b6118cd8484611b46565b6118da60e086018661333e565b9050600003611915576040517f6eca2e4b00000000000000000000000000000000000000000000000000000000815260040160405180910390fd5b61192260e086018661333e565b905061193160a087018761333e565b9050036119925761194185612322565b60405161194e91906133a6565b60405180910390207fbc365d311c6c2f1351ccfbf74f6059d823d42d7a6845cac551bb29a190414665866040516119859190613554565b60405180910390a261107c565b60016119a160a087018761333e565b90501180156119be57506119b860e086018661333e565b90506001145b156119cc576119418561233c565b6119d960a086018661333e565b905060011480156119f8575060016119f460e087018761333e565b9050115b15611a3a57611a068561234f565b62ffffff167ff508b5f5070460912ffa9a2c4f2425abdc5a95a47027e4aaaeefd8e9bb760142866040516119859190613554565b611a4760a086018661333e565b9050600003611a5957611a068561239c565b6040517f6eca2e4b00000000000000000000000000000000000000000000000000000000815260040160405180910390fd5b6003546040517f655f0db900000000000000000000000000000000000000000000000000000000815260009173ffffffffffffffffffffffffffffffffffffffff169063655f0db990611282908590600401613554565b611aea611fb7565b73ffffffffffffffffffffffffffffffffffffffff8116611b3a576040517f1e4fbdf700000000000000000000000000000000000000000000000000000000815260006004820152602401610a1b565b611b4381612045565b50565b60008267ffffffffffffffff16118015611b6a575060008167ffffffffffffffff16115b8015611bc65750611b7c60b442612fba565b8267ffffffffffffffff161080611ba85750611b9b62278d0042612fba565b8167ffffffffffffffff16115b80611bc657508167ffffffffffffffff168167ffffffffffffffff16105b15610a3f576040517f7c40a65700000000000000000000000000000000000000000000000000000000815260040160405180910390fd5b6000836000611c578585604051602001611c3d92919061ffff92909216825273ffffffffffffffffffffffffffffffffffffffff16602082015260400190565b604051602081830303815290604052805160209091012090565b815260208101919091526040016000908120805462ffffff1691611c7a836136a3565b91906101000a81548162ffffff021916908362ffffff16021790555090505b9392505050565b6000836000611ce08585604051602001611c3d92919061ffff92909216825273ffffffffffffffffffffffffffffffffffffffff16602082015260400190565b815260208101919091526040016000205462ffffff16949350505050565b3073ffffffffffffffffffffffffffffffffffffffff7f0000000000000000000000000000000000000000000000000000000000000000161480611dcb57507f000000000000000000000000000000000000000000000000000000000000000073ffffffffffffffffffffffffffffffffffffffff16611db27f360894a13ba1a3210667c828492db98dca3e2076cc3735a920a3ca505d382bbc5473ffffffffffffffffffffffffffffffffffffffff1690565b73ffffffffffffffffffffffffffffffffffffffff1614155b15610e20576040517fe07c8dba00000000000000000000000000000000000000000000000000000000815260040160405180910390fd5b611b43611fb7565b8173ffffffffffffffffffffffffffffffffffffffff166352d1902d6040518163ffffffff1660e01b8152600401602060405180830381865afa925050508015611e8f575060408051601f3d9081017fffffffffffffffffffffffffffffffffffffffffffffffffffffffffffffffe0168201909252611e8c91810190613292565b60015b611edd576040517f4c9c8ce300000000000000000000000000000000000000000000000000000000815273ffffffffffffffffffffffffffffffffffffffff83166004820152602401610a1b565b7f360894a13ba1a3210667c828492db98dca3e2076cc3735a920a3ca505d382bbc8114611f39576040517faa1d49a400000000000000000000000000000000000000000000000000000000815260048101829052602401610a1b565b611f4383836123b2565b505050565b3073ffffffffffffffffffffffffffffffffffffffff7f00000000000000000000000000000000000000000000000000000000000000001614610e20576040517fe07c8dba00000000000000000000000000000000000000000000000000000000815260040160405180910390fd5b33611ff67f9016d09d72d40fdae2fd8ceac6b6234c7706214fd39c1cd1e609a0528c1993005473ffffffffffffffffffffffffffffffffffffffff1690565b73ffffffffffffffffffffffffffffffffffffffff1614610e20576040517f118cdaa7000000000000000000000000000000000000000000000000000000008152336004820152602401610a1b565b7f9016d09d72d40fdae2fd8ceac6b6234c7706214fd39c1cd1e609a0528c19930080547fffffffffffffffffffffffff0000000000000000000000000000000000000000811673ffffffffffffffffffffffffffffffffffffffff848116918217845560405192169182907f8be0079c531659141344cd1fd0a4f28419497f9722a3daafe3b4186f6b6457e090600090a3505050565b6000806120f36120ee60a08501856136bb565b612415565b90507ffe000000000000000000000000000000000000000000000000000000000000007fff0000000000000000000000000000000000000000000000000000000000000082160161219f5761215a606084013561215360a08601866136bb565b9091612436565b5091508161219a576040517f1f5328cc00000000000000000000000000000000000000000000000000000000815260808401356004820152602401610a1b565b612231565b6002546040517f2adbcb65000000000000000000000000000000000000000000000000000000008152660100000000000090910473ffffffffffffffffffffffffffffffffffffffff1690632adbcb65906121fe9086906004016132ab565b600060405180830381600087803b15801561221857600080fd5b505af115801561222c573d6000803e3d6000fd5b505050505b50919050565b610a3f828260405160240161224d929190613720565b604080517fffffffffffffffffffffffffffffffffffffffffffffffffffffffffffffffe08184030181529190526020810180517bffffffffffffffffffffffffffffffffffffffffffffffffffffffff167fc3b5563500000000000000000000000000000000000000000000000000000000179052612488565b6122d0612491565b611b43816124f8565b610e20612491565b6000805b8281101561231b578383828181106122ff576122ff6131db565b90506020020135826123119190612fba565b91506001016122e5565b5092915050565b60606109cb8261233560e082018261333e565b9050612500565b60606109cb8261233560a082018261333e565b60006109cb8261236260a082018261333e565b6000818110612373576123736131db565b90506020020160208101906123889190612ff0565b61239560e086018661333e565b90506125b7565b60006109cb8261ffff61239560e083018361333e565b6123bb826125d7565b60405173ffffffffffffffffffffffffffffffffffffffff8316907fbc7cd75a20ee27fd9adebab32041f755214dbc6bffa90cc0225b39da2e5c2d3b90600090a280511561240d57611f4382826126a6565b610a3f612729565b6000806124256001828587613744565b61242e9161376e565b949350505050565b6000606060008060006124498888612761565b9194509250905061247973ffffffffffffffffffffffffffffffffffffffff841662ffffff8416886020856127e9565b90999098509650505050505050565b611b4381612874565b7ff0c57e16840df040f15088dc2f81fe391c3923bec73e23a9662efc9c229c6a005468010000000000000000900460ff16610e20576040517fd7e6bcf800000000000000000000000000000000000000000000000000000000815260040160405180910390fd5b611aea612491565b606060008267ffffffffffffffff81111561251d5761251d612b6b565b604051908082528060200260200182016040528015612546578160200160208202803683370190505b50905060005b838110156112235761258961256460a087018761333e565b83818110612574576125746131db565b905060200201602081019061095e9190612ff0565b82828151811061259b5761259b6131db565b62ffffff9092166020928302919091019091015260010161254c565b600061242e836125cd6080870160608801612a64565b6000919085612895565b8073ffffffffffffffffffffffffffffffffffffffff163b600003612640576040517f4c9c8ce300000000000000000000000000000000000000000000000000000000815273ffffffffffffffffffffffffffffffffffffffff82166004820152602401610a1b565b7f360894a13ba1a3210667c828492db98dca3e2076cc3735a920a3ca505d382bbc80547fffffffffffffffffffffffff00000000000000000000000000000000000000001673ffffffffffffffffffffffffffffffffffffffff92909216919091179055565b60606000808473ffffffffffffffffffffffffffffffffffffffff16846040516126d091906137b6565b600060405180830381855af49150503d806000811461270b576040519150601f19603f3d011682016040523d82523d6000602084013e612710565b606091505b5091509150612720858383612922565b95945050505050565b3415610e20576040517fb398979f00000000000000000000000000000000000000000000000000000000815260040160405180910390fd5b6000806060612774602160018688613744565b61277d916137c8565b925061278d602460218688613744565b61279691613804565b60e81c91506127a88460248188613744565b8080601f0160208091040260200160405190810160405280939291908181526020018383808284376000920191909152509598949750919550929350505050565b6000606060008060008661ffff1667ffffffffffffffff81111561280f5761280f612b6b565b6040519080825280601f01601f191660200182016040528015612839576020820181803683370190505b5090506000808751602089018b8e8ef191503d92508683111561285a578692505b828152826000602083013e90999098509650505050505050565b60006a636f6e736f6c652e6c6f679050600080835160208501845afa505050565b6000818560006128d68787604051602001611c3d92919061ffff92909216825273ffffffffffffffffffffffffffffffffffffffff16602082015260400190565b81526020810191909152604001600090812080549091906128fd90849062ffffff16613849565b92506101000a81548162ffffff021916908362ffffff16021790559050949350505050565b60608261293757612932826129b1565b611c99565b815115801561295b575073ffffffffffffffffffffffffffffffffffffffff84163b155b156129aa576040517f9996b31500000000000000000000000000000000000000000000000000000000815273ffffffffffffffffffffffffffffffffffffffff85166004820152602401610a1b565b5080611c99565b8051156129c15780518082602001fd5b6040517f1425ea4200000000000000000000000000000000000000000000000000000000815260040160405180910390fd5b6000610100828403121561223157600080fd5b600060208284031215612a1857600080fd5b813567ffffffffffffffff811115612a2f57600080fd5b61242e848285016129f3565b803573ffffffffffffffffffffffffffffffffffffffff81168114612a5f57600080fd5b919050565b600060208284031215612a7657600080fd5b6109c882612a3b565b803561ffff81168114612a5f57600080fd5b60008060408385031215612aa457600080fd5b612aad83612a7f565b9150612abb60208401612a3b565b90509250929050565b60008083601f840112612ad657600080fd5b50813567ffffffffffffffff811115612aee57600080fd5b6020830191508360208260051b8501011115612b0957600080fd5b9250929050565b60008060208385031215612b2357600080fd5b823567ffffffffffffffff811115612b3a57600080fd5b612b4685828601612ac4565b90969095509350505050565b600060208284031215612b6457600080fd5b5035919050565b7f4e487b7100000000000000000000000000000000000000000000000000000000600052604160045260246000fd5b60008060408385031215612bad57600080fd5b612bb683612a3b565b9150602083013567ffffffffffffffff80821115612bd357600080fd5b818501915085601f830112612be757600080fd5b813581811115612bf957612bf9612b6b565b604051601f82017fffffffffffffffffffffffffffffffffffffffffffffffffffffffffffffffe0908116603f01168101908382118183101715612c3f57612c3f612b6b565b81604052828152886020848701011115612c5857600080fd5b8260208601602083013760006020848301015280955050505050509250929050565b60008060208385031215612c8d57600080fd5b823567ffffffffffffffff80821115612ca557600080fd5b818501915085601f830112612cb957600080fd5b813581811115612cc857600080fd5b866020828501011115612cda57600080fd5b60209290920196919550909350505050565b80358015158114612a5f57600080fd5b600060208284031215612d0e57600080fd5b6109c882612cec565b803567ffffffffffffffff81168114612a5f57600080fd5b600080600080600060808688031215612d4757600080fd5b85359450612d5760208701612d17565b9350612d6560408701612d17565b9250606086013567ffffffffffffffff80821115612d8257600080fd5b818801915088601f830112612d9657600080fd5b813581811115612da557600080fd5b896020606083028501011115612dba57600080fd5b9699959850939650602001949392505050565b60008060408385031215612de057600080fd5b612de983612a3b565b9150612abb60208401612cec565b6020808252825182820181905260009190848201906040850190845b81811015612e31578351151583529284019291840191600101612e13565b50909695505050505050565b60005b83811015612e58578181015183820152602001612e40565b50506000910152565b60008151808452612e79816020860160208601612e3d565b601f017fffffffffffffffffffffffffffffffffffffffffffffffffffffffffffffffe0169290920160200192915050565b6020815260006109c86020830184612e61565b600080600060608486031215612ed357600080fd5b612edc84612a3b565b9250612eea60208501612a3b565b9150612ef860408501612a3b565b90509250925092565b600080600080600060808688031215612f1957600080fd5b85359450612f2960208701612d17565b9350612f3760408701612d17565b9250606086013567ffffffffffffffff811115612f5357600080fd5b612f5f88828901612ac4565b969995985093965092949392505050565b600060208284031215612f8257600080fd5b6109c882612d17565b7f4e487b7100000000000000000000000000000000000000000000000000000000600052601160045260246000fd5b808201808211156109cb576109cb612f8b565b600063ffffffff808316818103612fe657612fe6612f8b565b6001019392505050565b60006020828403121561300257600080fd5b6109c882612a7f565b60008083357fffffffffffffffffffffffffffffffffffffffffffffffffffffffffffffffe184360301811261304057600080fd5b830160208101925035905067ffffffffffffffff81111561306057600080fd5b803603821315612b0957600080fd5b8183528181602085013750600060208284010152600060207fffffffffffffffffffffffffffffffffffffffffffffffffffffffffffffffe0601f840116840101905092915050565b6020815267ffffffffffffffff6130ce83612d17565b16602082015260006130e260208401612d17565b67ffffffffffffffff81166040840152506130ff60408401612a3b565b73ffffffffffffffffffffffffffffffffffffffff811660608401525061312860608401612a3b565b73ffffffffffffffffffffffffffffffffffffffff8116608084015250608083013560a083015261315b60a08401612a7f565b61ffff811660c08401525061317360c084018461300b565b6101008060e086015261318b6101208601838561306f565b925061319a60e087018761300b565b92507fffffffffffffffffffffffffffffffffffffffffffffffffffffffffffffffe086850301828701526131d084848361306f565b979650505050505050565b7f4e487b7100000000000000000000000000000000000000000000000000000000600052603260045260246000fd5b6060810161ffff61321a84612a7f565b16825273ffffffffffffffffffffffffffffffffffffffff61323e60208501612a3b565b1660208301526040830135604083015292915050565b600082357fffffffffffffffffffffffffffffffffffffffffffffffffffffffffffffff4183360301811261328857600080fd5b9190910192915050565b6000602082840312156132a457600080fd5b5051919050565b6020815261ffff6132bb83612a7f565b1660208201526000602083013562ffffff81168082146132da57600080fd5b806040850152505073ffffffffffffffffffffffffffffffffffffffff61330360408501612a3b565b16606083015260608301356080830152608083013560a083015261332a60a084018461300b565b60c08085015261272060e08501828461306f565b60008083357fffffffffffffffffffffffffffffffffffffffffffffffffffffffffffffffe184360301811261337357600080fd5b83018035915067ffffffffffffffff82111561338e57600080fd5b6020019150600581901b3603821315612b0957600080fd5b815160009082906020808601845b838110156133d557815162ffffff16855293820193908201906001016133b4565b50929695505050505050565b60008083357fffffffffffffffffffffffffffffffffffffffffffffffffffffffffffffffe184360301811261341657600080fd5b830160208101925035905067ffffffffffffffff81111561343657600080fd5b8060051b3603821315612b0957600080fd5b81835260007f07ffffffffffffffffffffffffffffffffffffffffffffffffffffffffffffff83111561347a57600080fd5b8260051b80836020870137939093016020019392505050565b8183526000602080850194508260005b858110156134ca5761ffff6134b783612a7f565b16875295820195908201906001016134a3565b509495945050505050565b6000838385526020808601955060208560051b8301018460005b87811015613547577fffffffffffffffffffffffffffffffffffffffffffffffffffffffffffffffe0858403018952613528828861300b565b61353385828461306f565b9a86019a94505050908301906001016134ef565b5090979650505050505050565b602081526135766020820161356884612d17565b67ffffffffffffffff169052565b600061358460208401612d17565b67ffffffffffffffff81166040840152506135a160408401612a3b565b73ffffffffffffffffffffffffffffffffffffffff81166060840152506135ca60608401612a3b565b73ffffffffffffffffffffffffffffffffffffffff81166080840152506135f460808401846133e1565b6101008060a086015261360c61012086018385613448565b925061361b60a08701876133e1565b92507fffffffffffffffffffffffffffffffffffffffffffffffffffffffffffffffe0808786030160c0880152613653858584613493565b945061366260c08901896133e1565b94509150808786030160e088015261367b8585846134d5565b945061368a60e08901896133e1565b94509150808786030183880152506131d08484836134d5565b600062ffffff808316818103612fe657612fe6612f8b565b60008083357fffffffffffffffffffffffffffffffffffffffffffffffffffffffffffffffe18436030181126136f057600080fd5b83018035915067ffffffffffffffff82111561370b57600080fd5b602001915036819003821315612b0957600080fd5b6040815260006137336040830185612e61565b905082151560208301529392505050565b6000808585111561375457600080fd5b8386111561376157600080fd5b5050820193919092039150565b7fff0000000000000000000000000000000000000000000000000000000000000081358181169160018510156137ae5780818660010360031b1b83161692505b505092915050565b60008251613288818460208701612e3d565b803560208310156109cb577fffffffffffffffffffffffffffffffffffffffffffffffffffffffffffffffff602084900360031b1b1692915050565b7fffffff000000000000000000000000000000000000000000000000000000000081358181169160038510156137ae57600394850390941b84901b1690921692915050565b62ffffff81811683821601908082111561231b5761231b612f8b56fea164736f6c6343000817000a",
  "linkReferences": {},
  "deployedLinkReferences": {}
}