{
  "_format": "hh-sol-artifact-1",
  "contractName": "MessageSpaceStationUg",
  "sourceName": "contracts/MessageSpaceStation.ugradable.sol",
  "abi": [
    {
      "inputs": [],
      "stateMutability": "nonpayable",
      "type": "constructor"
    },
    {
      "inputs": [],
      "name": "AccessDenied",
      "type": "error"
    },
    {
      "inputs": [
        {
          "internalType": "address",
          "name": "target",
          "type": "address"
        }
      ],
      "name": "AddressEmptyCode",
      "type": "error"
    },
    {
      "inputs": [],
      "name": "ArrivalTimeNotMakeSense",
      "type": "error"
    },
    {
      "inputs": [
        {
          "internalType": "address",
          "name": "implementation",
          "type": "address"
        }
      ],
      "name": "ERC1967InvalidImplementation",
      "type": "error"
    },
    {
      "inputs": [],
      "name": "ERC1967NonPayable",
      "type": "error"
    },
    {
      "inputs": [
        {
          "internalType": "bytes32",
          "name": "messageId",
          "type": "bytes32"
        }
      ],
      "name": "ExcuteError",
      "type": "error"
    },
    {
      "inputs": [],
      "name": "FailedInnerCall",
      "type": "error"
    },
    {
      "inputs": [],
      "name": "InvalidAddress",
      "type": "error"
    },
    {
      "inputs": [],
      "name": "InvalidInitialization",
      "type": "error"
    },
    {
      "inputs": [],
      "name": "InvalidMessage",
      "type": "error"
    },
    {
      "inputs": [],
      "name": "LandingPadOccupied",
      "type": "error"
    },
    {
      "inputs": [],
      "name": "NotImplement",
      "type": "error"
    },
    {
      "inputs": [],
      "name": "NotInitializing",
      "type": "error"
    },
    {
      "inputs": [
        {
          "internalType": "address",
          "name": "owner",
          "type": "address"
        }
      ],
      "name": "OwnableInvalidOwner",
      "type": "error"
    },
    {
      "inputs": [
        {
          "internalType": "address",
          "name": "account",
          "type": "address"
        }
      ],
      "name": "OwnableUnauthorizedAccount",
      "type": "error"
    },
    {
      "inputs": [
        {
          "internalType": "bool[]",
          "name": "results",
          "type": "bool[]"
        }
      ],
      "name": "SimulateResult",
      "type": "error"
    },
    {
      "inputs": [],
      "name": "StationPaused",
      "type": "error"
    },
    {
      "inputs": [],
      "name": "TimeNotReached",
      "type": "error"
    },
    {
      "inputs": [],
      "name": "UUPSUnauthorizedCallContext",
      "type": "error"
    },
    {
      "inputs": [
        {
          "internalType": "bytes32",
          "name": "slot",
          "type": "bytes32"
        }
      ],
      "name": "UUPSUnsupportedProxiableUUID",
      "type": "error"
    },
    {
      "inputs": [],
      "name": "ValueNotMatched",
      "type": "error"
    },
    {
      "inputs": [],
      "name": "WithdrawError",
      "type": "error"
    },
    {
      "anonymous": false,
      "inputs": [
        {
          "indexed": true,
          "internalType": "bool",
          "name": "isPause",
          "type": "bool"
        }
      ],
      "name": "EngineStatusRefreshing",
      "type": "event"
    },
    {
      "anonymous": false,
      "inputs": [
        {
          "indexed": false,
          "internalType": "uint64",
          "name": "version",
          "type": "uint64"
        }
      ],
      "name": "Initialized",
      "type": "event"
    },
    {
      "anonymous": false,
      "inputs": [
        {
          "indexed": true,
          "internalType": "address",
          "name": "previousOwner",
          "type": "address"
        },
        {
          "indexed": true,
          "internalType": "address",
          "name": "newOwner",
          "type": "address"
        }
      ],
      "name": "OwnershipTransferred",
      "type": "event"
    },
    {
      "anonymous": false,
      "inputs": [
        {
          "indexed": true,
          "internalType": "address",
          "name": "paymentSystemAddress",
          "type": "address"
        }
      ],
      "name": "PaymentSystemChanging",
      "type": "event"
    },
    {
      "anonymous": false,
      "inputs": [
        {
          "indexed": true,
          "internalType": "address",
          "name": "sequencerAddress",
          "type": "address"
        },
        {
          "indexed": false,
          "internalType": "bool",
          "name": "state",
          "type": "bool"
        }
      ],
      "name": "SequencerStatusChanging",
      "type": "event"
    },
    {
      "anonymous": false,
      "inputs": [
        {
          "indexed": true,
          "internalType": "bytes32",
          "name": "messageId",
          "type": "bytes32"
        },
        {
          "components": [
            {
              "internalType": "uint16",
              "name": "srcChainld",
              "type": "uint16"
            },
            {
              "internalType": "address",
              "name": "sender",
              "type": "address"
            },
            {
              "internalType": "bytes32",
              "name": "messgeId",
              "type": "bytes32"
            }
          ],
          "indexed": false,
          "internalType": "struct IMessageStruct.PostingLanding",
          "name": "params",
          "type": "tuple"
        }
      ],
      "name": "SuccessfulBatchLanding",
      "type": "event"
    },
    {
      "anonymous": false,
      "inputs": [
        {
          "indexed": true,
          "internalType": "bytes32",
          "name": "messageId",
          "type": "bytes32"
        },
        {
          "components": [
            {
              "internalType": "uint16",
              "name": "srcChainld",
              "type": "uint16"
            },
            {
              "internalType": "uint24",
              "name": "nonceLandingCurrent",
              "type": "uint24"
            },
            {
              "internalType": "address",
              "name": "sender",
              "type": "address"
            },
            {
              "internalType": "uint256",
              "name": "value",
              "type": "uint256"
            },
            {
              "internalType": "bytes32",
              "name": "messgeId",
              "type": "bytes32"
            },
            {
              "internalType": "bytes",
              "name": "message",
              "type": "bytes"
            }
          ],
          "indexed": false,
          "internalType": "struct IMessageStruct.InteractionLanding",
          "name": "params",
          "type": "tuple"
        }
      ],
      "name": "SuccessfulLanding",
      "type": "event"
    },
    {
      "anonymous": false,
      "inputs": [
        {
          "indexed": true,
          "internalType": "uint32",
          "name": "nonce",
          "type": "uint32"
        },
        {
          "components": [
            {
              "internalType": "uint64",
              "name": "earlistArrivalTimestamp",
              "type": "uint64"
            },
            {
              "internalType": "uint64",
              "name": "latestArrivalTimestamp",
              "type": "uint64"
            },
            {
              "internalType": "address",
              "name": "relayer",
              "type": "address"
            },
            {
              "internalType": "address",
              "name": "sender",
              "type": "address"
            },
            {
              "internalType": "uint256",
              "name": "value",
              "type": "uint256"
            },
            {
              "internalType": "uint16",
              "name": "destChainld",
              "type": "uint16"
            },
            {
              "internalType": "bytes",
              "name": "aditionParams",
              "type": "bytes"
            },
            {
              "internalType": "bytes",
              "name": "message",
              "type": "bytes"
            }
          ],
          "indexed": false,
          "internalType": "struct IMessageStruct.launchSingleMsgParams",
          "name": "params",
          "type": "tuple"
        }
      ],
      "name": "SuccessfulLaunchMessage",
      "type": "event"
    },
    {
      "anonymous": false,
      "inputs": [
        {
          "indexed": true,
          "internalType": "uint32[]",
          "name": "nonce",
          "type": "uint32[]"
        },
        {
          "components": [
            {
              "internalType": "uint64",
              "name": "earlistArrivalTimestamp",
              "type": "uint64"
            },
            {
              "internalType": "uint64",
              "name": "latestArrivalTimestamp",
              "type": "uint64"
            },
            {
              "internalType": "address",
              "name": "relayer",
              "type": "address"
            },
            {
              "internalType": "address",
              "name": "sender",
              "type": "address"
            },
            {
              "internalType": "uint256[]",
              "name": "value",
              "type": "uint256[]"
            },
            {
              "internalType": "uint16[]",
              "name": "destChainld",
              "type": "uint16[]"
            },
            {
              "internalType": "bytes[]",
              "name": "aditionParams",
              "type": "bytes[]"
            },
            {
              "internalType": "bytes[]",
              "name": "message",
              "type": "bytes[]"
            }
          ],
          "indexed": false,
          "internalType": "struct IMessageStruct.launchMultiMsgParams",
          "name": "params",
          "type": "tuple"
        }
      ],
      "name": "SuccessfulLaunchMessages",
      "type": "event"
    },
    {
      "anonymous": false,
      "inputs": [
        {
          "indexed": true,
          "internalType": "uint32",
          "name": "nonce",
          "type": "uint32"
        },
        {
          "components": [
            {
              "internalType": "uint64",
              "name": "earlistArrivalTimestamp",
              "type": "uint64"
            },
            {
              "internalType": "uint64",
              "name": "latestArrivalTimestamp",
              "type": "uint64"
            },
            {
              "internalType": "address",
              "name": "relayer",
              "type": "address"
            },
            {
              "internalType": "address",
              "name": "sender",
              "type": "address"
            },
            {
              "internalType": "uint256[]",
              "name": "value",
              "type": "uint256[]"
            },
            {
              "internalType": "uint16[]",
              "name": "destChainld",
              "type": "uint16[]"
            },
            {
              "internalType": "bytes[]",
              "name": "aditionParams",
              "type": "bytes[]"
            },
            {
              "internalType": "bytes[]",
              "name": "message",
              "type": "bytes[]"
            }
          ],
          "indexed": false,
          "internalType": "struct IMessageStruct.launchMultiMsgParams",
          "name": "params",
          "type": "tuple"
        }
      ],
      "name": "SuccessfulLaunchMessages2",
      "type": "event"
    },
    {
      "anonymous": false,
      "inputs": [
        {
          "indexed": true,
          "internalType": "address",
          "name": "implementation",
          "type": "address"
        }
      ],
      "name": "Upgraded",
      "type": "event"
    },
    {
      "anonymous": false,
      "inputs": [
        {
          "indexed": true,
          "internalType": "uint256",
          "name": "amount",
          "type": "uint256"
        }
      ],
      "name": "WithdrawRequest",
      "type": "event"
    },
    {
      "inputs": [],
      "name": "ChainId",
      "outputs": [
        {
          "internalType": "uint16",
          "name": "",
          "type": "uint16"
        }
      ],
      "stateMutability": "pure",
      "type": "function"
    },
    {
      "inputs": [
        {
          "internalType": "address",
          "name": "trustedRelayerAddr",
          "type": "address"
        },
        {
          "internalType": "bool",
          "name": "state",
          "type": "bool"
        }
      ],
      "name": "ConfigTrustedRelayer",
      "outputs": [],
      "stateMutability": "nonpayable",
      "type": "function"
    },
    {
      "inputs": [
        {
          "components": [
            {
              "internalType": "uint16",
              "name": "srcChainld",
              "type": "uint16"
            },
            {
              "internalType": "uint24",
              "name": "nonceLandingCurrent",
              "type": "uint24"
            },
            {
              "internalType": "address",
              "name": "sender",
              "type": "address"
            },
            {
              "internalType": "uint256",
              "name": "value",
              "type": "uint256"
            },
            {
              "internalType": "bytes32",
              "name": "messgeId",
              "type": "bytes32"
            },
            {
              "internalType": "bytes",
              "name": "message",
              "type": "bytes"
            }
          ],
          "internalType": "struct IMessageStruct.InteractionLanding[]",
          "name": "params",
          "type": "tuple[]"
        }
      ],
      "name": "EstimateExcuteGas",
      "outputs": [
        {
          "internalType": "bool[]",
          "name": "",
          "type": "bool[]"
        }
      ],
      "stateMutability": "nonpayable",
      "type": "function"
    },
    {
      "inputs": [
        {
          "components": [
            {
              "internalType": "uint64",
              "name": "earlistArrivalTimestamp",
              "type": "uint64"
            },
            {
              "internalType": "uint64",
              "name": "latestArrivalTimestamp",
              "type": "uint64"
            },
            {
              "internalType": "address",
              "name": "relayer",
              "type": "address"
            },
            {
              "internalType": "address",
              "name": "sender",
              "type": "address"
            },
            {
              "internalType": "uint256",
              "name": "value",
              "type": "uint256"
            },
            {
              "internalType": "uint16",
              "name": "destChainld",
              "type": "uint16"
            },
            {
              "internalType": "bytes",
              "name": "aditionParams",
              "type": "bytes"
            },
            {
              "internalType": "bytes",
              "name": "message",
              "type": "bytes"
            }
          ],
          "internalType": "struct IMessageStruct.launchSingleMsgParams",
          "name": "params",
          "type": "tuple"
        }
      ],
      "name": "EstimateFee",
      "outputs": [
        {
          "internalType": "uint256",
          "name": "",
          "type": "uint256"
        }
      ],
      "stateMutability": "view",
      "type": "function"
    },
    {
      "inputs": [
        {
          "components": [
            {
              "internalType": "uint64",
              "name": "earlistArrivalTimestamp",
              "type": "uint64"
            },
            {
              "internalType": "uint64",
              "name": "latestArrivalTimestamp",
              "type": "uint64"
            },
            {
              "internalType": "address",
              "name": "relayer",
              "type": "address"
            },
            {
              "internalType": "address",
              "name": "sender",
              "type": "address"
            },
            {
              "internalType": "uint256[]",
              "name": "value",
              "type": "uint256[]"
            },
            {
              "internalType": "uint16[]",
              "name": "destChainld",
              "type": "uint16[]"
            },
            {
              "internalType": "bytes[]",
              "name": "aditionParams",
              "type": "bytes[]"
            },
            {
              "internalType": "bytes[]",
              "name": "message",
              "type": "bytes[]"
            }
          ],
          "internalType": "struct IMessageStruct.launchMultiMsgParams",
          "name": "params",
          "type": "tuple"
        }
      ],
      "name": "EstimateFee",
      "outputs": [
        {
          "internalType": "uint256",
          "name": "",
          "type": "uint256"
        }
      ],
      "stateMutability": "view",
      "type": "function"
    },
    {
      "inputs": [],
      "name": "ExpertLandingHandler",
      "outputs": [
        {
          "internalType": "contract IExpertLandingHandler",
          "name": "",
          "type": "address"
        }
      ],
      "stateMutability": "view",
      "type": "function"
    },
    {
      "inputs": [
        {
          "internalType": "uint16",
          "name": "chainId",
          "type": "uint16"
        },
        {
          "internalType": "address",
          "name": "sender",
          "type": "address"
        }
      ],
      "name": "GetNonceLanding",
      "outputs": [
        {
          "internalType": "uint32",
          "name": "",
          "type": "uint32"
        }
      ],
      "stateMutability": "view",
      "type": "function"
    },
    {
      "inputs": [
        {
          "internalType": "uint16",
          "name": "chainId",
          "type": "uint16"
        },
        {
          "internalType": "address",
          "name": "sender",
          "type": "address"
        }
      ],
      "name": "GetNonceLaunch",
      "outputs": [
        {
          "internalType": "uint32",
          "name": "",
          "type": "uint32"
        }
      ],
      "stateMutability": "view",
      "type": "function"
    },
    {
      "inputs": [
        {
          "internalType": "bytes32",
          "name": "mptRootNew",
          "type": "bytes32"
        },
        {
          "internalType": "uint64",
          "name": "aggregatedEarlistArrivalTimestamp",
          "type": "uint64"
        },
        {
          "internalType": "uint64",
          "name": "aggregatedLatestArrivalTimestamp",
          "type": "uint64"
        },
        {
          "components": [
            {
              "internalType": "uint16",
              "name": "srcChainld",
              "type": "uint16"
            },
            {
              "internalType": "address",
              "name": "sender",
              "type": "address"
            },
            {
              "internalType": "bytes32",
              "name": "messgeId",
              "type": "bytes32"
            }
          ],
          "internalType": "struct IMessageStruct.PostingLanding[]",
          "name": "params",
          "type": "tuple[]"
        }
      ],
      "name": "Landing",
      "outputs": [],
      "stateMutability": "nonpayable",
      "type": "function"
    },
    {
      "inputs": [
        {
          "internalType": "bytes32",
          "name": "mptRootNew",
          "type": "bytes32"
        },
        {
          "internalType": "uint64",
          "name": "aggregatedEarlistArrivalTimestamp",
          "type": "uint64"
        },
        {
          "internalType": "uint64",
          "name": "aggregatedLatestArrivalTimestamp",
          "type": "uint64"
        },
        {
          "components": [
            {
              "internalType": "uint16",
              "name": "srcChainld",
              "type": "uint16"
            },
            {
              "internalType": "uint24",
              "name": "nonceLandingCurrent",
              "type": "uint24"
            },
            {
              "internalType": "address",
              "name": "sender",
              "type": "address"
            },
            {
              "internalType": "uint256",
              "name": "value",
              "type": "uint256"
            },
            {
              "internalType": "bytes32",
              "name": "messgeId",
              "type": "bytes32"
            },
            {
              "internalType": "bytes",
              "name": "message",
              "type": "bytes"
            }
          ],
          "internalType": "struct IMessageStruct.InteractionLanding[]",
          "name": "params",
          "type": "tuple[]"
        }
      ],
      "name": "Landing",
      "outputs": [],
      "stateMutability": "payable",
      "type": "function"
    },
    {
      "inputs": [
        {
          "components": [
            {
              "internalType": "uint64",
              "name": "earlistArrivalTimestamp",
              "type": "uint64"
            },
            {
              "internalType": "uint64",
              "name": "latestArrivalTimestamp",
              "type": "uint64"
            },
            {
              "internalType": "address",
              "name": "relayer",
              "type": "address"
            },
            {
              "internalType": "address",
              "name": "sender",
              "type": "address"
            },
            {
              "internalType": "uint256",
              "name": "value",
              "type": "uint256"
            },
            {
              "internalType": "uint16",
              "name": "destChainld",
              "type": "uint16"
            },
            {
              "internalType": "bytes",
              "name": "aditionParams",
              "type": "bytes"
            },
            {
              "internalType": "bytes",
              "name": "message",
              "type": "bytes"
            }
          ],
          "internalType": "struct IMessageStruct.launchSingleMsgParams",
          "name": "params",
          "type": "tuple"
        }
      ],
      "name": "Launch",
      "outputs": [],
      "stateMutability": "payable",
      "type": "function"
    },
    {
      "inputs": [
        {
          "components": [
            {
              "internalType": "uint64",
              "name": "earlistArrivalTimestamp",
              "type": "uint64"
            },
            {
              "internalType": "uint64",
              "name": "latestArrivalTimestamp",
              "type": "uint64"
            },
            {
              "internalType": "address",
              "name": "relayer",
              "type": "address"
            },
            {
              "internalType": "address",
              "name": "sender",
              "type": "address"
            },
            {
              "internalType": "uint256[]",
              "name": "value",
              "type": "uint256[]"
            },
            {
              "internalType": "uint16[]",
              "name": "destChainld",
              "type": "uint16[]"
            },
            {
              "internalType": "bytes[]",
              "name": "aditionParams",
              "type": "bytes[]"
            },
            {
              "internalType": "bytes[]",
              "name": "message",
              "type": "bytes[]"
            }
          ],
          "internalType": "struct IMessageStruct.launchMultiMsgParams",
          "name": "params",
          "type": "tuple"
        }
      ],
      "name": "Launch",
      "outputs": [],
      "stateMutability": "payable",
      "type": "function"
    },
    {
      "inputs": [],
      "name": "Manager",
      "outputs": [
        {
          "internalType": "address",
          "name": "",
          "type": "address"
        }
      ],
      "stateMutability": "view",
      "type": "function"
    },
    {
      "inputs": [
        {
          "internalType": "bool",
          "name": "stop",
          "type": "bool"
        }
      ],
      "name": "PauseEngine",
      "outputs": [],
      "stateMutability": "nonpayable",
      "type": "function"
    },
    {
      "inputs": [
        {
          "internalType": "address",
          "name": "paymentSystemAddress",
          "type": "address"
        }
      ],
      "name": "SetPaymentSystem",
      "outputs": [],
      "stateMutability": "nonpayable",
      "type": "function"
    },
    {
      "inputs": [
        {
          "components": [
            {
              "internalType": "uint16",
              "name": "srcChainld",
              "type": "uint16"
            },
            {
              "internalType": "uint24",
              "name": "nonceLandingCurrent",
              "type": "uint24"
            },
            {
              "internalType": "address",
              "name": "sender",
              "type": "address"
            },
            {
              "internalType": "uint256",
              "name": "value",
              "type": "uint256"
            },
            {
              "internalType": "bytes32",
              "name": "messgeId",
              "type": "bytes32"
            },
            {
              "internalType": "bytes",
              "name": "message",
              "type": "bytes"
            }
          ],
          "internalType": "struct IMessageStruct.InteractionLanding[]",
          "name": "params",
          "type": "tuple[]"
        }
      ],
      "name": "SimulateLanding",
      "outputs": [],
      "stateMutability": "nonpayable",
      "type": "function"
    },
    {
      "inputs": [
        {
          "internalType": "address",
          "name": "",
          "type": "address"
        }
      ],
      "name": "TrustedRelayer",
      "outputs": [
        {
          "internalType": "bool",
          "name": "",
          "type": "bool"
        }
      ],
      "stateMutability": "view",
      "type": "function"
    },
    {
      "inputs": [],
      "name": "UPGRADE_INTERFACE_VERSION",
      "outputs": [
        {
          "internalType": "string",
          "name": "",
          "type": "string"
        }
      ],
      "stateMutability": "view",
      "type": "function"
    },
    {
      "inputs": [],
      "name": "Version",
      "outputs": [
        {
          "internalType": "string",
          "name": "",
          "type": "string"
        }
      ],
      "stateMutability": "view",
      "type": "function"
    },
    {
      "inputs": [
        {
          "internalType": "uint256",
          "name": "amount",
          "type": "uint256"
        }
      ],
      "name": "Withdraw",
      "outputs": [],
      "stateMutability": "nonpayable",
      "type": "function"
    },
    {
      "inputs": [],
      "name": "deployChainId",
      "outputs": [
        {
          "internalType": "uint16",
          "name": "",
          "type": "uint16"
        }
      ],
      "stateMutability": "view",
      "type": "function"
    },
    {
      "inputs": [
        {
          "internalType": "address",
          "name": "trustedRelayerAddr",
          "type": "address"
        },
        {
          "internalType": "address",
          "name": "paymentSystemAddr",
          "type": "address"
        },
        {
          "internalType": "address",
          "name": "_owner",
          "type": "address"
        }
      ],
      "name": "initialize",
      "outputs": [],
      "stateMutability": "nonpayable",
      "type": "function"
    },
    {
      "inputs": [],
      "name": "isLanding",
      "outputs": [
        {
          "internalType": "uint8",
          "name": "",
          "type": "uint8"
        }
      ],
      "stateMutability": "view",
      "type": "function"
    },
    {
      "inputs": [],
      "name": "isPaused",
      "outputs": [
        {
          "internalType": "uint8",
          "name": "",
          "type": "uint8"
        }
      ],
      "stateMutability": "view",
      "type": "function"
    },
    {
      "inputs": [
        {
          "internalType": "address",
          "name": "addr",
          "type": "address"
        }
      ],
      "name": "isTrustedRelayer",
      "outputs": [
        {
          "internalType": "bool",
          "name": "",
          "type": "bool"
        }
      ],
      "stateMutability": "view",
      "type": "function"
    },
    {
      "inputs": [],
      "name": "maxArrivalTime",
      "outputs": [
        {
          "internalType": "uint64",
          "name": "",
          "type": "uint64"
        }
      ],
      "stateMutability": "view",
      "type": "function"
    },
    {
      "inputs": [],
      "name": "minArrivalTime",
      "outputs": [
        {
          "internalType": "uint64",
          "name": "",
          "type": "uint64"
        }
      ],
      "stateMutability": "view",
      "type": "function"
    },
    {
      "inputs": [],
      "name": "nonce",
      "outputs": [
        {
          "internalType": "uint32",
          "name": "",
          "type": "uint32"
        }
      ],
      "stateMutability": "view",
      "type": "function"
    },
    {
      "inputs": [
        {
          "internalType": "bytes32",
          "name": "",
          "type": "bytes32"
        }
      ],
      "name": "nonceLanding",
      "outputs": [
        {
          "internalType": "uint32",
          "name": "",
          "type": "uint32"
        }
      ],
      "stateMutability": "view",
      "type": "function"
    },
    {
      "inputs": [
        {
          "internalType": "bytes32",
          "name": "",
          "type": "bytes32"
        }
      ],
      "name": "nonceLaunch",
      "outputs": [
        {
          "internalType": "uint32",
          "name": "",
          "type": "uint32"
        }
      ],
      "stateMutability": "view",
      "type": "function"
    },
    {
      "inputs": [],
      "name": "owner",
      "outputs": [
        {
          "internalType": "address",
          "name": "",
          "type": "address"
        }
      ],
      "stateMutability": "view",
      "type": "function"
    },
    {
      "inputs": [],
      "name": "paymentSystem",
      "outputs": [
        {
          "internalType": "contract IMessagePaymentSystem",
          "name": "",
          "type": "address"
        }
      ],
      "stateMutability": "view",
      "type": "function"
    },
    {
      "inputs": [],
      "name": "proxiableUUID",
      "outputs": [
        {
          "internalType": "bytes32",
          "name": "",
          "type": "bytes32"
        }
      ],
      "stateMutability": "view",
      "type": "function"
    },
    {
      "inputs": [],
      "name": "renounceOwnership",
      "outputs": [],
      "stateMutability": "nonpayable",
      "type": "function"
    },
    {
      "inputs": [
        {
          "internalType": "bytes",
          "name": "config",
          "type": "bytes"
        }
      ],
      "name": "setConfiguration",
      "outputs": [],
      "stateMutability": "view",
      "type": "function"
    },
    {
      "inputs": [
        {
          "internalType": "address",
          "name": "newOwner",
          "type": "address"
        }
      ],
      "name": "transferOwnership",
      "outputs": [],
      "stateMutability": "nonpayable",
      "type": "function"
    },
    {
      "inputs": [
        {
          "internalType": "address",
          "name": "newImplementation",
          "type": "address"
        },
        {
          "internalType": "bytes",
          "name": "data",
          "type": "bytes"
        }
      ],
      "name": "upgradeToAndCall",
      "outputs": [],
      "stateMutability": "payable",
      "type": "function"
    },
    {
      "stateMutability": "payable",
      "type": "receive"
    }
  ],
  "bytecode": "0x60a0604052306080523480156200001557600080fd5b506200002062000026565b620000da565b7ff0c57e16840df040f15088dc2f81fe391c3923bec73e23a9662efc9c229c6a00805468010000000000000000900460ff1615620000775760405163f92ee8a960e01b815260040160405180910390fd5b80546001600160401b0390811614620000d75780546001600160401b0319166001600160401b0390811782556040519081527fc7f505b2f371ae2175ee4913f4499e1f2633a7b5936321eed1cdaeb6115181d29060200160405180910390a15b50565b6080516138546200010460003960008181611d0a01528181611d330152611f5401526138546000f3fe60806040526004361061026e5760003560e01c806378357e5311610153578063baee4cee116100cb578063d48eb1481161007f578063de8aeda011610064578063de8aeda0146107ec578063e9c1dd5114610803578063f2fde38b1461082357600080fd5b8063d48eb148146107c6578063dbda6ad9146107d957600080fd5b8063beb931e0116100b0578063beb931e01461073f578063c0c53b8b14610760578063cde86f381461078057600080fd5b8063baee4cee146106d6578063bb62860d146106f657600080fd5b80639de0049411610122578063ad3cb1cc11610107578063ad3cb1cc14610635578063affed0e01461068b578063b187bd26146106a857600080fd5b80639de00494146105e85780639df40f5a1461060857600080fd5b806378357e53146105545780638da5cb5b146105695780639574d6dc146105b35780639b1762d9146105d357600080fd5b80634f1ef286116101e65780635ad3ad06116101b55780635ca6d9d81161019a5780635ca6d9d8146104ff5780636c86f4771461051f578063715018a61461053f57600080fd5b80635ad3ad06146104b15780635b6b431d146104df57600080fd5b80634f1ef2861461042857806352d1902d1461043b57806354fb60b81461045e57806357a1397b1461049157600080fd5b80632386512a1161023d578063354ae29511610222578063354ae295146103a55780633596f3d6146103c85780633e141d74146103f557600080fd5b80632386512a146103655780632dc83fce1461038557600080fd5b8063012c22c41461027a578063113f182f1461028f5780631a8a6524146102d45780631ef35f0b1461030957600080fd5b3661027557005b600080fd5b61028d6102883660046129fe565b610843565b005b34801561029b57600080fd5b506102bf6102aa366004612a5c565b60046020526000908152604090205460ff1681565b60405190151581526020015b60405180910390f35b3480156102e057600080fd5b506102f46102ef366004612a89565b6109a9565b60405163ffffffff90911681526020016102cb565b34801561031557600080fd5b50600254610340906601000000000000900473ffffffffffffffffffffffffffffffffffffffff1681565b60405173ffffffffffffffffffffffffffffffffffffffff90911681526020016102cb565b34801561037157600080fd5b506102f4610380366004612a89565b6109c0565b34801561039157600080fd5b5061028d6103a0366004612b08565b6109cd565b3480156103b157600080fd5b5060025b60405161ffff90911681526020016102cb565b3480156103d457600080fd5b506003546103409073ffffffffffffffffffffffffffffffffffffffff1681565b34801561040157600080fd5b506102f4610410366004612b4a565b60016020526000908152604090205463ffffffff1681565b61028d610436366004612b92565b610a13565b34801561044757600080fd5b50610450610a32565b6040519081526020016102cb565b34801561046a57600080fd5b506102f4610479366004612b4a565b60006020819052908152604090205463ffffffff1681565b34801561049d57600080fd5b5061028d6104ac366004612a5c565b610a61565b3480156104bd57600080fd5b506104c660b481565b60405167ffffffffffffffff90911681526020016102cb565b3480156104eb57600080fd5b5061028d6104fa366004612b4a565b610b89565b34801561050b57600080fd5b5061028d61051a366004612c72565b610c59565b34801561052b57600080fd5b5061028d61053a366004612cf4565b610cf7565b34801561054b57600080fd5b5061028d610dfd565b34801561056057600080fd5b50610340610e11565b34801561057557600080fd5b507f9016d09d72d40fdae2fd8ceac6b6234c7706214fd39c1cd1e609a0528c1993005473ffffffffffffffffffffffffffffffffffffffff16610340565b3480156105bf57600080fd5b5061028d6105ce366004612d27565b610e56565b3480156105df57600080fd5b506103b5600281565b3480156105f457600080fd5b5061028d610603366004612dc5565b611072565b34801561061457600080fd5b50610628610623366004612b08565b611168565b6040516102cb9190612def565b34801561064157600080fd5b5061067e6040518060400160405280600581526020017f352e302e3000000000000000000000000000000000000000000000000000000081525081565b6040516102cb9190612ea3565b34801561069757600080fd5b506002546102f49063ffffffff1681565b3480156106b457600080fd5b50600254640100000000900460ff165b60405160ff90911681526020016102cb565b3480156106e257600080fd5b506104506106f13660046129fe565b61121a565b34801561070257600080fd5b5061067e6040518060400160405280600681526020017f76312e302e30000000000000000000000000000000000000000000000000000081525081565b34801561074b57600080fd5b5060025465010000000000900460ff166106c4565b34801561076c57600080fd5b5061028d61077b366004612eb6565b6112b2565b34801561078c57600080fd5b506102bf61079b366004612a5c565b73ffffffffffffffffffffffffffffffffffffffff1660009081526004602052604090205460ff1690565b61028d6107d4366004612ef9565b6115df565b61028d6107e73660046129fe565b6117ee565b3480156107f857600080fd5b506104c662278d0081565b34801561080f57600080fd5b5061045061081e3660046129fe565b611a7b565b34801561082f57600080fd5b5061028d61083e366004612a5c565b611ad2565b6108506020820182612f68565b6108606040830160208401612f68565b826080013561086e8461121a565b60028054640100000000900460ff16146108b4576040517f1aed3fed00000000000000000000000000000000000000000000000000000000815260040160405180910390fd5b6108be8282612fb2565b3410156108f7576040517fbef7a4bc00000000000000000000000000000000000000000000000000000000815260040160405180910390fd5b6109018484611b36565b6002805463ffffffff1690600061091783612fc5565b91906101000a81548163ffffffff021916908363ffffffff160217905550506109658560a001602081019061094c9190612fe8565b61095c6080880160608901612a5c565b60009190611bed565b63ffffffff167f3329bf2fa0c93431500b1c3a2daa29d0b6bf17e9beb49129fb34d5156c13fc058660405161099a91906130b0565b60405180910390a25050505050565b60006109b760018484611c93565b90505b92915050565b60006109b7818484611c93565b6109d78282611168565b6040517fedbfa46a000000000000000000000000000000000000000000000000000000008152600401610a0a9190612def565b60405180910390fd5b610a1b611cf2565b610a2482611df6565b610a2e8282611dfe565b5050565b6000610a3c611f3c565b507f360894a13ba1a3210667c828492db98dca3e2076cc3735a920a3ca505d382bbc90565b610a69610e11565b73ffffffffffffffffffffffffffffffffffffffff163373ffffffffffffffffffffffffffffffffffffffff1614610acd576040517f4ca8886700000000000000000000000000000000000000000000000000000000815260040160405180910390fd5b73ffffffffffffffffffffffffffffffffffffffff8116610b1a576040517fe6c4247b00000000000000000000000000000000000000000000000000000000815260040160405180910390fd5b600380547fffffffffffffffffffffffff00000000000000000000000000000000000000001673ffffffffffffffffffffffffffffffffffffffff83169081179091556040517fc42198387755d1905bd3c5b3ed34925a52f21b418fa2f083c6f95932bb7615df90600090a250565b6000610b93610e11565b73ffffffffffffffffffffffffffffffffffffffff168260405160006040518083038185875af1925050503d8060008114610bea576040519150601f19603f3d011682016040523d82523d6000602084013e610bef565b606091505b5050905080610c2a576040517fd477157400000000000000000000000000000000000000000000000000000000815260040160405180910390fd5b60405182907f7d8aac96811a5850be6542bb655a486c8a5e53ded4ede4a04a50542d5fbb834790600090a25050565b610c61610e11565b73ffffffffffffffffffffffffffffffffffffffff163373ffffffffffffffffffffffffffffffffffffffff1614610cc5576040517f4ca8886700000000000000000000000000000000000000000000000000000000815260040160405180910390fd5b6040517fff94113200000000000000000000000000000000000000000000000000000000815260040160405180910390fd5b610cff610e11565b73ffffffffffffffffffffffffffffffffffffffff163373ffffffffffffffffffffffffffffffffffffffff1614610d63576040517f4ca8886700000000000000000000000000000000000000000000000000000000815260040160405180910390fd5b8015610d9d57600280547fffffffffffffffffffffffffffffffffffffffffffffffffffffff00ffffffff16640100000000179055610dcd565b600280547fffffffffffffffffffffffffffffffffffffffffffffffffffffff00ffffffff166402000000001790555b604051811515907fe1b0651480ab1796bad61735eb927e1f76e963b70868c9848f4ef24c2a36586290600090a250565b610e05611fab565b610e0f6000612039565b565b6000610e517f9016d09d72d40fdae2fd8ceac6b6234c7706214fd39c1cd1e609a0528c1993005473ffffffffffffffffffffffffffffffffffffffff1690565b905090565b60028054640100000000900460ff1614610e9c576040517f1aed3fed00000000000000000000000000000000000000000000000000000000815260040160405180910390fd5b60025460ff6501000000000090910416600114610ee5576040517feb91229600000000000000000000000000000000000000000000000000000000815260040160405180910390fd5b600280547fffffffffffffffffffffffffffffffffffffffffffffffffffff00ffffffffff1665020000000000179055336000908152600460205260409020548490849060ff16610f62576040517f4ca8886700000000000000000000000000000000000000000000000000000000815260040160405180910390fd5b428267ffffffffffffffff161180610f835750428167ffffffffffffffff16105b15610fba576040517f71dcf04900000000000000000000000000000000000000000000000000000000815260040160405180910390fd5b60005b8381101561103757848482818110610fd757610fd76131d3565b905060600201604001357ff12efb46f79f2d0af956a44e54b35dc59c06849d38675b0c07ba1afa8c4205ac868684818110611014576110146131d3565b9050606002016040516110279190613202565b60405180910390a2600101610fbd565b5050600280547fffffffffffffffffffffffffffffffffffffffffffffffffffff00ffffffffff1665010000000000179055505b5050505050565b61107a610e11565b73ffffffffffffffffffffffffffffffffffffffff163373ffffffffffffffffffffffffffffffffffffffff16146110de576040517f4ca8886700000000000000000000000000000000000000000000000000000000815260040160405180910390fd5b73ffffffffffffffffffffffffffffffffffffffff821660008181526004602090815260409182902080547fffffffffffffffffffffffffffffffffffffffffffffffffffffffffffffff001685151590811790915591519182527f8338f01d8cd6c8e1a0d79c0a27a46c8206945b5bdc431c90be0c09a60c26d863910160405180910390a25050565b606060008267ffffffffffffffff81111561118557611185612b63565b6040519080825280602002602001820160405280156111ae578160200160208202803683370190505b50905060005b83811015611212576111e88585838181106111d1576111d16131d3565b90506020028101906111e3919061324c565b6120cf565b8282815181106111fa576111fa6131d3565b911515602092830291909101909101526001016111b4565b509392505050565b6003546040517f6fc6e4d900000000000000000000000000000000000000000000000000000000815260009173ffffffffffffffffffffffffffffffffffffffff1690636fc6e4d9906112719085906004016130b0565b602060405180830381865afa15801561128e573d6000803e3d6000fd5b505050506040513d601f19601f820116820180604052508101906109ba919061328a565b7ff0c57e16840df040f15088dc2f81fe391c3923bec73e23a9662efc9c229c6a00805468010000000000000000810460ff16159067ffffffffffffffff166000811580156112fd5750825b905060008267ffffffffffffffff16600114801561131a5750303b155b905061135b6040518060400160405280601081526020017f696e697469616c53657475703a202573000000000000000000000000000000008152508361222b565b61139a6040518060400160405280601081526020017f636f6e737472756374696f6e3a202573000000000000000000000000000000008152508261222b565b811580156113a6575080155b156113dd576040517ff92ee8a900000000000000000000000000000000000000000000000000000000815260040160405180910390fd5b84547fffffffffffffffffffffffffffffffffffffffffffffffff0000000000000000166001178555831561143e5784547fffffffffffffffffffffffffffffffffffffffffffffff00ffffffffffffffff16680100000000000000001785555b611447866122bc565b61144f6122cd565b73ffffffffffffffffffffffffffffffffffffffff808916600090815260046020526040902080547fffffffffffffffffffffffffffffffffffffffffffffffffffffffffffffff0016600117905560028054650102000000007fffffffffffffffffffffffffffffffffffffffffffffffffffff0000ffffffff9091161790558716611508576040517fe6c4247b00000000000000000000000000000000000000000000000000000000815260040160405180910390fd5b600380547fffffffffffffffffffffffff00000000000000000000000000000000000000001673ffffffffffffffffffffffffffffffffffffffff89169081179091556040517fc42198387755d1905bd3c5b3ed34925a52f21b418fa2f083c6f95932bb7615df90600090a283156115d55784547fffffffffffffffffffffffffffffffffffffffffffffff00ffffffffffffffff168555604051600181527fc7f505b2f371ae2175ee4913f4499e1f2633a7b5936321eed1cdaeb6115181d29060200160405180910390a15b5050505050505050565b60028054640100000000900460ff1614611625576040517f1aed3fed00000000000000000000000000000000000000000000000000000000815260040160405180910390fd5b60025460ff650100000000009091041660011461166e576040517feb91229600000000000000000000000000000000000000000000000000000000815260040160405180910390fd5b600280547fffffffffffffffffffffffffffffffffffffffffffffffffffff00ffffffffff1665020000000000179055336000908152600460205260409020548490849060ff166116eb576040517f4ca8886700000000000000000000000000000000000000000000000000000000815260040160405180910390fd5b428267ffffffffffffffff16118061170c5750428167ffffffffffffffff16105b15611743576040517f71dcf04900000000000000000000000000000000000000000000000000000000815260040160405180910390fd5b60005b83811015611037576117638585838181106111d1576111d16131d3565b50848482818110611776576117766131d3565b9050602002810190611788919061324c565b608001357f05ef1cb7d36c282e73dec116d15b81bb7d7ab3fc0aba9c33a9c88b887fb7ae4d8686848181106117bf576117bf6131d3565b90506020028101906117d1919061324c565b6040516117de91906132a3565b60405180910390a2600101611746565b6117fb6020820182612f68565b61180b6040830160208401612f68565b61182061181b6080850185613336565b6122d5565b61182984611a7b565b60028054640100000000900460ff161461186f576040517f1aed3fed00000000000000000000000000000000000000000000000000000000815260040160405180910390fd5b6118798282612fb2565b3410156118b2576040517fbef7a4bc00000000000000000000000000000000000000000000000000000000815260040160405180910390fd5b6118bc8484611b36565b6118c960e0860186613336565b9050600003611904576040517f6eca2e4b00000000000000000000000000000000000000000000000000000000815260040160405180910390fd5b61191160e0860186613336565b905061192060a0870187613336565b9050036119815761193085612316565b60405161193d919061339e565b60405180910390207f02a694c1317a1e2161b79243d8c234e20d9482518debf3c40db579d45ddf3ccf86604051611974919061354d565b60405180910390a261106b565b600161199060a0870187613336565b90501180156119ad57506119a760e0860186613336565b90506001145b156119bb5761193085612330565b6119c860a0860186613336565b905060011480156119e7575060016119e360e0870187613336565b9050115b15611a2a576119f585612343565b63ffffffff167f77f37346098978611b8ec67f7ed8b33c4183f3d177a4d72aa5067d50d399a1a386604051611974919061354d565b611a3760a0860186613336565b9050600003611a49576119f585612390565b6040517f6eca2e4b00000000000000000000000000000000000000000000000000000000815260040160405180910390fd5b6003546040517f655f0db900000000000000000000000000000000000000000000000000000000815260009173ffffffffffffffffffffffffffffffffffffffff169063655f0db99061127190859060040161354d565b611ada611fab565b73ffffffffffffffffffffffffffffffffffffffff8116611b2a576040517f1e4fbdf700000000000000000000000000000000000000000000000000000000815260006004820152602401610a0a565b611b3381612039565b50565b60008267ffffffffffffffff16118015611b5a575060008167ffffffffffffffff16115b8015611bb65750611b6c60b442612fb2565b8267ffffffffffffffff161080611b985750611b8b62278d0042612fb2565b8167ffffffffffffffff16115b80611bb657508167ffffffffffffffff168167ffffffffffffffff16105b15610a2e576040517f7c40a65700000000000000000000000000000000000000000000000000000000815260040160405180910390fd5b6000836000611c478585604051602001611c2d92919061ffff92909216825273ffffffffffffffffffffffffffffffffffffffff16602082015260400190565b604051602081830303815290604052805160209091012090565b815260208101919091526040016000908120805463ffffffff1691611c6b83612fc5565b91906101000a81548163ffffffff021916908363ffffffff16021790555090505b9392505050565b6000836000611cd38585604051602001611c2d92919061ffff92909216825273ffffffffffffffffffffffffffffffffffffffff16602082015260400190565b815260208101919091526040016000205463ffffffff16949350505050565b3073ffffffffffffffffffffffffffffffffffffffff7f0000000000000000000000000000000000000000000000000000000000000000161480611dbf57507f000000000000000000000000000000000000000000000000000000000000000073ffffffffffffffffffffffffffffffffffffffff16611da67f360894a13ba1a3210667c828492db98dca3e2076cc3735a920a3ca505d382bbc5473ffffffffffffffffffffffffffffffffffffffff1690565b73ffffffffffffffffffffffffffffffffffffffff1614155b15610e0f576040517fe07c8dba00000000000000000000000000000000000000000000000000000000815260040160405180910390fd5b611b33611fab565b8173ffffffffffffffffffffffffffffffffffffffff166352d1902d6040518163ffffffff1660e01b8152600401602060405180830381865afa925050508015611e83575060408051601f3d9081017fffffffffffffffffffffffffffffffffffffffffffffffffffffffffffffffe0168201909252611e809181019061328a565b60015b611ed1576040517f4c9c8ce300000000000000000000000000000000000000000000000000000000815273ffffffffffffffffffffffffffffffffffffffff83166004820152602401610a0a565b7f360894a13ba1a3210667c828492db98dca3e2076cc3735a920a3ca505d382bbc8114611f2d576040517faa1d49a400000000000000000000000000000000000000000000000000000000815260048101829052602401610a0a565b611f3783836123a6565b505050565b3073ffffffffffffffffffffffffffffffffffffffff7f00000000000000000000000000000000000000000000000000000000000000001614610e0f576040517fe07c8dba00000000000000000000000000000000000000000000000000000000815260040160405180910390fd5b33611fea7f9016d09d72d40fdae2fd8ceac6b6234c7706214fd39c1cd1e609a0528c1993005473ffffffffffffffffffffffffffffffffffffffff1690565b73ffffffffffffffffffffffffffffffffffffffff1614610e0f576040517f118cdaa7000000000000000000000000000000000000000000000000000000008152336004820152602401610a0a565b7f9016d09d72d40fdae2fd8ceac6b6234c7706214fd39c1cd1e609a0528c19930080547fffffffffffffffffffffffff0000000000000000000000000000000000000000811673ffffffffffffffffffffffffffffffffffffffff848116918217845560405192169182907f8be0079c531659141344cd1fd0a4f28419497f9722a3daafe3b4186f6b6457e090600090a3505050565b6000806120e76120e260a085018561369c565b612409565b90507ffe000000000000000000000000000000000000000000000000000000000000007fff000000000000000000000000000000000000000000000000000000000000008216016121935761214e606084013561214760a086018661369c565b909161242a565b5091508161218e576040517f1f5328cc00000000000000000000000000000000000000000000000000000000815260808401356004820152602401610a0a565b612225565b6002546040517f2adbcb65000000000000000000000000000000000000000000000000000000008152660100000000000090910473ffffffffffffffffffffffffffffffffffffffff1690632adbcb65906121f29086906004016132a3565b600060405180830381600087803b15801561220c57600080fd5b505af1158015612220573d6000803e3d6000fd5b505050505b50919050565b610a2e8282604051602401612241929190613701565b604080517fffffffffffffffffffffffffffffffffffffffffffffffffffffffffffffffe08184030181529190526020810180517bffffffffffffffffffffffffffffffffffffffffffffffffffffffff167fc3b556350000000000000000000000000000000000000000000000000000000017905261247c565b6122c4612485565b611b33816124ec565b610e0f612485565b6000805b8281101561230f578383828181106122f3576122f36131d3565b90506020020135826123059190612fb2565b91506001016122d9565b5092915050565b60606109ba8261232960e0820182613336565b90506124f4565b60606109ba8261232960a0820182613336565b60006109ba8261235660a0820182613336565b6000818110612367576123676131d3565b905060200201602081019061237c9190612fe8565b61238960e0860186613336565b90506125ac565b60006109ba8261ffff61238960e0830183613336565b6123af826125cc565b60405173ffffffffffffffffffffffffffffffffffffffff8316907fbc7cd75a20ee27fd9adebab32041f755214dbc6bffa90cc0225b39da2e5c2d3b90600090a280511561240157611f37828261269b565b610a2e61271e565b6000806124196001828587613725565b6124229161374f565b949350505050565b60006060600080600061243d8888612756565b91945062ffffff169250905061246d73ffffffffffffffffffffffffffffffffffffffff841683886020856127de565b90999098509650505050505050565b611b3381612869565b7ff0c57e16840df040f15088dc2f81fe391c3923bec73e23a9662efc9c229c6a005468010000000000000000900460ff16610e0f576040517fd7e6bcf800000000000000000000000000000000000000000000000000000000815260040160405180910390fd5b611ada612485565b606060008267ffffffffffffffff81111561251157612511612b63565b60405190808252806020026020018201604052801561253a578160200160208202803683370190505b50905060005b838110156112125761257d61255860a0870187613336565b83818110612568576125686131d3565b905060200201602081019061094c9190612fe8565b82828151811061258f5761258f6131d3565b63ffffffff90921660209283029190910190910152600101612540565b6000612422836125c26080870160608801612a5c565b600091908561288a565b8073ffffffffffffffffffffffffffffffffffffffff163b600003612635576040517f4c9c8ce300000000000000000000000000000000000000000000000000000000815273ffffffffffffffffffffffffffffffffffffffff82166004820152602401610a0a565b7f360894a13ba1a3210667c828492db98dca3e2076cc3735a920a3ca505d382bbc80547fffffffffffffffffffffffff00000000000000000000000000000000000000001673ffffffffffffffffffffffffffffffffffffffff92909216919091179055565b60606000808473ffffffffffffffffffffffffffffffffffffffff16846040516126c59190613797565b600060405180830381855af49150503d8060008114612700576040519150601f19603f3d011682016040523d82523d6000602084013e612705565b606091505b509150915061271585838361291a565b95945050505050565b3415610e0f576040517fb398979f00000000000000000000000000000000000000000000000000000000815260040160405180910390fd5b6000806060612769602160018688613725565b612772916137a9565b9250612782602460218688613725565b61278b916137e5565b60e81c915061279d8460248188613725565b8080601f0160208091040260200160405190810160405280939291908181526020018383808284376000920191909152509598949750919550929350505050565b6000606060008060008661ffff1667ffffffffffffffff81111561280457612804612b63565b6040519080825280601f01601f19166020018201604052801561282e576020820181803683370190505b5090506000808751602089018b8e8ef191503d92508683111561284f578692505b828152826000602083013e90999098509650505050505050565b60006a636f6e736f6c652e6c6f679050600080835160208501845afa505050565b6000818560006128cb8787604051602001611c2d92919061ffff92909216825273ffffffffffffffffffffffffffffffffffffffff16602082015260400190565b81526020810191909152604001600090812080549091906128f390849063ffffffff1661382a565b92506101000a81548163ffffffff021916908363ffffffff16021790559050949350505050565b60608261292f5761292a826129a9565b611c8c565b8151158015612953575073ffffffffffffffffffffffffffffffffffffffff84163b155b156129a2576040517f9996b31500000000000000000000000000000000000000000000000000000000815273ffffffffffffffffffffffffffffffffffffffff85166004820152602401610a0a565b5080611c8c565b8051156129b95780518082602001fd5b6040517f1425ea4200000000000000000000000000000000000000000000000000000000815260040160405180910390fd5b6000610100828403121561222557600080fd5b600060208284031215612a1057600080fd5b813567ffffffffffffffff811115612a2757600080fd5b612422848285016129eb565b803573ffffffffffffffffffffffffffffffffffffffff81168114612a5757600080fd5b919050565b600060208284031215612a6e57600080fd5b6109b782612a33565b803561ffff81168114612a5757600080fd5b60008060408385031215612a9c57600080fd5b612aa583612a77565b9150612ab360208401612a33565b90509250929050565b60008083601f840112612ace57600080fd5b50813567ffffffffffffffff811115612ae657600080fd5b6020830191508360208260051b8501011115612b0157600080fd5b9250929050565b60008060208385031215612b1b57600080fd5b823567ffffffffffffffff811115612b3257600080fd5b612b3e85828601612abc565b90969095509350505050565b600060208284031215612b5c57600080fd5b5035919050565b7f4e487b7100000000000000000000000000000000000000000000000000000000600052604160045260246000fd5b60008060408385031215612ba557600080fd5b612bae83612a33565b9150602083013567ffffffffffffffff80821115612bcb57600080fd5b818501915085601f830112612bdf57600080fd5b813581811115612bf157612bf1612b63565b604051601f82017fffffffffffffffffffffffffffffffffffffffffffffffffffffffffffffffe0908116603f01168101908382118183101715612c3757612c37612b63565b81604052828152886020848701011115612c5057600080fd5b8260208601602083013760006020848301015280955050505050509250929050565b60008060208385031215612c8557600080fd5b823567ffffffffffffffff80821115612c9d57600080fd5b818501915085601f830112612cb157600080fd5b813581811115612cc057600080fd5b866020828501011115612cd257600080fd5b60209290920196919550909350505050565b80358015158114612a5757600080fd5b600060208284031215612d0657600080fd5b6109b782612ce4565b803567ffffffffffffffff81168114612a5757600080fd5b600080600080600060808688031215612d3f57600080fd5b85359450612d4f60208701612d0f565b9350612d5d60408701612d0f565b9250606086013567ffffffffffffffff80821115612d7a57600080fd5b818801915088601f830112612d8e57600080fd5b813581811115612d9d57600080fd5b896020606083028501011115612db257600080fd5b9699959850939650602001949392505050565b60008060408385031215612dd857600080fd5b612de183612a33565b9150612ab360208401612ce4565b6020808252825182820181905260009190848201906040850190845b81811015612e29578351151583529284019291840191600101612e0b565b50909695505050505050565b60005b83811015612e50578181015183820152602001612e38565b50506000910152565b60008151808452612e71816020860160208601612e35565b601f017fffffffffffffffffffffffffffffffffffffffffffffffffffffffffffffffe0169290920160200192915050565b6020815260006109b76020830184612e59565b600080600060608486031215612ecb57600080fd5b612ed484612a33565b9250612ee260208501612a33565b9150612ef060408501612a33565b90509250925092565b600080600080600060808688031215612f1157600080fd5b85359450612f2160208701612d0f565b9350612f2f60408701612d0f565b9250606086013567ffffffffffffffff811115612f4b57600080fd5b612f5788828901612abc565b969995985093965092949392505050565b600060208284031215612f7a57600080fd5b6109b782612d0f565b7f4e487b7100000000000000000000000000000000000000000000000000000000600052601160045260246000fd5b808201808211156109ba576109ba612f83565b600063ffffffff808316818103612fde57612fde612f83565b6001019392505050565b600060208284031215612ffa57600080fd5b6109b782612a77565b60008083357fffffffffffffffffffffffffffffffffffffffffffffffffffffffffffffffe184360301811261303857600080fd5b830160208101925035905067ffffffffffffffff81111561305857600080fd5b803603821315612b0157600080fd5b8183528181602085013750600060208284010152600060207fffffffffffffffffffffffffffffffffffffffffffffffffffffffffffffffe0601f840116840101905092915050565b6020815267ffffffffffffffff6130c683612d0f565b16602082015260006130da60208401612d0f565b67ffffffffffffffff81166040840152506130f760408401612a33565b73ffffffffffffffffffffffffffffffffffffffff811660608401525061312060608401612a33565b73ffffffffffffffffffffffffffffffffffffffff8116608084015250608083013560a083015261315360a08401612a77565b61ffff811660c08401525061316b60c0840184613003565b6101008060e086015261318361012086018385613067565b925061319260e0870187613003565b92507fffffffffffffffffffffffffffffffffffffffffffffffffffffffffffffffe086850301828701526131c8848483613067565b979650505050505050565b7f4e487b7100000000000000000000000000000000000000000000000000000000600052603260045260246000fd5b6060810161ffff61321284612a77565b16825273ffffffffffffffffffffffffffffffffffffffff61323660208501612a33565b1660208301526040830135604083015292915050565b600082357fffffffffffffffffffffffffffffffffffffffffffffffffffffffffffffff4183360301811261328057600080fd5b9190910192915050565b60006020828403121561329c57600080fd5b5051919050565b6020815261ffff6132b383612a77565b1660208201526000602083013562ffffff81168082146132d257600080fd5b806040850152505073ffffffffffffffffffffffffffffffffffffffff6132fb60408501612a33565b16606083015260608301356080830152608083013560a083015261332260a0840184613003565b60c08085015261271560e085018284613067565b60008083357fffffffffffffffffffffffffffffffffffffffffffffffffffffffffffffffe184360301811261336b57600080fd5b83018035915067ffffffffffffffff82111561338657600080fd5b6020019150600581901b3603821315612b0157600080fd5b815160009082906020808601845b838110156133ce57815163ffffffff16855293820193908201906001016133ac565b50929695505050505050565b60008083357fffffffffffffffffffffffffffffffffffffffffffffffffffffffffffffffe184360301811261340f57600080fd5b830160208101925035905067ffffffffffffffff81111561342f57600080fd5b8060051b3603821315612b0157600080fd5b81835260007f07ffffffffffffffffffffffffffffffffffffffffffffffffffffffffffffff83111561347357600080fd5b8260051b80836020870137939093016020019392505050565b8183526000602080850194508260005b858110156134c35761ffff6134b083612a77565b168752958201959082019060010161349c565b509495945050505050565b6000838385526020808601955060208560051b8301018460005b87811015613540577fffffffffffffffffffffffffffffffffffffffffffffffffffffffffffffffe08584030189526135218288613003565b61352c858284613067565b9a86019a94505050908301906001016134e8565b5090979650505050505050565b6020815261356f6020820161356184612d0f565b67ffffffffffffffff169052565b600061357d60208401612d0f565b67ffffffffffffffff811660408401525061359a60408401612a33565b73ffffffffffffffffffffffffffffffffffffffff81166060840152506135c360608401612a33565b73ffffffffffffffffffffffffffffffffffffffff81166080840152506135ed60808401846133da565b6101008060a086015261360561012086018385613441565b925061361460a08701876133da565b92507fffffffffffffffffffffffffffffffffffffffffffffffffffffffffffffffe0808786030160c088015261364c85858461348c565b945061365b60c08901896133da565b94509150808786030160e08801526136748585846134ce565b945061368360e08901896133da565b94509150808786030183880152506131c88484836134ce565b60008083357fffffffffffffffffffffffffffffffffffffffffffffffffffffffffffffffe18436030181126136d157600080fd5b83018035915067ffffffffffffffff8211156136ec57600080fd5b602001915036819003821315612b0157600080fd5b6040815260006137146040830185612e59565b905082151560208301529392505050565b6000808585111561373557600080fd5b8386111561374257600080fd5b5050820193919092039150565b7fff00000000000000000000000000000000000000000000000000000000000000813581811691600185101561378f5780818660010360031b1b83161692505b505092915050565b60008251613280818460208701612e35565b803560208310156109ba577fffffffffffffffffffffffffffffffffffffffffffffffffffffffffffffffff602084900360031b1b1692915050565b7fffffff0000000000000000000000000000000000000000000000000000000000813581811691600385101561378f57600394850390941b84901b1690921692915050565b63ffffffff81811683821601908082111561230f5761230f612f8356fea164736f6c6343000817000a",
  "linkReferences": {},
  "deployedLinkReferences": {}
}